{
    "asset": "SARUTOBI",
    "bitcoinTx": {
        "blockhash": "0000000000000000043ed79f2ffb751e3728f78664afad371e4500e10762b484",
        "blockheight": 428097,
        "blocktime": 1472912371,
        "fees": 6.894e-05,
        "feesSat": 6894,
        "hex": "0100000001f4e6379b5f42c940a5a4630fbc37feab9410503b2dc51f3c28c70f63bb47091e010000006b483045022100a34676bb24b3e83773d1f21ed327f972f938883469d5e84962acdfb9d9dbe9c402205b0b839c9865e188a7caba7cfec9153327a278c8dda63cfccd103528356abc95012102eecbf9551f08fd1518408d7ea5a0234d834e97393cf549fb9089b3d53c1a0c26ffffffff0336150000000000001976a9147c7fb22a472ce643c366c7b17151e25ca32725e088ac00000000000000001e6a1c9dcfd885a66cf90dd67973969c2ae0ecf7e1be85a6e0a00801b8713a9aed1800000000001976a914edee861dff4de166683e4c54ae3869cd05c7ae0f88ac00000000",
        "locktime": 0,
        "size": 265,
        "txid": "f76e256422ac7bf017926e0b30f281ef98047cd395af7a59187dfe3b72568626",
        "valueIn": 0.01646014,
        "valueInSat": 1646014,
        "valueOut": 0.0163912,
        "valueOutSat": 1639120,
        "version": 1,
        "vin": [
            {
                "addr": "1Nh4tPtQjHZSoYdToTF7T3xbaKrTNKM3wP",
                "n": 0,
                "scriptSig": {
                    "asm": "3045022100a34676bb24b3e83773d1f21ed327f972f938883469d5e84962acdfb9d9dbe9c402205b0b839c9865e188a7caba7cfec9153327a278c8dda63cfccd103528356abc95[ALL] 02eecbf9551f08fd1518408d7ea5a0234d834e97393cf549fb9089b3d53c1a0c26",
                    "hex": "483045022100a34676bb24b3e83773d1f21ed327f972f938883469d5e84962acdfb9d9dbe9c402205b0b839c9865e188a7caba7cfec9153327a278c8dda63cfccd103528356abc95012102eecbf9551f08fd1518408d7ea5a0234d834e97393cf549fb9089b3d53c1a0c26"
                },
                "sequence": 4294967295,
                "txid": "1e0947bb630fc7283c1fc52d3b501094abfe37bc0f63a4a540c9425f9b37e6f4",
                "value": 0.01646014,
                "valueSat": 1646014,
                "vout": 1
            }
        ],
        "vout": [
            {
                "n": 0,
                "scriptPubKey": {
                    "addresses": [
                        "1CMHmFwjwvNgKhXfgEcQYtj9zcRBeamy6B"
                    ],
                    "asm": "OP_DUP OP_HASH160 7c7fb22a472ce643c366c7b17151e25ca32725e0 OP_EQUALVERIFY OP_CHECKSIG",
                    "hex": "76a9147c7fb22a472ce643c366c7b17151e25ca32725e088ac",
                    "reqSigs": 1,
                    "type": "pubkeyhash"
                },
                "value": 5.43e-05
            },
            {
                "n": 1,
                "scriptPubKey": {
                    "asm": "OP_RETURN 9dcfd885a66cf90dd67973969c2ae0ecf7e1be85a6e0a00801b8713a",
                    "hex": "6a1c9dcfd885a66cf90dd67973969c2ae0ecf7e1be85a6e0a00801b8713a",
                    "type": "nulldata"
                },
                "value": 0
            },
            {
                "n": 2,
                "scriptPubKey": {
                    "addresses": [
                        "1Nh4tPtQjHZSoYdToTF7T3xbaKrTNKM3wP"
                    ],
                    "asm": "OP_DUP OP_HASH160 edee861dff4de166683e4c54ae3869cd05c7ae0f OP_EQUALVERIFY OP_CHECKSIG",
                    "hex": "76a914edee861dff4de166683e4c54ae3869cd05c7ae0f88ac",
                    "reqSigs": 1,
                    "type": "pubkeyhash"
                },
                "value": 0.0163369
            }
        ]
    },
    "blockSeq": 1150,
    "confirmationTime": "2016-09-03T14:19:31+0000",
    "confirmations": 1,
    "confirmed": true,
    "counterpartyTx": {
        "asset": "SARUTOBI",
        "destinations": [
            "1CMHmFwjwvNgKhXfgEcQYtj9zcRBeamy6B"
        ],
        "dustSize": 5.43e-05,
        "dustSizeSat": 5430,
        "quantity": 5,
        "quantitySat": 500000000,
        "sources": [
            "1Nh4tPtQjHZSoYdToTF7T3xbaKrTNKM3wP"
        ],
        "type": "send",
        "validated": true
    },
    "destinations": [
        "1CMHmFwjwvNgKhXfgEcQYtj9zcRBeamy6B"
    ],
    "event": "send",
    "network": "counterparty",
    "notifiedAddress": "1Nh4tPtQjHZSoYdToTF7T3xbaKrTNKM3wP",
    "notifiedAddressId": "0e085fd0-93d4-449c-956d-11ad56f9702f",
    "quantity": 5,
    "quantitySat": 500000000,
    "sources": [
        "1Nh4tPtQjHZSoYdToTF7T3xbaKrTNKM3wP"
    ],
    "transactionFingerprint": "b46576627bac72ea4db7b3b0075f03bdd00fcc4e986d8cd06b0edf258d5d17f1",
    "transactionTime": "2016-09-03T11:06:50+0000",
    "txid": "f76e256422ac7bf017926e0b30f281ef98047cd395af7a59187dfe3b72568626"
}