{
    "hex": "0100000001f522e6e1337be6fa7f16da3d60622ee297feec84060a920e4d0b3a0aefaeb16a010000006a47304402206b13d18f6105d08bb671d41244afafc7c555287559f4a69edac8cf0fccbe498b022012ac5ffc134a46a4ae3c239bc3c37b6832dad8148a1858401962affa1b1201450121025ab1ade62ebe43f1bd5b8f00a9d2ef3a73a1d3fa339962d2b09bd49cab7aca67ffffffff020000000000000000456a4362bf21f4405e406e2c0e8807bcb3cb248eda41caee53e11a69ecd1c5bb3d96bf3d960d1b87b23f8b8672a719c423604fa6fe5edb0c60a18b462e2c6c6893af6e9f245f84c80800000000001976a914650bc76d0e6bfbb7088227a08781bb76cff5a8e788ac00000000",
    "txid": "177f12c1c98e162998a1fd7bd9d13a87f643e08527134dc116ce838cad547d6f",
    "version": 1,
    "locktime": 0,
    "vin": [
        {
            "txid": "6ab1aeef0a3a0b4d0e920a0684ecfe97e22e62603dda167ffae67b33e1e622f5",
            "vout": 1,
            "scriptSig": {
                "asm": "304402206b13d18f6105d08bb671d41244afafc7c555287559f4a69edac8cf0fccbe498b022012ac5ffc134a46a4ae3c239bc3c37b6832dad8148a1858401962affa1b12014501 025ab1ade62ebe43f1bd5b8f00a9d2ef3a73a1d3fa339962d2b09bd49cab7aca67",
                "hex": "47304402206b13d18f6105d08bb671d41244afafc7c555287559f4a69edac8cf0fccbe498b022012ac5ffc134a46a4ae3c239bc3c37b6832dad8148a1858401962affa1b1201450121025ab1ade62ebe43f1bd5b8f00a9d2ef3a73a1d3fa339962d2b09bd49cab7aca67"
            },
            "sequence": 4294967295
        }
    ],
    "vout": [
        {
            "value": 0,
            "n": 0,
            "scriptPubKey": {
                "asm": "OP_RETURN 62bf21f4405e406e2c0e8807bcb3cb248eda41caee53e11a69ecd1c5bb3d96bf3d960d1b87b23f8b8672a719c423604fa6fe5edb0c60a18b462e2c6c6893af6e9f245f",
                "hex": "6a4362bf21f4405e406e2c0e8807bcb3cb248eda41caee53e11a69ecd1c5bb3d96bf3d960d1b87b23f8b8672a719c423604fa6fe5edb0c60a18b462e2c6c6893af6e9f245f",
                "type": "nulldata"
            }
        },
        {
            "value": 0.0057562,
            "n": 1,
            "scriptPubKey": {
                "asm": "OP_DUP OP_HASH160 650bc76d0e6bfbb7088227a08781bb76cff5a8e7 OP_EQUALVERIFY OP_CHECKSIG",
                "hex": "76a914650bc76d0e6bfbb7088227a08781bb76cff5a8e788ac",
                "reqSigs": 1,
                "type": "pubkeyhash",
                "addresses": [
                    "1ADHMo6KGgJZRxrPUYUUVGFYeZ2noAfDRQ"
                ]
            }
        }
    ],
    "blockhash": "000000000000000002231b8c8713bd57cbdea89a1a4700e536c90089603c42ff",
    "confirmations": 6660,
    "time": 1465046090,
    "blocktime": 1465046090
}