{
    "hex": "01000000024b1725b8dfb513e403ae9bbd9f6a260174ec368933856a6928c25ec86cf7dc8b01000000db00483045022100fee009f6a519ea4f7fbd1a4cfe0223e99a15dee31dd3e302829542090a3c6b4102203f728da79ec6f8bc16872f69483146e74e4f92668609e629dc4df21ef736d0c001483045022100f07683b9aa899f1197b0a76871817a306cb8c7790b0a544a74a37a77a4e196d90220586d9a70e02455bf93c88ec6c224f6e42b07f7f119fe3a7e8940df4147e6c5f601475221033a4ec2f29f7a23501c49cff92b829a875ed904dd7ed2262b877ba416a8a5a504210392e4ecdd0af74a2d05b9448343b22fac173c1618c62caf2039efb09c7e67f2d452aeffffffff0433360bd5075f626e3d4fdb1f7f2d739cbccfb94ed94898509f2e44381211e900000000da0047304402202031308677cc691b064ab85acbe8c07746329d2dd06956cfed93f1f0c92fcf09022079c1f8db055ee49fc92d5d135d83c571996092a04ef4fed3b25fcac2fc304fa901483045022100ba4fd45118b9a1cc1f17c9bb7b0607459182c9e7d3e392535083480fbac7a3aa0220011fe657964294ca84ba255f3e8cbfa428361b0540d4f80db64c1158e5cef8d301475221033a4ec2f29f7a23501c49cff92b829a875ed904dd7ed2262b877ba416a8a5a504210392e4ecdd0af74a2d05b9448343b22fac173c1618c62caf2039efb09c7e67f2d452aeffffffff02005a6202000000001976a914a6694b27dcc17b5229b719df2582b97efad1f79a88ac08970c000000000017a914e400689125bda90d2d892f7566ec90b126bd97178700000000",
    "txid": "484c517a459f801ffca984961a94ff46cf50629999e0497c219539e76f83b781",
    "version": 1,
    "locktime": 0,
    "vin": [
        {
            "txid": "8bdcf76cc85ec228696a85338936ec7401266a9fbd9bae03e413b5dfb825174b",
            "vout": 1,
            "scriptSig": {
                "asm": "0 3045022100fee009f6a519ea4f7fbd1a4cfe0223e99a15dee31dd3e302829542090a3c6b4102203f728da79ec6f8bc16872f69483146e74e4f92668609e629dc4df21ef736d0c001 3045022100f07683b9aa899f1197b0a76871817a306cb8c7790b0a544a74a37a77a4e196d90220586d9a70e02455bf93c88ec6c224f6e42b07f7f119fe3a7e8940df4147e6c5f601 5221033a4ec2f29f7a23501c49cff92b829a875ed904dd7ed2262b877ba416a8a5a504210392e4ecdd0af74a2d05b9448343b22fac173c1618c62caf2039efb09c7e67f2d452ae",
                "hex": "00483045022100fee009f6a519ea4f7fbd1a4cfe0223e99a15dee31dd3e302829542090a3c6b4102203f728da79ec6f8bc16872f69483146e74e4f92668609e629dc4df21ef736d0c001483045022100f07683b9aa899f1197b0a76871817a306cb8c7790b0a544a74a37a77a4e196d90220586d9a70e02455bf93c88ec6c224f6e42b07f7f119fe3a7e8940df4147e6c5f601475221033a4ec2f29f7a23501c49cff92b829a875ed904dd7ed2262b877ba416a8a5a504210392e4ecdd0af74a2d05b9448343b22fac173c1618c62caf2039efb09c7e67f2d452ae"
            },
            "sequence": 4294967295
        },
        {
            "txid": "e9111238442e9f509848d94eb9cfbc9c732d7f1fdb4f3d6e625f07d50b363304",
            "vout": 0,
            "scriptSig": {
                "asm": "0 304402202031308677cc691b064ab85acbe8c07746329d2dd06956cfed93f1f0c92fcf09022079c1f8db055ee49fc92d5d135d83c571996092a04ef4fed3b25fcac2fc304fa901 3045022100ba4fd45118b9a1cc1f17c9bb7b0607459182c9e7d3e392535083480fbac7a3aa0220011fe657964294ca84ba255f3e8cbfa428361b0540d4f80db64c1158e5cef8d301 5221033a4ec2f29f7a23501c49cff92b829a875ed904dd7ed2262b877ba416a8a5a504210392e4ecdd0af74a2d05b9448343b22fac173c1618c62caf2039efb09c7e67f2d452ae",
                "hex": "0047304402202031308677cc691b064ab85acbe8c07746329d2dd06956cfed93f1f0c92fcf09022079c1f8db055ee49fc92d5d135d83c571996092a04ef4fed3b25fcac2fc304fa901483045022100ba4fd45118b9a1cc1f17c9bb7b0607459182c9e7d3e392535083480fbac7a3aa0220011fe657964294ca84ba255f3e8cbfa428361b0540d4f80db64c1158e5cef8d301475221033a4ec2f29f7a23501c49cff92b829a875ed904dd7ed2262b877ba416a8a5a504210392e4ecdd0af74a2d05b9448343b22fac173c1618c62caf2039efb09c7e67f2d452ae"
            },
            "sequence": 4294967295
        }
    ],
    "vout": [
        {
            "value": 0.4,
            "n": 0,
            "scriptPubKey": {
                "asm": "OP_DUP OP_HASH160 a6694b27dcc17b5229b719df2582b97efad1f79a OP_EQUALVERIFY OP_CHECKSIG",
                "hex": "76a914a6694b27dcc17b5229b719df2582b97efad1f79a88ac",
                "reqSigs": 1,
                "type": "pubkeyhash",
                "addresses": [
                    "1GAuJmejLQQpYKgKTmQFFxFwjBbZ6YEAsd"
                ]
            }
        },
        {
            "value": 0.00825096,
            "n": 1,
            "scriptPubKey": {
                "asm": "OP_HASH160 e400689125bda90d2d892f7566ec90b126bd9717 OP_EQUAL",
                "hex": "a914e400689125bda90d2d892f7566ec90b126bd971787",
                "reqSigs": 1,
                "type": "scripthash",
                "addresses": [
                    "3NUaUfLH5Tj295VcCe6ax6EXFkLzA1JcZT"
                ]
            }
        }
    ],
    "blockhash": "0000000000000000003a6444684e503f501ae76b21179c6119d8d22c09a70772",
    "confirmations": 21,
    "time": 1468656166,
    "blocktime": 1468656166
}