{
    "hex": "0100000001986369027e210bddf8cae6628ed4fdabb7e7524d3f87c049cd404f672d450bb7020000006a47304402207f50d0f0cfa27edbbc43003d19579ff7d6a9a66e2a505e890eae156af26a7349022008628eb56bbf40f3f34cd044eeff4cc3024476126f58179c85fc1713bd0ac6b50121034bf23d14fa8aa9e8ebfee6e0bf986fa36ad61434068b89b7a8801506ed5060bbffffffff0200000000000000003a6a3866d70748b84f49ba52e6966f66952a8b72923d688cea75f4795ebda19bbe67b5cfee4b244003e964d91dfb2751a9fadc7d8a4d28f7eb8c6e58bb0b00000000001976a914de1607744008a3edeabae06365a9aa2b131d5dc288ac00000000",
    "txid": "b9ef50731991198d01fcaf8d95faa24482e9714af7d5d21cada6c393e3428e49",
    "hash": "b9ef50731991198d01fcaf8d95faa24482e9714af7d5d21cada6c393e3428e49",
    "size": 258,
    "vsize": 258,
    "version": 1,
    "locktime": 0,
    "vin": [
        {
            "txid": "b70b452d674f40cd49c0873f4d52e7b7abfdd48e62e6caf8dd0b217e02696398",
            "vout": 2,
            "scriptSig": {
                "asm": "304402207f50d0f0cfa27edbbc43003d19579ff7d6a9a66e2a505e890eae156af26a7349022008628eb56bbf40f3f34cd044eeff4cc3024476126f58179c85fc1713bd0ac6b5[ALL] 034bf23d14fa8aa9e8ebfee6e0bf986fa36ad61434068b89b7a8801506ed5060bb",
                "hex": "47304402207f50d0f0cfa27edbbc43003d19579ff7d6a9a66e2a505e890eae156af26a7349022008628eb56bbf40f3f34cd044eeff4cc3024476126f58179c85fc1713bd0ac6b50121034bf23d14fa8aa9e8ebfee6e0bf986fa36ad61434068b89b7a8801506ed5060bb"
            },
            "sequence": 4294967295
        }
    ],
    "vout": [
        {
            "value": 0,
            "n": 0,
            "scriptPubKey": {
                "asm": "OP_RETURN 66d70748b84f49ba52e6966f66952a8b72923d688cea75f4795ebda19bbe67b5cfee4b244003e964d91dfb2751a9fadc7d8a4d28f7eb8c6e",
                "hex": "6a3866d70748b84f49ba52e6966f66952a8b72923d688cea75f4795ebda19bbe67b5cfee4b244003e964d91dfb2751a9fadc7d8a4d28f7eb8c6e",
                "type": "nulldata"
            }
        },
        {
            "value": 0.00768856,
            "n": 1,
            "scriptPubKey": {
                "asm": "OP_DUP OP_HASH160 de1607744008a3edeabae06365a9aa2b131d5dc2 OP_EQUALVERIFY OP_CHECKSIG",
                "hex": "76a914de1607744008a3edeabae06365a9aa2b131d5dc288ac",
                "reqSigs": 1,
                "type": "pubkeyhash",
                "addresses": [
                    "1MFHQCPGtcSfNPXAS6NryWja3TbUN9239Y"
                ]
            }
        }
    ],
    "blockhash": "000000000000000000a6dae597c89af47a3f3028dff3875244cc3695fef6717a",
    "confirmations": 334,
    "time": 1508089538,
    "blocktime": 1508089538
}
