{
    "hex": "01000000018b36b652935bedacdff158778a54e8597cbb56f95dae55fcb28433784205bbbf010000006b483045022100a48936dc51666e4b29a55f6e846f53b927f3d1c05bba48b11eac027d1be519b60220039d3fd00b33b1d59a1f44bb331fc50b798c728e4b88c97504cf22e7a0bc7169012103946a770230678535ebb61cf982da87d4f21d2922d316611aaabc99231369481cffffffff035e150000000000001976a91495c64435a688699691fe7cc95662c08d22faab0988ac00000000000000001e6a1c66173dc656737d1ee4b29aaaef3f4029a5237bb3fad4eacd0dda2f938631ba03000000001976a914e3ea6562df21ada5dd2b03f69f7f7ef48d7f59b288ac00000000",
    "txid": "326b104a3926d88abbdc6af6e85642c384a1e1786ac00d4dd23cced5f2fd718b",
    "version": 1,
    "locktime": 0,
    "vin": [
        {
            "txid": "bfbb0542783384b2fc55ae5df956bb7c59e8548a7758f1dfaced5b9352b6368b",
            "vout": 1,
            "scriptSig": {
                "asm": "3045022100a48936dc51666e4b29a55f6e846f53b927f3d1c05bba48b11eac027d1be519b60220039d3fd00b33b1d59a1f44bb331fc50b798c728e4b88c97504cf22e7a0bc716901 03946a770230678535ebb61cf982da87d4f21d2922d316611aaabc99231369481c",
                "hex": "483045022100a48936dc51666e4b29a55f6e846f53b927f3d1c05bba48b11eac027d1be519b60220039d3fd00b33b1d59a1f44bb331fc50b798c728e4b88c97504cf22e7a0bc7169012103946a770230678535ebb61cf982da87d4f21d2922d316611aaabc99231369481c"
            },
            "sequence": 4294967295
        }
    ],
    "vout": [
        {
            "value": 5.47e-5,
            "n": 0,
            "scriptPubKey": {
                "asm": "OP_DUP OP_HASH160 95c64435a688699691fe7cc95662c08d22faab09 OP_EQUALVERIFY OP_CHECKSIG",
                "hex": "76a91495c64435a688699691fe7cc95662c08d22faab0988ac",
                "reqSigs": 1,
                "type": "pubkeyhash",
                "addresses": [
                    "1EewCNrN1oypSYZE81HBiqrjuhkLcz1qXR"
                ]
            }
        },
        {
            "value": 0,
            "n": 1,
            "scriptPubKey": {
                "asm": "OP_RETURN 66173dc656737d1ee4b29aaaef3f4029a5237bb3fad4eacd0dda2f93",
                "hex": "6a1c66173dc656737d1ee4b29aaaef3f4029a5237bb3fad4eacd0dda2f93",
                "type": "nulldata"
            }
        },
        {
            "value": 0.62534022,
            "n": 2,
            "scriptPubKey": {
                "asm": "OP_DUP OP_HASH160 e3ea6562df21ada5dd2b03f69f7f7ef48d7f59b2 OP_EQUALVERIFY OP_CHECKSIG",
                "hex": "76a914e3ea6562df21ada5dd2b03f69f7f7ef48d7f59b288ac",
                "reqSigs": 1,
                "type": "pubkeyhash",
                "addresses": [
                    "1Mn7Bfjj59gB7WrcK6Wt6v3UZ5FLZQmGki"
                ]
            }
        }
    ],
    "blockhash": "00000000000000000379dcda1bf4ebfd9854463d04c15a233a7d55278b6e8dff",
    "confirmations": 87,
    "time": 1468928249,
    "blocktime": 1468928249
}