{
    "hex": "01000000023b720d9e93cb2c2fd199d28ac3c1af2c5e9e9831e03c2bf5c0bc999f6df4f1c9000000006b4830450221009fe51f6de1b893a71aded53f59e554e8b92427a00805616ff63c929fd82be13b022002ba7a09289692998b711797cb7b9058b55ad2e5802d7503d06576dadeaefb1901210374b3667e5297a89722066aeb9119a8e6a81d2279691320af47f3840e31d41caafeffffff1cc615e0b6e6b7a21811df2df37cdb01105c7e959a1e8378e0fe913ada442f9c000000006a4730440220494f18cd259466b9356494303292d6e4c10a3629883077955f314f2ee972d45d0220639c5cffe37aa695ba340f4fd34cd3191b7c577573171e1a4f822aff59dbc95c012102cd6bef7e97e6f637e3752e48b14ffafcb86dbd722539218351eacc5142c274f6feffffff0be5f41a00000000001976a914c5e6978965ba44cce2ca16979d1d3775a93dc20588ac08520000000000001976a914226aac7f3cab8900f177ddc370919a0ff176713f88acf64f0000000000001976a914469534e04ea0dc6200e6f63ee20e38b43b285a2088ac6a4e0000000000001976a914c8db60073d7368959147154c383113a72dd3b66888ac6b4e0000000000001976a914f561621066b38c1c594293fc5bb447d4571526a888ac204e0000000000001976a914664bd3e90c45900a8cf68ea81088c9e0481fdf7388ac66570000000000001976a91484e7026a300ae52d7ec195dd89927e84de09ac9e88ac564f0000000000001976a914e5d8613f0dcb189607071b3d3a45d776c1b53f4388ac30750000000000001976a91400da94837d4eef5fc95189ad40fedbeeefb95c1a88ac664f0000000000001976a914de552b263b7b50ac1fa824283c1c571bc2959ff288ac204e0000000000001976a9143a48bb8db8d3db7bb5d2bd6e6e5b08b0ddc518a988ac4e6c0600",
    "txid": "75eba34ac80fb41ab87f23bd824566d68e91ea92ad568e1d8cc7af811521ad41",
    "version": 1,
    "locktime": 420942,
    "vin": [
        {
            "txid": "c9f1f46d9f99bcc0f52b3ce031989e5e2cafc1c38ad299d12f2ccb939e0d723b",
            "vout": 0,
            "scriptSig": {
                "asm": "30450221009fe51f6de1b893a71aded53f59e554e8b92427a00805616ff63c929fd82be13b022002ba7a09289692998b711797cb7b9058b55ad2e5802d7503d06576dadeaefb1901 0374b3667e5297a89722066aeb9119a8e6a81d2279691320af47f3840e31d41caa",
                "hex": "4830450221009fe51f6de1b893a71aded53f59e554e8b92427a00805616ff63c929fd82be13b022002ba7a09289692998b711797cb7b9058b55ad2e5802d7503d06576dadeaefb1901210374b3667e5297a89722066aeb9119a8e6a81d2279691320af47f3840e31d41caa"
            },
            "sequence": 4294967294
        },
        {
            "txid": "9c2f44da3a91fee078831e9a957e5c1001db7cf32ddf1118a2b7e6b6e015c61c",
            "vout": 0,
            "scriptSig": {
                "asm": "30440220494f18cd259466b9356494303292d6e4c10a3629883077955f314f2ee972d45d0220639c5cffe37aa695ba340f4fd34cd3191b7c577573171e1a4f822aff59dbc95c01 02cd6bef7e97e6f637e3752e48b14ffafcb86dbd722539218351eacc5142c274f6",
                "hex": "4730440220494f18cd259466b9356494303292d6e4c10a3629883077955f314f2ee972d45d0220639c5cffe37aa695ba340f4fd34cd3191b7c577573171e1a4f822aff59dbc95c012102cd6bef7e97e6f637e3752e48b14ffafcb86dbd722539218351eacc5142c274f6"
            },
            "sequence": 4294967294
        }
    ],
    "vout": [
        {
            "value": 0.01766629,
            "n": 0,
            "scriptPubKey": {
                "asm": "OP_DUP OP_HASH160 c5e6978965ba44cce2ca16979d1d3775a93dc205 OP_EQUALVERIFY OP_CHECKSIG",
                "hex": "76a914c5e6978965ba44cce2ca16979d1d3775a93dc20588ac",
                "reqSigs": 1,
                "type": "pubkeyhash",
                "addresses": [
                    "1K3QMbmfT9tmUnCCfAJahimnsFm8odpdDp"
                ]
            }
        },
        {
            "value": 0.00021,
            "n": 1,
            "scriptPubKey": {
                "asm": "OP_DUP OP_HASH160 226aac7f3cab8900f177ddc370919a0ff176713f OP_EQUALVERIFY OP_CHECKSIG",
                "hex": "76a914226aac7f3cab8900f177ddc370919a0ff176713f88ac",
                "reqSigs": 1,
                "type": "pubkeyhash",
                "addresses": [
                    "148ymMEqgHYjCJzYPrtgdfTmeWP5nhHYAw"
                ]
            }
        },
        {
            "value": 0.0002047,
            "n": 2,
            "scriptPubKey": {
                "asm": "OP_DUP OP_HASH160 469534e04ea0dc6200e6f63ee20e38b43b285a20 OP_EQUALVERIFY OP_CHECKSIG",
                "hex": "76a914469534e04ea0dc6200e6f63ee20e38b43b285a2088ac",
                "reqSigs": 1,
                "type": "pubkeyhash",
                "addresses": [
                    "17SD3UtSEkeZuCMziTy4zk9iXPfVQzPHh3"
                ]
            }
        },
        {
            "value": 0.00020074,
            "n": 3,
            "scriptPubKey": {
                "asm": "OP_DUP OP_HASH160 c8db60073d7368959147154c383113a72dd3b668 OP_EQUALVERIFY OP_CHECKSIG",
                "hex": "76a914c8db60073d7368959147154c383113a72dd3b66888ac",
                "reqSigs": 1,
                "type": "pubkeyhash",
                "addresses": [
                    "1KK2wpKx4FEqNFcXMaGeDufc3111CZHdeu"
                ]
            }
        },
        {
            "value": 0.00020075,
            "n": 4,
            "scriptPubKey": {
                "asm": "OP_DUP OP_HASH160 f561621066b38c1c594293fc5bb447d4571526a8 OP_EQUALVERIFY OP_CHECKSIG",
                "hex": "76a914f561621066b38c1c594293fc5bb447d4571526a888ac",
                "reqSigs": 1,
                "type": "pubkeyhash",
                "addresses": [
                    "1PNTDHxDHaLiABqSL8q6uGL6L3AeoJSuGc"
                ]
            }
        },
        {
            "value": 0.0002,
            "n": 5,
            "scriptPubKey": {
                "asm": "OP_DUP OP_HASH160 664bd3e90c45900a8cf68ea81088c9e0481fdf73 OP_EQUALVERIFY OP_CHECKSIG",
                "hex": "76a914664bd3e90c45900a8cf68ea81088c9e0481fdf7388ac",
                "reqSigs": 1,
                "type": "pubkeyhash",
                "addresses": [
                    "1AKtmB2Vw2FfBP4TxgoSdhNN4XKjQwqZrq"
                ]
            }
        },
        {
            "value": 0.00022374,
            "n": 6,
            "scriptPubKey": {
                "asm": "OP_DUP OP_HASH160 84e7026a300ae52d7ec195dd89927e84de09ac9e OP_EQUALVERIFY OP_CHECKSIG",
                "hex": "76a91484e7026a300ae52d7ec195dd89927e84de09ac9e88ac",
                "reqSigs": 1,
                "type": "pubkeyhash",
                "addresses": [
                    "1D7iw92ZfeCu3VvnemWeSQv4C3mRURPp8P"
                ]
            }
        },
        {
            "value": 0.0002031,
            "n": 7,
            "scriptPubKey": {
                "asm": "OP_DUP OP_HASH160 e5d8613f0dcb189607071b3d3a45d776c1b53f43 OP_EQUALVERIFY OP_CHECKSIG",
                "hex": "76a914e5d8613f0dcb189607071b3d3a45d776c1b53f4388ac",
                "reqSigs": 1,
                "type": "pubkeyhash",
                "addresses": [
                    "1MxJxGRnwDFcG7izVNe49muxisdUxRxALP"
                ]
            }
        },
        {
            "value": 0.0003,
            "n": 8,
            "scriptPubKey": {
                "asm": "OP_DUP OP_HASH160 00da94837d4eef5fc95189ad40fedbeeefb95c1a OP_EQUALVERIFY OP_CHECKSIG",
                "hex": "76a91400da94837d4eef5fc95189ad40fedbeeefb95c1a88ac",
                "reqSigs": 1,
                "type": "pubkeyhash",
                "addresses": [
                    "115WrDQ9XZMrXRhoefiC5qyuvTAP59z9VF"
                ]
            }
        },
        {
            "value": 0.00020326,
            "n": 9,
            "scriptPubKey": {
                "asm": "OP_DUP OP_HASH160 de552b263b7b50ac1fa824283c1c571bc2959ff2 OP_EQUALVERIFY OP_CHECKSIG",
                "hex": "76a914de552b263b7b50ac1fa824283c1c571bc2959ff288ac",
                "reqSigs": 1,
                "type": "pubkeyhash",
                "addresses": [
                    "1MGb3CfVcARuZZa24hKJ1GQbym92dQsLHN"
                ]
            }
        },
        {
            "value": 0.0002,
            "n": 10,
            "scriptPubKey": {
                "asm": "OP_DUP OP_HASH160 3a48bb8db8d3db7bb5d2bd6e6e5b08b0ddc518a9 OP_EQUALVERIFY OP_CHECKSIG",
                "hex": "76a9143a48bb8db8d3db7bb5d2bd6e6e5b08b0ddc518a988ac",
                "reqSigs": 1,
                "type": "pubkeyhash",
                "addresses": [
                    "16KBKgKinMJioGByupPRerJEg3CvBHD7H2"
                ]
            }
        }
    ],
    "blockhash": "0000000000000000003a6444684e503f501ae76b21179c6119d8d22c09a70772",
    "confirmations": 21,
    "time": 1468656166,
    "blocktime": 1468656166
}