{
    "hex": "0100000001db5ea293e714d4c625bff29104e6c59e7e949a6c2229a1011e23d2b20fbbc9f1000000006a4730440220100b15fd3514bbd17b16b40bb6d33b3f1f7432a146b14258d4d3f01ae3499c0102206ace153e03bd535f5daee7bee405fb56a354ff24772c8bf6aef92f373da7b6c1012102add9a6742e9984dec0b3e2be07fd30d90f6a0c6e50c487ebb457c7277116a27afeffffff06a0860100000000001976a914f511909c2641d9d3df92219143a0ec53798f1d4288ac204e0000000000001976a9142d0e84aa54b1ceebbb40a893fb2e40651aad0fe488acfd4e0000000000001976a914e0559c97e8e66c09d3e4d4bc781e2550dfed1e9f88ac1dd11300000000001976a914a32e873b2a48477678d30a31b1576f466e06a2c888ac204e0000000000001976a914a2bbb3f6171cd746280aa62b38e71634a401b9df88ac6f4f0000000000001976a91433ac96fb18793f872cdb811f2d97363e28e7767188ac4b6c0600",
    "txid": "dd1ed9252973644a7c05f1902d84d85455a917a6950a420f57c90238e6794c0a",
    "version": 1,
    "locktime": 420939,
    "vin": [
        {
            "txid": "f1c9bb0fb2d2231e01a129226c9a947e9ec5e60491f2bf25c6d414e793a25edb",
            "vout": 0,
            "scriptSig": {
                "asm": "30440220100b15fd3514bbd17b16b40bb6d33b3f1f7432a146b14258d4d3f01ae3499c0102206ace153e03bd535f5daee7bee405fb56a354ff24772c8bf6aef92f373da7b6c101 02add9a6742e9984dec0b3e2be07fd30d90f6a0c6e50c487ebb457c7277116a27a",
                "hex": "4730440220100b15fd3514bbd17b16b40bb6d33b3f1f7432a146b14258d4d3f01ae3499c0102206ace153e03bd535f5daee7bee405fb56a354ff24772c8bf6aef92f373da7b6c1012102add9a6742e9984dec0b3e2be07fd30d90f6a0c6e50c487ebb457c7277116a27a"
            },
            "sequence": 4294967294
        }
    ],
    "vout": [
        {
            "value": 0.001,
            "n": 0,
            "scriptPubKey": {
                "asm": "OP_DUP OP_HASH160 f511909c2641d9d3df92219143a0ec53798f1d42 OP_EQUALVERIFY OP_CHECKSIG",
                "hex": "76a914f511909c2641d9d3df92219143a0ec53798f1d4288ac",
                "reqSigs": 1,
                "type": "pubkeyhash",
                "addresses": [
                    "1PLobRpST1JzNgTt5PYUTETL2TmSrBCTxz"
                ]
            }
        },
        {
            "value": 0.0002,
            "n": 1,
            "scriptPubKey": {
                "asm": "OP_DUP OP_HASH160 2d0e84aa54b1ceebbb40a893fb2e40651aad0fe4 OP_EQUALVERIFY OP_CHECKSIG",
                "hex": "76a9142d0e84aa54b1ceebbb40a893fb2e40651aad0fe488ac",
                "reqSigs": 1,
                "type": "pubkeyhash",
                "addresses": [
                    "157EoNpjofpCX1BtdbYU43WQwSSnDdw2J5"
                ]
            }
        },
        {
            "value": 0.00020221,
            "n": 2,
            "scriptPubKey": {
                "asm": "OP_DUP OP_HASH160 e0559c97e8e66c09d3e4d4bc781e2550dfed1e9f OP_EQUALVERIFY OP_CHECKSIG",
                "hex": "76a914e0559c97e8e66c09d3e4d4bc781e2550dfed1e9f88ac",
                "reqSigs": 1,
                "type": "pubkeyhash",
                "addresses": [
                    "1MTAvNja27mnYSzFkJ7m8G7goBvF8Jv3XG"
                ]
            }
        },
        {
            "value": 0.01298717,
            "n": 3,
            "scriptPubKey": {
                "asm": "OP_DUP OP_HASH160 a32e873b2a48477678d30a31b1576f466e06a2c8 OP_EQUALVERIFY OP_CHECKSIG",
                "hex": "76a914a32e873b2a48477678d30a31b1576f466e06a2c888ac",
                "reqSigs": 1,
                "type": "pubkeyhash",
                "addresses": [
                    "1Fspt7EyiNw6ZgheBW4MN8xb3AzGZroiZm"
                ]
            }
        },
        {
            "value": 0.0002,
            "n": 4,
            "scriptPubKey": {
                "asm": "OP_DUP OP_HASH160 a2bbb3f6171cd746280aa62b38e71634a401b9df OP_EQUALVERIFY OP_CHECKSIG",
                "hex": "76a914a2bbb3f6171cd746280aa62b38e71634a401b9df88ac",
                "reqSigs": 1,
                "type": "pubkeyhash",
                "addresses": [
                    "1FqTKuenrZwssSzuthUw8jJowipboKcTyN"
                ]
            }
        },
        {
            "value": 0.00020335,
            "n": 5,
            "scriptPubKey": {
                "asm": "OP_DUP OP_HASH160 33ac96fb18793f872cdb811f2d97363e28e77671 OP_EQUALVERIFY OP_CHECKSIG",
                "hex": "76a91433ac96fb18793f872cdb811f2d97363e28e7767188ac",
                "reqSigs": 1,
                "type": "pubkeyhash",
                "addresses": [
                    "15iEDXnMpxhrx4oz16mGHUfcL4YQfMV5wh"
                ]
            }
        }
    ],
    "blockhash": "000000000000000003b2f9538c2d1db86b02380969054a0a1577a48707675f2a",
    "confirmations": 23,
    "time": 1468654874,
    "blocktime": 1468654874
}