{
    "hex": "0100000001f0dc5acf89c6174dc457c36a7674d681c127c3a458d5e867cddc90130e3e8157020000006a47304402206b76d3fd92aa8f02c379b8815251cf35543746e05370e1f30935ad72df49987702200324315b8d4f723abd1e668b95af97ef1ad6a6a77695316f5a3156b3e5426f1301210357be593e7d4c09a8e97a8c97cc759ddcec73e0ceb47cf31087a2c2727783d3d3ffffffff03e2040000000000001976a914ebb0013404622f5fecfcb386bae0a784bd68bfae88ace20400000000000069512103287d074fe67b2b12f24d53f90188e8a3f8ecb2d5c088a97865ea09597c0493462103b3fc142f110a223418b0522e4724de8c87516a9e197b104e1d3bb4f944de452b210357be593e7d4c09a8e97a8c97cc759ddcec73e0ceb47cf31087a2c2727783d3d353ae7c1e5300000000001976a9141949131981468beab8c05247b8726b98f0cbfd6188ac00000000",
    "txid": "d3cffc618712f5e45484508a64af0441abf04fb565fec375782d927e1db31726",
    "size": 339,
    "version": 1,
    "locktime": 0,
    "vin": [
        {
            "txid": "57813e0e1390dccd67e8d558a4c327c181d674766ac357c44d17c689cf5adcf0",
            "vout": 2,
            "scriptSig": {
                "asm": "304402206b76d3fd92aa8f02c379b8815251cf35543746e05370e1f30935ad72df49987702200324315b8d4f723abd1e668b95af97ef1ad6a6a77695316f5a3156b3e5426f13[ALL] 0357be593e7d4c09a8e97a8c97cc759ddcec73e0ceb47cf31087a2c2727783d3d3",
                "hex": "47304402206b76d3fd92aa8f02c379b8815251cf35543746e05370e1f30935ad72df49987702200324315b8d4f723abd1e668b95af97ef1ad6a6a77695316f5a3156b3e5426f1301210357be593e7d4c09a8e97a8c97cc759ddcec73e0ceb47cf31087a2c2727783d3d3"
            },
            "sequence": 4294967295
        }
    ],
    "vout": [
        {
            "value": 1.25e-5,
            "n": 0,
            "scriptPubKey": {
                "asm": "OP_DUP OP_HASH160 ebb0013404622f5fecfcb386bae0a784bd68bfae OP_EQUALVERIFY OP_CHECKSIG",
                "hex": "76a914ebb0013404622f5fecfcb386bae0a784bd68bfae88ac",
                "reqSigs": 1,
                "type": "pubkeyhash",
                "addresses": [
                    "1NVCe6s5B8jPziVeiNi6LFPbzEmzqNc4cD"
                ]
            }
        },
        {
            "value": 1.25e-5,
            "n": 1,
            "scriptPubKey": {
                "asm": "1 03287d074fe67b2b12f24d53f90188e8a3f8ecb2d5c088a97865ea09597c049346 03b3fc142f110a223418b0522e4724de8c87516a9e197b104e1d3bb4f944de452b 0357be593e7d4c09a8e97a8c97cc759ddcec73e0ceb47cf31087a2c2727783d3d3 3 OP_CHECKMULTISIG",
                "hex": "512103287d074fe67b2b12f24d53f90188e8a3f8ecb2d5c088a97865ea09597c0493462103b3fc142f110a223418b0522e4724de8c87516a9e197b104e1d3bb4f944de452b210357be593e7d4c09a8e97a8c97cc759ddcec73e0ceb47cf31087a2c2727783d3d353ae",
                "reqSigs": 1,
                "type": "multisig",
                "addresses": [
                    "14gJ98LKg6KjS6AFXiSdQ4KaCBhDbYJeKM",
                    "1JoGexu7MnZVWCboy25NqsvV8F5tk1JfWy",
                    "13JhS7J6asCgw3utkp9Uap2tvttLG1obnB"
                ]
            }
        },
        {
            "value": 0.05447292,
            "n": 2,
            "scriptPubKey": {
                "asm": "OP_DUP OP_HASH160 1949131981468beab8c05247b8726b98f0cbfd61 OP_EQUALVERIFY OP_CHECKSIG",
                "hex": "76a9141949131981468beab8c05247b8726b98f0cbfd6188ac",
                "reqSigs": 1,
                "type": "pubkeyhash",
                "addresses": [
                    "13JhS7J6asCgw3utkp9Uap2tvttLG1obnB"
                ]
            }
        }
    ],
    "blockhash": "000000000000000003f142b57c9d165be0da2439a324e30e2f4628380fb7966e",
    "confirmations": 93742,
    "time": 1420932311,
    "blocktime": 1420932311
}