{
    "hex": "01000000011795abeba8d275cc0222f7539123ebcf40cfce4aea5f8ddd503f801094abfa13020000006b4830450221009510f0fb7364d203215f5c62d10afd4995bc713837a2b29368c4d0f6b7811c7202204e7213a34e45c1c70615cfc01fee8474a56e53cb876aeb71c926d1da0137f5ed01210216b6c3047c80b4e2fcbed0df1b265d73dbef174291fcb4cdc427cef12ea3cf3cffffffff02c76a5a00000000001976a914c56cb39f9b289c0ec4ef6943fa107c904820fe0988acb838fa09000000001976a914b14a2f25ceaa17b72a089813eae8f33f9dddeb0c88ac00000000",
    "txid": "54040f9d2f61502261e078847e8f2995104dec7654c38d26d169552d03dc078b",
    "version": 1,
    "locktime": 0,
    "vin": [
        {
            "txid": "13faab9410803f50dd8d5fea4acecf40cfeb239153f72202cc75d2a8ebab9517",
            "vout": 2,
            "scriptSig": {
                "asm": "30450221009510f0fb7364d203215f5c62d10afd4995bc713837a2b29368c4d0f6b7811c7202204e7213a34e45c1c70615cfc01fee8474a56e53cb876aeb71c926d1da0137f5ed01 0216b6c3047c80b4e2fcbed0df1b265d73dbef174291fcb4cdc427cef12ea3cf3c",
                "hex": "4830450221009510f0fb7364d203215f5c62d10afd4995bc713837a2b29368c4d0f6b7811c7202204e7213a34e45c1c70615cfc01fee8474a56e53cb876aeb71c926d1da0137f5ed01210216b6c3047c80b4e2fcbed0df1b265d73dbef174291fcb4cdc427cef12ea3cf3c"
            },
            "sequence": 4294967295
        }
    ],
    "vout": [
        {
            "value": 0.05925575,
            "n": 0,
            "scriptPubKey": {
                "asm": "OP_DUP OP_HASH160 c56cb39f9b289c0ec4ef6943fa107c904820fe09 OP_EQUALVERIFY OP_CHECKSIG",
                "hex": "76a914c56cb39f9b289c0ec4ef6943fa107c904820fe0988ac",
                "reqSigs": 1,
                "type": "pubkeyhash",
                "addresses": [
                    "1JztLWos5K7LsqW5E78EASgiVBaCe6f7cD"
                ]
            }
        },
        {
            "value": 1.67393464,
            "n": 1,
            "scriptPubKey": {
                "asm": "OP_DUP OP_HASH160 b14a2f25ceaa17b72a089813eae8f33f9dddeb0c OP_EQUALVERIFY OP_CHECKSIG",
                "hex": "76a914b14a2f25ceaa17b72a089813eae8f33f9dddeb0c88ac",
                "reqSigs": 1,
                "type": "pubkeyhash",
                "addresses": [
                    "1HARUMuoSXftAwY6jxMUutc9uKSCK9zxzF"
                ]
            }
        }
    ],
    "blockhash": "0000000000000000024792768f4a61cb73e11cbc6fa9e28cd6914f4654154549",
    "confirmations": 15011,
    "time": 1459915319,
    "blocktime": 1459915319
}