{
    "hex": "0100000001d1f17c17b059e56136498668a064f93d8b536ff4c2cf6dfba8766df56423c470010000006a47304402200f416869704dd0b3a3d5c6403cf0697e07f1598a5e47d67ada49b782f2024ff3022057c54c2ada3c6292dbca184aee5e5c01d0d13f1c247a6f2690a71e8777cd3c1f0121036d4ecbea7a2730e60c7cad7c933634eea6a1cba114132c16fb87f0bc72eafa87ffffffff0228190000000000001976a9145ba01cea408ba4dde9d375a7ba97a22d608cd59988ace0930400000000001976a91465bf4c80470f3865c45b41c0c5ccfea9c494d09c88ac00000000",
    "txid": "d780810ed5436a98a27c9aebf06cee4f815750d1121d8b5dc7ab74297d6338d0",
    "version": 1,
    "locktime": 0,
    "vin": [
        {
            "txid": "70c42364f56d76a8fb6dcfc2f46f538b3df964a06886493661e559b0177cf1d1",
            "vout": 1,
            "scriptSig": {
                "asm": "304402200f416869704dd0b3a3d5c6403cf0697e07f1598a5e47d67ada49b782f2024ff3022057c54c2ada3c6292dbca184aee5e5c01d0d13f1c247a6f2690a71e8777cd3c1f01 036d4ecbea7a2730e60c7cad7c933634eea6a1cba114132c16fb87f0bc72eafa87",
                "hex": "47304402200f416869704dd0b3a3d5c6403cf0697e07f1598a5e47d67ada49b782f2024ff3022057c54c2ada3c6292dbca184aee5e5c01d0d13f1c247a6f2690a71e8777cd3c1f0121036d4ecbea7a2730e60c7cad7c933634eea6a1cba114132c16fb87f0bc72eafa87"
            },
            "sequence": 4294967295
        }
    ],
    "vout": [
        {
            "value": 6.44e-5,
            "n": 0,
            "scriptPubKey": {
                "asm": "OP_DUP OP_HASH160 5ba01cea408ba4dde9d375a7ba97a22d608cd599 OP_EQUALVERIFY OP_CHECKSIG",
                "hex": "76a9145ba01cea408ba4dde9d375a7ba97a22d608cd59988ac",
                "reqSigs": 1,
                "type": "pubkeyhash",
                "addresses": [
                    "19MUJJMvmw9wmRk4PTXKs4ysPRvzS2LLP6"
                ]
            }
        },
        {
            "value": 0.003,
            "n": 1,
            "scriptPubKey": {
                "asm": "OP_DUP OP_HASH160 65bf4c80470f3865c45b41c0c5ccfea9c494d09c OP_EQUALVERIFY OP_CHECKSIG",
                "hex": "76a91465bf4c80470f3865c45b41c0c5ccfea9c494d09c88ac",
                "reqSigs": 1,
                "type": "pubkeyhash",
                "addresses": [
                    "1AGzR3wmaAx2nRfYCi15PLqzd52fMzEBA4"
                ]
            }
        }
    ],
    "blockhash": "000000000000000003b2f9538c2d1db86b02380969054a0a1577a48707675f2a",
    "confirmations": 23,
    "time": 1468654874,
    "blocktime": 1468654874
}