{
    "hex": "0100000001741bfacd16c71543f9a90b404bab7681d349d9d3126aaaac27b70281c7255f1b010000006b483045022100cb9e2b4f4a8f1b0f1ad5371eef9ba8047d1d6e81dd12cb9ef3814d7af6c3741302207f82f71559e4e1f5b7e4d12fb51cfc8daf6e22642c05549a18abb13c5f12e4ef012103dc4b302f91e92e52e4f95b67ad7a1d98faa5fb1b6a09fd138a9a51d6483120d8ffffffff020000000000000000386a36df56aed10bdfd8842e8ed359d423ead4bd7c722eb13544dcda68db1db89bd153f979e4950661a067747fd33a24f8193b4980d58666f09342f902000000001976a9146531d0f5358dc841b525073445757c08eb4a23ce88ac00000000",
    "txid": "72218458a46554ee8582b1f90791d5460da134bc6c2300fb3a76a04440ad1c75",
    "size": 257,
    "version": 1,
    "locktime": 0,
    "vin": [
        {
            "txid": "1b5f25c78102b727acaa6a12d3d949d38176ab4b400ba9f94315c716cdfa1b74",
            "vout": 1,
            "scriptSig": {
                "asm": "3045022100cb9e2b4f4a8f1b0f1ad5371eef9ba8047d1d6e81dd12cb9ef3814d7af6c3741302207f82f71559e4e1f5b7e4d12fb51cfc8daf6e22642c05549a18abb13c5f12e4ef[ALL] 03dc4b302f91e92e52e4f95b67ad7a1d98faa5fb1b6a09fd138a9a51d6483120d8",
                "hex": "483045022100cb9e2b4f4a8f1b0f1ad5371eef9ba8047d1d6e81dd12cb9ef3814d7af6c3741302207f82f71559e4e1f5b7e4d12fb51cfc8daf6e22642c05549a18abb13c5f12e4ef012103dc4b302f91e92e52e4f95b67ad7a1d98faa5fb1b6a09fd138a9a51d6483120d8"
            },
            "sequence": 4294967295
        }
    ],
    "vout": [
        {
            "value": 0,
            "n": 0,
            "scriptPubKey": {
                "asm": "OP_RETURN df56aed10bdfd8842e8ed359d423ead4bd7c722eb13544dcda68db1db89bd153f979e4950661a067747fd33a24f8193b4980d58666f0",
                "hex": "6a36df56aed10bdfd8842e8ed359d423ead4bd7c722eb13544dcda68db1db89bd153f979e4950661a067747fd33a24f8193b4980d58666f0",
                "type": "nulldata"
            }
        },
        {
            "value": 0.49889939,
            "n": 1,
            "scriptPubKey": {
                "asm": "OP_DUP OP_HASH160 6531d0f5358dc841b525073445757c08eb4a23ce OP_EQUALVERIFY OP_CHECKSIG",
                "hex": "76a9146531d0f5358dc841b525073445757c08eb4a23ce88ac",
                "reqSigs": 1,
                "type": "pubkeyhash",
                "addresses": [
                    "1AE4vfkDX4S49kxsuCve7zJDS5s5RtHYNs"
                ]
            }
        }
    ],
    "blockhash": "0000000000000000038c94892e5a4cb4b665d77d06aa9aca82ca4f22d7ad4a36",
    "confirmations": 9069,
    "time": 1470012213,
    "blocktime": 1470012213
}