{
    "hex" : "01000000010caa13cb207213c50e66f7ceed1ec359e61f51ca2b7520efc663f56ee32dd6bd0000000049483045022100e991ff0f5c2ec5a80506ba8aee3eaa7001f4fe7ade6c8ce492d0e073d30a132b02207b4360361d07b352fa8d7980f5aef4841204ef4410429c07cc27c4af744a523501ffffffff02b072e40200000000232102109059bc6547f4a14bb318406a8f1823b51883d4b669dd28cd30e7f8ec335dfeac00000000000000002a6a28534c44583addeb57c2eb3d9321c7987bb53d0e825b368c6fa3cf5639606c96912100958797afcbdf00000000",
    "txid" : "85f52cda1ea63b0feac073521ae82ef7dfb321e705a0d687e3cd000a4a6c7960",
    "version" : 1,
    "locktime" : 0,
    "vin" : [
        {
            "txid" : "bdd62de36ef563c6ef20752bca511fe659c31eedcef7660ec5137220cb13aa0c",
            "vout" : 0,
            "scriptSig" : {
                "asm" : "3045022100e991ff0f5c2ec5a80506ba8aee3eaa7001f4fe7ade6c8ce492d0e073d30a132b02207b4360361d07b352fa8d7980f5aef4841204ef4410429c07cc27c4af744a523501",
                "hex" : "483045022100e991ff0f5c2ec5a80506ba8aee3eaa7001f4fe7ade6c8ce492d0e073d30a132b02207b4360361d07b352fa8d7980f5aef4841204ef4410429c07cc27c4af744a523501"
            },
            "sequence" : 4294967295
        }
    ],
    "vout" : [
        {
            "value" : 0.48526000,
            "n" : 0,
            "scriptPubKey" : {
                "asm" : "02109059bc6547f4a14bb318406a8f1823b51883d4b669dd28cd30e7f8ec335dfe OP_CHECKSIG",
                "hex" : "2102109059bc6547f4a14bb318406a8f1823b51883d4b669dd28cd30e7f8ec335dfeac",
                "reqSigs" : 1,
                "type" : "pubkey",
                "addresses" : [
                    "1YQQ1rJwS8B54tnuuquJd1AzBs8Jvi4Q5"
                ]
            }
        },
        {
            "value" : 0.00000000,
            "n" : 1,
            "scriptPubKey" : {
                "asm" : "OP_RETURN 534c44583addeb57c2eb3d9321c7987bb53d0e825b368c6fa3cf5639606c96912100958797afcbdf",
                "hex" : "6a28534c44583addeb57c2eb3d9321c7987bb53d0e825b368c6fa3cf5639606c96912100958797afcbdf",
                "type" : "nulldata"
            }
        }
    ],
    "blockhash" : "0000000000000000018335d12c5d324db535e590aede8d96591d16c2f43f539c",
    "confirmations" : 196,
    "time" : 1454371355,
    "blocktime" : 1454371355
}
