{
    "hex" : "0100000001f55d717264cf7e7b8c095146bb04a1a73a300fe945a5cd0d764e9036855cb385000000006a47304402201b066bd1f13c8810d3befa4ffdad7a29eaf6562c4307d4db555cc8e780ad1a0f0220459ae75a9b0e6a9fe2926f3bfa5541cb4775e0cb6a3ef8cea77fef8a4abb45a001210304ae485862a6b624f9b57715c8b24bbb7616cb96730497bd1d1eb293ff03deb2ffffffff0289966b01000000001976a914a61974afed8c0d94ee882271bf2451b900eb68af88ace7055e00000000001976a914bfe4673d0241e8e96dacd4260663634d7a32248788ac00000000",
    "txid" : "c6a47a895f2637af22b3f4d5c8d570b8159c906d621fa64ca6723b508180598b",
    "version" : 1,
    "locktime" : 0,
    "vin" : [
        {
            "txid" : "85b35c8536904e760dcda545e90f303aa7a104bb4651098c7b7ecf6472715df5",
            "vout" : 0,
            "scriptSig" : {
                "asm" : "304402201b066bd1f13c8810d3befa4ffdad7a29eaf6562c4307d4db555cc8e780ad1a0f0220459ae75a9b0e6a9fe2926f3bfa5541cb4775e0cb6a3ef8cea77fef8a4abb45a001 0304ae485862a6b624f9b57715c8b24bbb7616cb96730497bd1d1eb293ff03deb2",
                "hex" : "47304402201b066bd1f13c8810d3befa4ffdad7a29eaf6562c4307d4db555cc8e780ad1a0f0220459ae75a9b0e6a9fe2926f3bfa5541cb4775e0cb6a3ef8cea77fef8a4abb45a001210304ae485862a6b624f9b57715c8b24bbb7616cb96730497bd1d1eb293ff03deb2"
            },
            "sequence" : 4294967295
        }
    ],
    "vout" : [
        {
            "value" : 0.23828105,
            "n" : 0,
            "scriptPubKey" : {
                "asm" : "OP_DUP OP_HASH160 a61974afed8c0d94ee882271bf2451b900eb68af OP_EQUALVERIFY OP_CHECKSIG",
                "hex" : "76a914a61974afed8c0d94ee882271bf2451b900eb68af88ac",
                "reqSigs" : 1,
                "type" : "pubkeyhash",
                "addresses" : [
                    "1G9FfYagz8DwLaLjso1j2YimcBUh3AcPqw"
                ]
            }
        },
        {
            "value" : 0.06161895,
            "n" : 1,
            "scriptPubKey" : {
                "asm" : "OP_DUP OP_HASH160 bfe4673d0241e8e96dacd4260663634d7a322487 OP_EQUALVERIFY OP_CHECKSIG",
                "hex" : "76a914bfe4673d0241e8e96dacd4260663634d7a32248788ac",
                "reqSigs" : 1,
                "type" : "pubkeyhash",
                "addresses" : [
                    "1JVdgNtQQfk5g6wQHxt5KvDX5UpGRp1pj4"
                ]
            }
        }
    ],
    "blockhash" : "0000000000000000001ade201f04d409b2c3601d361d72ce12e633eb99ac2a9c",
    "confirmations" : 722,
    "time" : 1463185571,
    "blocktime" : 1463185571
}
