{
    "hex": "01000000016f7d54ad8c83ce16c14d132785e043f6873ad1d97bfda19829168ec9c1127f17010000006a473044022042312c05e0b7a5721095a9df2df2921790288d030f7672fb801f7b45570037d7022077c7b9803aaefd4e05d220ef231145a0dde5f31891a109d941a63f9b848c01930121025ab1ade62ebe43f1bd5b8f00a9d2ef3a73a1d3fa339962d2b09bd49cab7aca67ffffffff020000000000000000386a36966365d26c40351116770370b25063d43fccea0d5caaef860f53c6c8a45e93ffc699bf4499c1837c8c12d7367cc5e12edbee11a5d7fe647a0800000000001976a914650bc76d0e6bfbb7088227a08781bb76cff5a8e788ac00000000",
    "txid": "f783cac74813dc5d1fcbc597849dfc243e36d7153ed67e3f473a5e8e2dcdf1ad",
    "version": 1,
    "locktime": 0,
    "vin": [
        {
            "txid": "177f12c1c98e162998a1fd7bd9d13a87f643e08527134dc116ce838cad547d6f",
            "vout": 1,
            "scriptSig": {
                "asm": "3044022042312c05e0b7a5721095a9df2df2921790288d030f7672fb801f7b45570037d7022077c7b9803aaefd4e05d220ef231145a0dde5f31891a109d941a63f9b848c019301 025ab1ade62ebe43f1bd5b8f00a9d2ef3a73a1d3fa339962d2b09bd49cab7aca67",
                "hex": "473044022042312c05e0b7a5721095a9df2df2921790288d030f7672fb801f7b45570037d7022077c7b9803aaefd4e05d220ef231145a0dde5f31891a109d941a63f9b848c01930121025ab1ade62ebe43f1bd5b8f00a9d2ef3a73a1d3fa339962d2b09bd49cab7aca67"
            },
            "sequence": 4294967295
        }
    ],
    "vout": [
        {
            "value": 0,
            "n": 0,
            "scriptPubKey": {
                "asm": "OP_RETURN 966365d26c40351116770370b25063d43fccea0d5caaef860f53c6c8a45e93ffc699bf4499c1837c8c12d7367cc5e12edbee11a5d7fe",
                "hex": "6a36966365d26c40351116770370b25063d43fccea0d5caaef860f53c6c8a45e93ffc699bf4499c1837c8c12d7367cc5e12edbee11a5d7fe",
                "type": "nulldata"
            }
        },
        {
            "value": 0.0055562,
            "n": 1,
            "scriptPubKey": {
                "asm": "OP_DUP OP_HASH160 650bc76d0e6bfbb7088227a08781bb76cff5a8e7 OP_EQUALVERIFY OP_CHECKSIG",
                "hex": "76a914650bc76d0e6bfbb7088227a08781bb76cff5a8e788ac",
                "reqSigs": 1,
                "type": "pubkeyhash",
                "addresses": [
                    "1ADHMo6KGgJZRxrPUYUUVGFYeZ2noAfDRQ"
                ]
            }
        }
    ],
    "blockhash": "00000000000000000492b5db1615b5981a62142bb05ee4ecb4808f443050ff39",
    "confirmations": 49,
    "time": 1468893422,
    "blocktime": 1468893422
}