{
    "hex": "0100000001ae99a35b745900cd3d7a056748114aa48f03bcadc5be7e87b1d0a3b29a603b3c020000006a47304402201a3e450e04d97a2ff523598228cf6e54af9b43d7eea31eb07d04373d1af9c44a02200e26753989a7bfa66597b38f7e5e19437eb892258fb568072e578231a38bcd880121034bf23d14fa8aa9e8ebfee6e0bf986fa36ad61434068b89b7a8801506ed5060bbffffffff0336150000000000001976a91412d155cefea286e9d3cda6cb64cd8d26a5b9578088ac00000000000000001e6a1ccbf72509d0332176e263e8d42715fda6dec3caecabaad72ba259a016eed00b00000000001976a914de1607744008a3edeabae06365a9aa2b131d5dc288ac00000000",
    "txid": "b70b452d674f40cd49c0873f4d52e7b7abfdd48e62e6caf8dd0b217e02696398",
    "hash": "b70b452d674f40cd49c0873f4d52e7b7abfdd48e62e6caf8dd0b217e02696398",
    "size": 264,
    "vsize": 264,
    "version": 1,
    "locktime": 0,
    "vin": [
        {
            "txid": "3c3b609ab2a3d0b1877ebec5adbc038fa44a114867057a3dcd0059745ba399ae",
            "vout": 2,
            "scriptSig": {
                "asm": "304402201a3e450e04d97a2ff523598228cf6e54af9b43d7eea31eb07d04373d1af9c44a02200e26753989a7bfa66597b38f7e5e19437eb892258fb568072e578231a38bcd88[ALL] 034bf23d14fa8aa9e8ebfee6e0bf986fa36ad61434068b89b7a8801506ed5060bb",
                "hex": "47304402201a3e450e04d97a2ff523598228cf6e54af9b43d7eea31eb07d04373d1af9c44a02200e26753989a7bfa66597b38f7e5e19437eb892258fb568072e578231a38bcd880121034bf23d14fa8aa9e8ebfee6e0bf986fa36ad61434068b89b7a8801506ed5060bb"
            },
            "sequence": 4294967295
        }
    ],
    "vout": [
        {
            "value": 5.43e-5,
            "n": 0,
            "scriptPubKey": {
                "asm": "OP_DUP OP_HASH160 12d155cefea286e9d3cda6cb64cd8d26a5b95780 OP_EQUALVERIFY OP_CHECKSIG",
                "hex": "76a91412d155cefea286e9d3cda6cb64cd8d26a5b9578088ac",
                "reqSigs": 1,
                "type": "pubkeyhash",
                "addresses": [
                    "12iVwKP7jCPnuYy7jbAbyXnZ3FxvgLwvGK"
                ]
            }
        },
        {
            "value": 0,
            "n": 1,
            "scriptPubKey": {
                "asm": "OP_RETURN cbf72509d0332176e263e8d42715fda6dec3caecabaad72ba259a016",
                "hex": "6a1ccbf72509d0332176e263e8d42715fda6dec3caecabaad72ba259a016",
                "type": "nulldata"
            }
        },
        {
            "value": 0.00774382,
            "n": 2,
            "scriptPubKey": {
                "asm": "OP_DUP OP_HASH160 de1607744008a3edeabae06365a9aa2b131d5dc2 OP_EQUALVERIFY OP_CHECKSIG",
                "hex": "76a914de1607744008a3edeabae06365a9aa2b131d5dc288ac",
                "reqSigs": 1,
                "type": "pubkeyhash",
                "addresses": [
                    "1MFHQCPGtcSfNPXAS6NryWja3TbUN9239Y"
                ]
            }
        }
    ],
    "blockhash": "000000000000000000a78c186c9347d53d9857028c987e5bdf9d1e067df5e68e",
    "confirmations": 558,
    "time": 1507976398,
    "blocktime": 1507976398
}
