{
    "hex": "0100000002f3db3182aee5254bfa26c126d7f99c162f99d2b5c7639166810da872f9bffaec010000006b483045022100e455ec40f820d7654917b20d0dd1a7b0e66ce12d9aab62cc172420dd8b1465c002202f19b8b989eda1c5aedd05d28d321155dd2e2b7050ee297a9286fb0cd1b84ec4012102536b6125b55ee01a7fd766655c41fb54c38138e151b988ab82441ad241376d4dfeffffff79df267b6c9f31a51f045ed895a0fa0a327222bc1ebe20e480d28b4a0c0a062f090000006a47304402200f55201e4128cc1251bed89ed770f94aff0d77ef83c5052f9dbbb151a801ae0a0220089e2ac6fa5006673ab7ea419f247b63fe3ba27cedffc2a6b4813644667683200121033d954cccb70d176f7b3ef5dcf7938de7de0c07caa42d118a3f16dbf72e77c121feffffff08d4c01b00000000001976a914c1fefb1152aae09be0b5ca3c2cf9ca246da2891688ac57520000000000001976a91416f8bd33ab32afc4bf0c546b6c3a8a74ea4d766e88ac204e0000000000001976a9149a64bd1f8d8bc142d55da96eb7a46ef584cb5fc388ac84620000000000001976a9142627d1cd9c8fb3306e0fc13d797de63c04fe915688ac2f520000000000001976a9147ccb588d41484a8b0d2550ba9c65e6642a049ebe88ac4f4e0000000000001976a914f1d25c3260089bbdad093b2ef52786b485545a4888acd4560000000000001976a9141c1b831702a230f7927a94af1db42c85d3ed537688ac78e60000000000001976a9141fa7a4273cd92a343f6020ad65168e0b386e084188ac4e6c0600",
    "txid": "c006a8e294b68d276d4311d86d9560d80f00ddafe1d0135e13e617e38395fd8a",
    "version": 1,
    "locktime": 420942,
    "vin": [
        {
            "txid": "ecfabff972a80d81669163c7b5d2992f169cf9d726c126fa4b25e5ae8231dbf3",
            "vout": 1,
            "scriptSig": {
                "asm": "3045022100e455ec40f820d7654917b20d0dd1a7b0e66ce12d9aab62cc172420dd8b1465c002202f19b8b989eda1c5aedd05d28d321155dd2e2b7050ee297a9286fb0cd1b84ec401 02536b6125b55ee01a7fd766655c41fb54c38138e151b988ab82441ad241376d4d",
                "hex": "483045022100e455ec40f820d7654917b20d0dd1a7b0e66ce12d9aab62cc172420dd8b1465c002202f19b8b989eda1c5aedd05d28d321155dd2e2b7050ee297a9286fb0cd1b84ec4012102536b6125b55ee01a7fd766655c41fb54c38138e151b988ab82441ad241376d4d"
            },
            "sequence": 4294967294
        },
        {
            "txid": "2f060a0c4a8bd280e420be1ebc2272320afaa095d85e041fa5319f6c7b26df79",
            "vout": 9,
            "scriptSig": {
                "asm": "304402200f55201e4128cc1251bed89ed770f94aff0d77ef83c5052f9dbbb151a801ae0a0220089e2ac6fa5006673ab7ea419f247b63fe3ba27cedffc2a6b48136446676832001 033d954cccb70d176f7b3ef5dcf7938de7de0c07caa42d118a3f16dbf72e77c121",
                "hex": "47304402200f55201e4128cc1251bed89ed770f94aff0d77ef83c5052f9dbbb151a801ae0a0220089e2ac6fa5006673ab7ea419f247b63fe3ba27cedffc2a6b4813644667683200121033d954cccb70d176f7b3ef5dcf7938de7de0c07caa42d118a3f16dbf72e77c121"
            },
            "sequence": 4294967294
        }
    ],
    "vout": [
        {
            "value": 0.01818836,
            "n": 0,
            "scriptPubKey": {
                "asm": "OP_DUP OP_HASH160 c1fefb1152aae09be0b5ca3c2cf9ca246da28916 OP_EQUALVERIFY OP_CHECKSIG",
                "hex": "76a914c1fefb1152aae09be0b5ca3c2cf9ca246da2891688ac",
                "reqSigs": 1,
                "type": "pubkeyhash",
                "addresses": [
                    "1JgksPvS6dj6wXThrGj9Vj9wktirbQRxcM"
                ]
            }
        },
        {
            "value": 0.00021079,
            "n": 1,
            "scriptPubKey": {
                "asm": "OP_DUP OP_HASH160 16f8bd33ab32afc4bf0c546b6c3a8a74ea4d766e OP_EQUALVERIFY OP_CHECKSIG",
                "hex": "76a91416f8bd33ab32afc4bf0c546b6c3a8a74ea4d766e88ac",
                "reqSigs": 1,
                "type": "pubkeyhash",
                "addresses": [
                    "136Tqv15CspTPR97tUxNpSm6SLzng1mUtQ"
                ]
            }
        },
        {
            "value": 0.0002,
            "n": 2,
            "scriptPubKey": {
                "asm": "OP_DUP OP_HASH160 9a64bd1f8d8bc142d55da96eb7a46ef584cb5fc3 OP_EQUALVERIFY OP_CHECKSIG",
                "hex": "76a9149a64bd1f8d8bc142d55da96eb7a46ef584cb5fc388ac",
                "reqSigs": 1,
                "type": "pubkeyhash",
                "addresses": [
                    "1F5MjzeESL6qNEvwdazC3KTi54HHy9FSYh"
                ]
            }
        },
        {
            "value": 0.0002522,
            "n": 3,
            "scriptPubKey": {
                "asm": "OP_DUP OP_HASH160 2627d1cd9c8fb3306e0fc13d797de63c04fe9156 OP_EQUALVERIFY OP_CHECKSIG",
                "hex": "76a9142627d1cd9c8fb3306e0fc13d797de63c04fe915688ac",
                "reqSigs": 1,
                "type": "pubkeyhash",
                "addresses": [
                    "14UkNzzqVqm14jiPf3cUMxz9WnwRKLaBQY"
                ]
            }
        },
        {
            "value": 0.00021039,
            "n": 4,
            "scriptPubKey": {
                "asm": "OP_DUP OP_HASH160 7ccb588d41484a8b0d2550ba9c65e6642a049ebe OP_EQUALVERIFY OP_CHECKSIG",
                "hex": "76a9147ccb588d41484a8b0d2550ba9c65e6642a049ebe88ac",
                "reqSigs": 1,
                "type": "pubkeyhash",
                "addresses": [
                    "1CNrPWUVFvf99wuTvtBH4Kg6Vid6UYjy3N"
                ]
            }
        },
        {
            "value": 0.00020047,
            "n": 5,
            "scriptPubKey": {
                "asm": "OP_DUP OP_HASH160 f1d25c3260089bbdad093b2ef52786b485545a48 OP_EQUALVERIFY OP_CHECKSIG",
                "hex": "76a914f1d25c3260089bbdad093b2ef52786b485545a4888ac",
                "reqSigs": 1,
                "type": "pubkeyhash",
                "addresses": [
                    "1P3drJzLyfowPYJ391e76r7wBgrURurfKd"
                ]
            }
        },
        {
            "value": 0.00022228,
            "n": 6,
            "scriptPubKey": {
                "asm": "OP_DUP OP_HASH160 1c1b831702a230f7927a94af1db42c85d3ed5376 OP_EQUALVERIFY OP_CHECKSIG",
                "hex": "76a9141c1b831702a230f7927a94af1db42c85d3ed537688ac",
                "reqSigs": 1,
                "type": "pubkeyhash",
                "addresses": [
                    "13ZcswiXJep1881WLWXN2htrucihSxz6jR"
                ]
            }
        },
        {
            "value": 0.00059,
            "n": 7,
            "scriptPubKey": {
                "asm": "OP_DUP OP_HASH160 1fa7a4273cd92a343f6020ad65168e0b386e0841 OP_EQUALVERIFY OP_CHECKSIG",
                "hex": "76a9141fa7a4273cd92a343f6020ad65168e0b386e084188ac",
                "reqSigs": 1,
                "type": "pubkeyhash",
                "addresses": [
                    "13tNms4hab6VYwW1F4S1L4tHTu5SPXvJYo"
                ]
            }
        }
    ],
    "blockhash": "0000000000000000003a6444684e503f501ae76b21179c6119d8d22c09a70772",
    "confirmations": 21,
    "time": 1468656166,
    "blocktime": 1468656166
}