{
    "hex": "0100000001bf7e747be0cb5f73162017eaa8cc3e58715897800a3db112b7a806d361ce62e05b0400006a47304402202771fd2d5079028e6f793f14b9d9c69728049e5505ea05461d7a5787b3e8990902206d13e17f2b97222e66e6f437b7045ee9b7a3b1b22f5cf3076f8b0bbf2220bb200121029fa5cf89f7f81e4b4ccefb1219279c69cebaa06ffce21592c286dcc369e31183ffffffff01fe290000000000001976a914cf2920669aeb21549d55b066458301ea1bd0f3c388ac00000000",
    "txid": "adda105223da0d1a12d44225ffd4170c2d3e4ac925a8f7ea9e8d8bd200ed70bc",
    "version": 1,
    "locktime": 0,
    "vin": [
        {
            "txid": "e062ce61d306a8b712b13d0a80975871583ecca8ea172016735fcbe07b747ebf",
            "vout": 1115,
            "scriptSig": {
                "asm": "304402202771fd2d5079028e6f793f14b9d9c69728049e5505ea05461d7a5787b3e8990902206d13e17f2b97222e66e6f437b7045ee9b7a3b1b22f5cf3076f8b0bbf2220bb2001 029fa5cf89f7f81e4b4ccefb1219279c69cebaa06ffce21592c286dcc369e31183",
                "hex": "47304402202771fd2d5079028e6f793f14b9d9c69728049e5505ea05461d7a5787b3e8990902206d13e17f2b97222e66e6f437b7045ee9b7a3b1b22f5cf3076f8b0bbf2220bb200121029fa5cf89f7f81e4b4ccefb1219279c69cebaa06ffce21592c286dcc369e31183"
            },
            "sequence": 4294967295
        }
    ],
    "vout": [
        {
            "value": 0.0001075,
            "n": 0,
            "scriptPubKey": {
                "asm": "OP_DUP OP_HASH160 cf2920669aeb21549d55b066458301ea1bd0f3c3 OP_EQUALVERIFY OP_CHECKSIG",
                "hex": "76a914cf2920669aeb21549d55b066458301ea1bd0f3c388ac",
                "reqSigs": 1,
                "type": "pubkeyhash",
                "addresses": [
                    "1KtN9EW3jRJuHyk4iPiA2f6FXdcc8KpoVW"
                ]
            }
        }
    ],
    "blockhash": "0000000000000000003a6444684e503f501ae76b21179c6119d8d22c09a70772",
    "confirmations": 21,
    "time": 1468656166,
    "blocktime": 1468656166
}