{
    "hex": "0100000001c1652c01f9a20f35c81e1006e17293f1d0c21f7498f6eeb50f9fe48a7ae87406010000006a473044022100cb3fe6f678add21ed8b4c536ffa27da557c16bfddd7b9c1a021e554f05484d68021f4c813218ef7ad8bf248172f3b2c5444b68eaef0df263deb98c760b87140cfe012103b2d0ed488e35ad37a183d6ee8e12a6f3dffa675d7f0b1058514c778b67281b44ffffffff0280ba953e000000001976a914ee3ecae7e2977981aa50f4033dcd6dbcf2881fe288ac70354755000000001976a9148c90930882af1042c900e9cd6c7652ef323fdbf788ac00000000",
    "txid": "43c0d41bde15f636eecdfd09d051ba75659ec560ff28bf6c5024d0bacf2a812f",
    "version": 1,
    "locktime": 0,
    "vin": [
        {
            "txid": "0674e87a8ae49f0fb5eef698741fc2d0f19372e106101ec8350fa2f9012c65c1",
            "vout": 1,
            "scriptSig": {
                "asm": "3044022100cb3fe6f678add21ed8b4c536ffa27da557c16bfddd7b9c1a021e554f05484d68021f4c813218ef7ad8bf248172f3b2c5444b68eaef0df263deb98c760b87140cfe01 03b2d0ed488e35ad37a183d6ee8e12a6f3dffa675d7f0b1058514c778b67281b44",
                "hex": "473044022100cb3fe6f678add21ed8b4c536ffa27da557c16bfddd7b9c1a021e554f05484d68021f4c813218ef7ad8bf248172f3b2c5444b68eaef0df263deb98c760b87140cfe012103b2d0ed488e35ad37a183d6ee8e12a6f3dffa675d7f0b1058514c778b67281b44"
            },
            "sequence": 4294967295
        }
    ],
    "vout": [
        {
            "value": 10.5,
            "n": 0,
            "scriptPubKey": {
                "asm": "OP_DUP OP_HASH160 ee3ecae7e2977981aa50f4033dcd6dbcf2881fe2 OP_EQUALVERIFY OP_CHECKSIG",
                "hex": "76a914ee3ecae7e2977981aa50f4033dcd6dbcf2881fe288ac",
                "reqSigs": 1,
                "type": "pubkeyhash",
                "addresses": [
                    "1Nij3ZbfgHX5QyD3J9neK8RK1L6ziKsvHD"
                ]
            }
        },
        {
            "value": 14.30730096,
            "n": 1,
            "scriptPubKey": {
                "asm": "OP_DUP OP_HASH160 8c90930882af1042c900e9cd6c7652ef323fdbf7 OP_EQUALVERIFY OP_CHECKSIG",
                "hex": "76a9148c90930882af1042c900e9cd6c7652ef323fdbf788ac",
                "reqSigs": 1,
                "type": "pubkeyhash",
                "addresses": [
                    "1DpEo4NTrqiCGk5C6xT3TWaXwD4Z1peiBi"
                ]
            }
        }
    ],
    "blockhash": "0000000000000000020e8869c2a709fe662e495d4ca97ab8a04bbaa3cb321e70",
    "confirmations": 1,
    "time": 1468670432,
    "blocktime": 1468670432
}