{
    "hex": "0100000001fbe8d35b5aab3ee6ffcfa7f8f279ab8aebfb729ac3383d557639a28a0a3c4e31090000006b483045022100b068114db3d6ffd458fd4d0fbda8cf7bf4ccfd208b1781108d5df373511df490022004845b81e045b0d139092df4f06976d18dd25ac7330b20be22c128e577f27fb501210352f2333fde60b4249cba48f2937fde9230539a5b3957d88b646ccf3d7763b81bffffffff0236150000000000001976a914c56cb39f9b289c0ec4ef6943fa107c904820fe0988ac00000000000000001e6a1ca4068d7422fbc6c76165124ec4808e66187b8e8893e04a408c48ac9200000000",
    "txid": "cc3718e62b7b3ca240d658de8cae0446224204521b6650da4621586aa0dc7474",
    "version": 1,
    "locktime": 0,
    "vin": [
        {
            "txid": "314e3c0a8aa23976553d38c39a72fbeb8aab79f2f8a7cfffe63eab5a5bd3e8fb",
            "vout": 9,
            "scriptSig": {
                "asm": "3045022100b068114db3d6ffd458fd4d0fbda8cf7bf4ccfd208b1781108d5df373511df490022004845b81e045b0d139092df4f06976d18dd25ac7330b20be22c128e577f27fb501 0352f2333fde60b4249cba48f2937fde9230539a5b3957d88b646ccf3d7763b81b",
                "hex": "483045022100b068114db3d6ffd458fd4d0fbda8cf7bf4ccfd208b1781108d5df373511df490022004845b81e045b0d139092df4f06976d18dd25ac7330b20be22c128e577f27fb501210352f2333fde60b4249cba48f2937fde9230539a5b3957d88b646ccf3d7763b81b"
            },
            "sequence": 4294967295
        }
    ],
    "vout": [
        {
            "value": 5.43e-5,
            "n": 0,
            "scriptPubKey": {
                "asm": "OP_DUP OP_HASH160 c56cb39f9b289c0ec4ef6943fa107c904820fe09 OP_EQUALVERIFY OP_CHECKSIG",
                "hex": "76a914c56cb39f9b289c0ec4ef6943fa107c904820fe0988ac",
                "reqSigs": 1,
                "type": "pubkeyhash",
                "addresses": [
                    "1JztLWos5K7LsqW5E78EASgiVBaCe6f7cD"
                ]
            }
        },
        {
            "value": 0,
            "n": 1,
            "scriptPubKey": {
                "asm": "OP_RETURN a4068d7422fbc6c76165124ec4808e66187b8e8893e04a408c48ac92",
                "hex": "6a1ca4068d7422fbc6c76165124ec4808e66187b8e8893e04a408c48ac92",
                "type": "nulldata"
            }
        }
    ],
    "blockhash": "000000000000000004ceeb39e38cdc7f66dce539292526ac8cb1d221155fa20f",
    "confirmations": 9306,
    "time": 1463186761,
    "blocktime": 1463186761
}