{
    "hex": "01000000047b05b31f1ba6f9a0d9b37d8e38fa6bd4367498b3aa38d5563ad38c3d1b0bb11d010000006a47304402200a84f4290431a40dcd47296409e4592bc27deff3a6a0fefd7d9c497e9a93f09502204d17fe2192723d8f27fa6bb3366ca9aee94fcb560db5a8cf1f9037cdeec45f170121030e9f5eaa08490e7f4186ec60b22229cea5e374d83260eadce762a2e3f4a6aab0ffffffff836b560638fe36665cba1102b6c1b5af65b727e98acc2123454d02937c01fb41020000006a4730440220293b962a26270e675e3a47c84d4a00f5409325884a2065b94589d45f62d2a6870220153d28ca5312ad966a0b751d36fe66a5137cb0c16cde3337ee0c6ff73c6d364b0121028b7a00358e1654e1a34b258a00feac8e78c9229ed4a57530e48f00f23c854a77ffffffff0e683b4014720d1514d5f7f02e05c79b7c6a2b8d16e28ce2473842e62041bd5d000000006a473044022040dba59db3198f76631b724fc859211980b112c2e8fe7283e4563cfb160baac40220451d4d68bf44f2402a2de3e4020c3f975e1e69efa986a04f286a5578c0ced01b0121028b7a00358e1654e1a34b258a00feac8e78c9229ed4a57530e48f00f23c854a77ffffffff5fd0a6d1c049ed115fd25be39c0b8b7412d62ad039a0f95ade4967a3aaf1a467000000006a47304402205ec269248d82c6183cd231b0d846948e38f75da74c716e89e01ddf8e7aace1790220518f58d93c1ac2a2fa2e4b22d4fc7d2447289a31a88ddcb9160b7d2d6ab76bb70121028b7a00358e1654e1a34b258a00feac8e78c9229ed4a57530e48f00f23c854a77ffffffff01ec3b512e000000001976a91416dde894c8946cf3a68fabc00418dd9b1861de4b88ac00000000",
    "txid": "bb8496f5ae1b6499097660308fc9b2b2a09d5263750c47b57ac1904805a18900",
    "version": 1,
    "locktime": 0,
    "vin": [
        {
            "txid": "1db10b1b3d8cd33a56d538aab3987436d46bfa388e7db3d9a0f9a61b1fb3057b",
            "vout": 1,
            "scriptSig": {
                "asm": "304402200a84f4290431a40dcd47296409e4592bc27deff3a6a0fefd7d9c497e9a93f09502204d17fe2192723d8f27fa6bb3366ca9aee94fcb560db5a8cf1f9037cdeec45f1701 030e9f5eaa08490e7f4186ec60b22229cea5e374d83260eadce762a2e3f4a6aab0",
                "hex": "47304402200a84f4290431a40dcd47296409e4592bc27deff3a6a0fefd7d9c497e9a93f09502204d17fe2192723d8f27fa6bb3366ca9aee94fcb560db5a8cf1f9037cdeec45f170121030e9f5eaa08490e7f4186ec60b22229cea5e374d83260eadce762a2e3f4a6aab0"
            },
            "sequence": 4294967295
        },
        {
            "txid": "41fb017c93024d452321cc8ae927b765afb5c1b60211ba5c6636fe3806566b83",
            "vout": 2,
            "scriptSig": {
                "asm": "30440220293b962a26270e675e3a47c84d4a00f5409325884a2065b94589d45f62d2a6870220153d28ca5312ad966a0b751d36fe66a5137cb0c16cde3337ee0c6ff73c6d364b01 028b7a00358e1654e1a34b258a00feac8e78c9229ed4a57530e48f00f23c854a77",
                "hex": "4730440220293b962a26270e675e3a47c84d4a00f5409325884a2065b94589d45f62d2a6870220153d28ca5312ad966a0b751d36fe66a5137cb0c16cde3337ee0c6ff73c6d364b0121028b7a00358e1654e1a34b258a00feac8e78c9229ed4a57530e48f00f23c854a77"
            },
            "sequence": 4294967295
        },
        {
            "txid": "5dbd4120e6423847e28ce2168d2b6a7c9bc7052ef0f7d514150d7214403b680e",
            "vout": 0,
            "scriptSig": {
                "asm": "3044022040dba59db3198f76631b724fc859211980b112c2e8fe7283e4563cfb160baac40220451d4d68bf44f2402a2de3e4020c3f975e1e69efa986a04f286a5578c0ced01b01 028b7a00358e1654e1a34b258a00feac8e78c9229ed4a57530e48f00f23c854a77",
                "hex": "473044022040dba59db3198f76631b724fc859211980b112c2e8fe7283e4563cfb160baac40220451d4d68bf44f2402a2de3e4020c3f975e1e69efa986a04f286a5578c0ced01b0121028b7a00358e1654e1a34b258a00feac8e78c9229ed4a57530e48f00f23c854a77"
            },
            "sequence": 4294967295
        },
        {
            "txid": "67a4f1aaa36749de5af9a039d02ad612748b0b9ce35bd25f11ed49c0d1a6d05f",
            "vout": 0,
            "scriptSig": {
                "asm": "304402205ec269248d82c6183cd231b0d846948e38f75da74c716e89e01ddf8e7aace1790220518f58d93c1ac2a2fa2e4b22d4fc7d2447289a31a88ddcb9160b7d2d6ab76bb701 028b7a00358e1654e1a34b258a00feac8e78c9229ed4a57530e48f00f23c854a77",
                "hex": "47304402205ec269248d82c6183cd231b0d846948e38f75da74c716e89e01ddf8e7aace1790220518f58d93c1ac2a2fa2e4b22d4fc7d2447289a31a88ddcb9160b7d2d6ab76bb70121028b7a00358e1654e1a34b258a00feac8e78c9229ed4a57530e48f00f23c854a77"
            },
            "sequence": 4294967295
        }
    ],
    "vout": [
        {
            "value": 7.77075692,
            "n": 0,
            "scriptPubKey": {
                "asm": "OP_DUP OP_HASH160 16dde894c8946cf3a68fabc00418dd9b1861de4b OP_EQUALVERIFY OP_CHECKSIG",
                "hex": "76a91416dde894c8946cf3a68fabc00418dd9b1861de4b88ac",
                "reqSigs": 1,
                "type": "pubkeyhash",
                "addresses": [
                    "135uhhHW7otDVD66pruAS594RbasMXwu9t"
                ]
            }
        }
    ],
    "blockhash": "0000000000000000003a6444684e503f501ae76b21179c6119d8d22c09a70772",
    "confirmations": 21,
    "time": 1468656166,
    "blocktime": 1468656166
}