{
    "hex": "01000000018dbf7b81b38b6c33d8910c15fda87fef266455ae1f253841b2aa6269f84d97fb000000006b483045022100b47e3b9f5dd51cd7c81b41531d0f8609814c85e547b0dce9f77bf202be25364202202c0e36fbe40569a219e05d0fd238c01a671bec7641ae11366ed8253ea694727e012103b2d0ed488e35ad37a183d6ee8e12a6f3dffa675d7f0b1058514c778b67281b44ffffffff0200c2eb0b000000001976a9141c4038dd3ca324d455abb6f1915316399248816a88acd316dd93000000001976a9148c90930882af1042c900e9cd6c7652ef323fdbf788ac00000000",
    "txid": "0674e87a8ae49f0fb5eef698741fc2d0f19372e106101ec8350fa2f9012c65c1",
    "version": 1,
    "locktime": 0,
    "vin": [
        {
            "txid": "fb974df86962aab24138251fae556426ef7fa8fd150c91d8336c8bb3817bbf8d",
            "vout": 0,
            "scriptSig": {
                "asm": "3045022100b47e3b9f5dd51cd7c81b41531d0f8609814c85e547b0dce9f77bf202be25364202202c0e36fbe40569a219e05d0fd238c01a671bec7641ae11366ed8253ea694727e01 03b2d0ed488e35ad37a183d6ee8e12a6f3dffa675d7f0b1058514c778b67281b44",
                "hex": "483045022100b47e3b9f5dd51cd7c81b41531d0f8609814c85e547b0dce9f77bf202be25364202202c0e36fbe40569a219e05d0fd238c01a671bec7641ae11366ed8253ea694727e012103b2d0ed488e35ad37a183d6ee8e12a6f3dffa675d7f0b1058514c778b67281b44"
            },
            "sequence": 4294967295
        }
    ],
    "vout": [
        {
            "value": 2,
            "n": 0,
            "scriptPubKey": {
                "asm": "OP_DUP OP_HASH160 1c4038dd3ca324d455abb6f1915316399248816a OP_EQUALVERIFY OP_CHECKSIG",
                "hex": "76a9141c4038dd3ca324d455abb6f1915316399248816a88ac",
                "reqSigs": 1,
                "type": "pubkeyhash",
                "addresses": [
                    "13aNrbxkoRkJwxxoc2T2beiW74McEpam1m"
                ]
            }
        },
        {
            "value": 24.80740051,
            "n": 1,
            "scriptPubKey": {
                "asm": "OP_DUP OP_HASH160 8c90930882af1042c900e9cd6c7652ef323fdbf7 OP_EQUALVERIFY OP_CHECKSIG",
                "hex": "76a9148c90930882af1042c900e9cd6c7652ef323fdbf788ac",
                "reqSigs": 1,
                "type": "pubkeyhash",
                "addresses": [
                    "1DpEo4NTrqiCGk5C6xT3TWaXwD4Z1peiBi"
                ]
            }
        }
    ],
    "blockhash": "000000000000000001a98157a42dcb4715b8ee2eb8759d55b15b31ca91990a66",
    "confirmations": 133,
    "time": 1468597158,
    "blocktime": 1468597158
}