{
    "hex": "01000000029d9c0d692eaf7f9b523403f5f8dc70b7e61135f762988ee8ac628b7dec38904200000000fdfe0000483045022100a586eb265fcf9e03237f1ba5e8f0b842e65da07f0126fe72bcd857d3dd83bb5a02203f27f20b5dba59f3323ecf02d1978464a387b320d989720a60c6827f1a88fb9901483045022100ffc212092843c897c6541468e7766a0b5b733ef9835cb15d855bf0d2ee1bd544022030f23fe2e2e4365ff304c02b8b4ed8a7ecd00277c2fadd3ddb89719e29ff2de7014c6952210292f4dd08a58a0a1c71acb509be94ff097dbd6c11861b3a93284f9cc38e406b47210346e0ae562511b4514879fc2de39dc9e7014928fe62fe3480d87fff1846e462bb2102f5ec4eba17b72f33ee86c706e8ad900911cfebf270897d6e644b4a056add5ede53aeffffffffeec1ce2198cf1b495538193d111b31afe8110f48e0c33e41bee850c229ba8ef20d000000fc0047304402203ba0341fb24c7f8a709c31ee50c053e59194cfb0c6eee25375bb72fe88899abf02204946279d68b5cab3bdfe04e93bb39476e187fc796e6f7bd2bfd26676e3113deb0147304402200deac1df39cf9159603f6d285378258372e4969097fb69d79db6de6f3c48ca7f02200d9b4041466116d7cbe67ba61cde0e1d48ff7df559b0fcbc194d53353613e157014c6952210385e99327047037127d4af9c9925e63679e2f28e70fcbcdf73e27d9efd917edc521036230236deb29982e55ae33015be58e6d455f27f91c2480e71da9f74537f8f2572103d36bf416f077c4bb7779648b696fbe72dae5d4b450b0f4fb18ed818f5bb828f553aeffffffff09bd190000000000001976a914866754b42b6e7cc4475c38fd9d2182289d6de85288ac4c1d0000000000001976a9141c82e45290b785741d3eefdfd462c5d6453834fe88ac809698000000000017a9140d22a21927017e0364e50dd574c48d980c4914fb8776160000000000001976a914fc81d6a93b94cfcf92ecb028b088080f56e7876988acd29125000000000017a914092a2c8ef51e6fb54ec7ce694384a32a00a1b8dc871c250000000000001976a914a6527d8b10f772df25e6536ed581e0ceca9b821f88ac57480000000000001976a9141560a6d18c0d7f1f44082a8a11d1869edc52b7f188ac331d0000000000001976a914be306b3dd2aee199b82ca9028fa867cb3f228c1288ac7c150000000000001976a914c056d09c3b66d82784550cac8db3a3140fbad93788ac00000000",
    "txid": "b4eb34f02addb93166c72212ed3eee63a361f03e3363596d85b278069ab72beb",
    "version": 1,
    "locktime": 0,
    "vin": [
        {
            "txid": "429038ec7d8b62ace88e9862f73511e6b770dcf8f50334529b7faf2e690d9c9d",
            "vout": 0,
            "scriptSig": {
                "asm": "0 3045022100a586eb265fcf9e03237f1ba5e8f0b842e65da07f0126fe72bcd857d3dd83bb5a02203f27f20b5dba59f3323ecf02d1978464a387b320d989720a60c6827f1a88fb9901 3045022100ffc212092843c897c6541468e7766a0b5b733ef9835cb15d855bf0d2ee1bd544022030f23fe2e2e4365ff304c02b8b4ed8a7ecd00277c2fadd3ddb89719e29ff2de701 52210292f4dd08a58a0a1c71acb509be94ff097dbd6c11861b3a93284f9cc38e406b47210346e0ae562511b4514879fc2de39dc9e7014928fe62fe3480d87fff1846e462bb2102f5ec4eba17b72f33ee86c706e8ad900911cfebf270897d6e644b4a056add5ede53ae",
                "hex": "00483045022100a586eb265fcf9e03237f1ba5e8f0b842e65da07f0126fe72bcd857d3dd83bb5a02203f27f20b5dba59f3323ecf02d1978464a387b320d989720a60c6827f1a88fb9901483045022100ffc212092843c897c6541468e7766a0b5b733ef9835cb15d855bf0d2ee1bd544022030f23fe2e2e4365ff304c02b8b4ed8a7ecd00277c2fadd3ddb89719e29ff2de7014c6952210292f4dd08a58a0a1c71acb509be94ff097dbd6c11861b3a93284f9cc38e406b47210346e0ae562511b4514879fc2de39dc9e7014928fe62fe3480d87fff1846e462bb2102f5ec4eba17b72f33ee86c706e8ad900911cfebf270897d6e644b4a056add5ede53ae"
            },
            "sequence": 4294967295
        },
        {
            "txid": "f28eba29c250e8be413ec3e0480f11e8af311b113d193855491bcf9821cec1ee",
            "vout": 13,
            "scriptSig": {
                "asm": "0 304402203ba0341fb24c7f8a709c31ee50c053e59194cfb0c6eee25375bb72fe88899abf02204946279d68b5cab3bdfe04e93bb39476e187fc796e6f7bd2bfd26676e3113deb01 304402200deac1df39cf9159603f6d285378258372e4969097fb69d79db6de6f3c48ca7f02200d9b4041466116d7cbe67ba61cde0e1d48ff7df559b0fcbc194d53353613e15701 52210385e99327047037127d4af9c9925e63679e2f28e70fcbcdf73e27d9efd917edc521036230236deb29982e55ae33015be58e6d455f27f91c2480e71da9f74537f8f2572103d36bf416f077c4bb7779648b696fbe72dae5d4b450b0f4fb18ed818f5bb828f553ae",
                "hex": "0047304402203ba0341fb24c7f8a709c31ee50c053e59194cfb0c6eee25375bb72fe88899abf02204946279d68b5cab3bdfe04e93bb39476e187fc796e6f7bd2bfd26676e3113deb0147304402200deac1df39cf9159603f6d285378258372e4969097fb69d79db6de6f3c48ca7f02200d9b4041466116d7cbe67ba61cde0e1d48ff7df559b0fcbc194d53353613e157014c6952210385e99327047037127d4af9c9925e63679e2f28e70fcbcdf73e27d9efd917edc521036230236deb29982e55ae33015be58e6d455f27f91c2480e71da9f74537f8f2572103d36bf416f077c4bb7779648b696fbe72dae5d4b450b0f4fb18ed818f5bb828f553ae"
            },
            "sequence": 4294967295
        }
    ],
    "vout": [
        {
            "value": 6.589e-5,
            "n": 0,
            "scriptPubKey": {
                "asm": "OP_DUP OP_HASH160 866754b42b6e7cc4475c38fd9d2182289d6de852 OP_EQUALVERIFY OP_CHECKSIG",
                "hex": "76a914866754b42b6e7cc4475c38fd9d2182289d6de85288ac",
                "reqSigs": 1,
                "type": "pubkeyhash",
                "addresses": [
                    "1DFfLG6agqbXqjWjEwsi8whPYqrJNHJVM6"
                ]
            }
        },
        {
            "value": 7.5e-5,
            "n": 1,
            "scriptPubKey": {
                "asm": "OP_DUP OP_HASH160 1c82e45290b785741d3eefdfd462c5d6453834fe OP_EQUALVERIFY OP_CHECKSIG",
                "hex": "76a9141c82e45290b785741d3eefdfd462c5d6453834fe88ac",
                "reqSigs": 1,
                "type": "pubkeyhash",
                "addresses": [
                    "13bkiu8jAJimyXw8XJcrimYuRXBfNkHiVk"
                ]
            }
        },
        {
            "value": 0.1,
            "n": 2,
            "scriptPubKey": {
                "asm": "OP_HASH160 0d22a21927017e0364e50dd574c48d980c4914fb OP_EQUAL",
                "hex": "a9140d22a21927017e0364e50dd574c48d980c4914fb87",
                "reqSigs": 1,
                "type": "scripthash",
                "addresses": [
                    "32tUCPpPZC79uxYX9CfWks4jPtjz9BVhd6"
                ]
            }
        },
        {
            "value": 5.75e-5,
            "n": 3,
            "scriptPubKey": {
                "asm": "OP_DUP OP_HASH160 fc81d6a93b94cfcf92ecb028b088080f56e78769 OP_EQUALVERIFY OP_CHECKSIG",
                "hex": "76a914fc81d6a93b94cfcf92ecb028b088080f56e7876988ac",
                "reqSigs": 1,
                "type": "pubkeyhash",
                "addresses": [
                    "1Q28pgRmJVZkCrPFa2PameJwxHrXeGQT2J"
                ]
            }
        },
        {
            "value": 0.02462162,
            "n": 4,
            "scriptPubKey": {
                "asm": "OP_HASH160 092a2c8ef51e6fb54ec7ce694384a32a00a1b8dc OP_EQUAL",
                "hex": "a914092a2c8ef51e6fb54ec7ce694384a32a00a1b8dc87",
                "reqSigs": 1,
                "type": "scripthash",
                "addresses": [
                    "32XUXaJftyDXMqkQt81GJmwCP513SohC1W"
                ]
            }
        },
        {
            "value": 9.5e-5,
            "n": 5,
            "scriptPubKey": {
                "asm": "OP_DUP OP_HASH160 a6527d8b10f772df25e6536ed581e0ceca9b821f OP_EQUALVERIFY OP_CHECKSIG",
                "hex": "76a914a6527d8b10f772df25e6536ed581e0ceca9b821f88ac",
                "reqSigs": 1,
                "type": "pubkeyhash",
                "addresses": [
                    "1GARzNu4v6XXtdp423xneJac89M5RvLY5U"
                ]
            }
        },
        {
            "value": 0.00018519,
            "n": 6,
            "scriptPubKey": {
                "asm": "OP_DUP OP_HASH160 1560a6d18c0d7f1f44082a8a11d1869edc52b7f1 OP_EQUALVERIFY OP_CHECKSIG",
                "hex": "76a9141560a6d18c0d7f1f44082a8a11d1869edc52b7f188ac",
                "reqSigs": 1,
                "type": "pubkeyhash",
                "addresses": [
                    "12x2yW6wDvKiEiedmRL79K7uDmfJKn21Ax"
                ]
            }
        },
        {
            "value": 7.475e-5,
            "n": 7,
            "scriptPubKey": {
                "asm": "OP_DUP OP_HASH160 be306b3dd2aee199b82ca9028fa867cb3f228c12 OP_EQUALVERIFY OP_CHECKSIG",
                "hex": "76a914be306b3dd2aee199b82ca9028fa867cb3f228c1288ac",
                "reqSigs": 1,
                "type": "pubkeyhash",
                "addresses": [
                    "1JLdPervMarW8od17pzmPit74tpTf8MGic"
                ]
            }
        },
        {
            "value": 5.5e-5,
            "n": 8,
            "scriptPubKey": {
                "asm": "OP_DUP OP_HASH160 c056d09c3b66d82784550cac8db3a3140fbad937 OP_EQUALVERIFY OP_CHECKSIG",
                "hex": "76a914c056d09c3b66d82784550cac8db3a3140fbad93788ac",
                "reqSigs": 1,
                "type": "pubkeyhash",
                "addresses": [
                    "1JXzjqT2X7eL7UZAVGuQyTNYnm7pxbQgfx"
                ]
            }
        }
    ],
    "blockhash": "0000000000000000003a6444684e503f501ae76b21179c6119d8d22c09a70772",
    "confirmations": 21,
    "time": 1468656166,
    "blocktime": 1468656166
}