{
    "hex": "0100000001a3d1e9b0cdef6cf409058f9bb6a08a28ede4efee07b1dcbc4d9f5eac8398c334020000006a47304402203537066fa183d21a91c4e43891718893c0ee8d4d8283db20cd5f25ad0f07fab902204c605df192cbd48ef5c11db8896c2edb01559016831443e53504a68d36b90acb012103920354646bdc4763305fc841034d2d31f68c6bbb244e3ecb1dbe55f74841c278ffffffff0336150000000000001976a914671d4f9451dd66333bcbe463af2ad0170023751e88ac00000000000000001e6a1c4d4a925e36384e38adff630cc443b8086012e406c1c36c09e9c8b01e98851400000000001976a9144158821d0e886daeb5f69508bf0e0b8d8fb41bc888ac00000000",
    "txid": "c2d129cbcead1843acf8e5a98bf135b2bd2990112d18b462272fbf1daf45cea4",
    "hash": "c2d129cbcead1843acf8e5a98bf135b2bd2990112d18b462272fbf1daf45cea4",
    "size": 264,
    "vsize": 264,
    "version": 1,
    "locktime": 0,
    "vin": [
        {
            "txid": "34c39883ac5e9f4dbcdcb107eeefe4ed288aa0b69b8f0509f46cefcdb0e9d1a3",
            "vout": 2,
            "scriptSig": {
                "asm": "304402203537066fa183d21a91c4e43891718893c0ee8d4d8283db20cd5f25ad0f07fab902204c605df192cbd48ef5c11db8896c2edb01559016831443e53504a68d36b90acb[ALL] 03920354646bdc4763305fc841034d2d31f68c6bbb244e3ecb1dbe55f74841c278",
                "hex": "47304402203537066fa183d21a91c4e43891718893c0ee8d4d8283db20cd5f25ad0f07fab902204c605df192cbd48ef5c11db8896c2edb01559016831443e53504a68d36b90acb012103920354646bdc4763305fc841034d2d31f68c6bbb244e3ecb1dbe55f74841c278"
            },
            "sequence": 4294967295
        }
    ],
    "vout": [
        {
            "value": 5.43e-5,
            "n": 0,
            "scriptPubKey": {
                "asm": "OP_DUP OP_HASH160 671d4f9451dd66333bcbe463af2ad0170023751e OP_EQUALVERIFY OP_CHECKSIG",
                "hex": "76a914671d4f9451dd66333bcbe463af2ad0170023751e88ac",
                "reqSigs": 1,
                "type": "pubkeyhash",
                "addresses": [
                    "1AQDiK8WKGiPzUxdYhUN99ikor4efFGta7"
                ]
            }
        },
        {
            "value": 0,
            "n": 1,
            "scriptPubKey": {
                "asm": "OP_RETURN 4d4a925e36384e38adff630cc443b8086012e406c1c36c09e9c8b01e",
                "hex": "6a1c4d4a925e36384e38adff630cc443b8086012e406c1c36c09e9c8b01e",
                "type": "nulldata"
            }
        },
        {
            "value": 0.0134492,
            "n": 2,
            "scriptPubKey": {
                "asm": "OP_DUP OP_HASH160 4158821d0e886daeb5f69508bf0e0b8d8fb41bc8 OP_EQUALVERIFY OP_CHECKSIG",
                "hex": "76a9144158821d0e886daeb5f69508bf0e0b8d8fb41bc888ac",
                "reqSigs": 1,
                "type": "pubkeyhash",
                "addresses": [
                    "16xWx8Zgn52aMdNyk8TXqjq3gwqXZcSCxj"
                ]
            }
        }
    ],
    "blockhash": "00000000000000000115ace790f85fb97189598262cf307526e1fd015b1e256e",
    "confirmations": 4848,
    "time": 1505535777,
    "blocktime": 1505535777
}