{
    "hex": "0100000001751cad4044a0763afb00236cbc34a10d46d59107f9b18285ee5465a458842172010000006b483045022100ccd2d973971a623db46a5b8ddbf406da1aa6745d839d9fb63a4fed05ceab74330220213c2b977699433466a6240e7f60e1a870e57d4ff7273571db1298340b39ee98012103dc4b302f91e92e52e4f95b67ad7a1d98faa5fb1b6a09fd138a9a51d6483120d8ffffffff020000000000000000506a4c4d6046e1b5f4153dbfce998ae3d41f0ed4d5a7d196addb8cbcb38f997080751d8b3ae6fdab3b3d3c73bc1a24576859bd8abbba2ca60384740eab5de95b99dc90fdfe925349a3783a748fbe13abe17312f902000000001976a9146531d0f5358dc841b525073445757c08eb4a23ce88ac00000000",
    "txid": "4487362612b0028b8c33e0499aa63d1663466f5265984f15f528819ee99dec15",
    "size": 281,
    "version": 1,
    "locktime": 0,
    "vin": [
        {
            "txid": "72218458a46554ee8582b1f90791d5460da134bc6c2300fb3a76a04440ad1c75",
            "vout": 1,
            "scriptSig": {
                "asm": "3045022100ccd2d973971a623db46a5b8ddbf406da1aa6745d839d9fb63a4fed05ceab74330220213c2b977699433466a6240e7f60e1a870e57d4ff7273571db1298340b39ee98[ALL] 03dc4b302f91e92e52e4f95b67ad7a1d98faa5fb1b6a09fd138a9a51d6483120d8",
                "hex": "483045022100ccd2d973971a623db46a5b8ddbf406da1aa6745d839d9fb63a4fed05ceab74330220213c2b977699433466a6240e7f60e1a870e57d4ff7273571db1298340b39ee98012103dc4b302f91e92e52e4f95b67ad7a1d98faa5fb1b6a09fd138a9a51d6483120d8"
            },
            "sequence": 4294967295
        }
    ],
    "vout": [
        {
            "value": 0,
            "n": 0,
            "scriptPubKey": {
                "asm": "OP_RETURN 6046e1b5f4153dbfce998ae3d41f0ed4d5a7d196addb8cbcb38f997080751d8b3ae6fdab3b3d3c73bc1a24576859bd8abbba2ca60384740eab5de95b99dc90fdfe925349a3783a748fbe13abe1",
                "hex": "6a4c4d6046e1b5f4153dbfce998ae3d41f0ed4d5a7d196addb8cbcb38f997080751d8b3ae6fdab3b3d3c73bc1a24576859bd8abbba2ca60384740eab5de95b99dc90fdfe925349a3783a748fbe13abe1",
                "type": "nulldata"
            }
        },
        {
            "value": 0.49877619,
            "n": 1,
            "scriptPubKey": {
                "asm": "OP_DUP OP_HASH160 6531d0f5358dc841b525073445757c08eb4a23ce OP_EQUALVERIFY OP_CHECKSIG",
                "hex": "76a9146531d0f5358dc841b525073445757c08eb4a23ce88ac",
                "reqSigs": 1,
                "type": "pubkeyhash",
                "addresses": [
                    "1AE4vfkDX4S49kxsuCve7zJDS5s5RtHYNs"
                ]
            }
        }
    ],
    "blockhash": "0000000000000000030f069a0332a5ca27ebeb5b4d512d5ecfe642d43fd17ccb",
    "confirmations": 265,
    "time": 1470015618,
    "blocktime": 1470015618
}