{
    "hex": "0100000001e7fb18d8af8b824360026178246e0051cd3571693f83bceb8723952cda31b562010000006a473044022005c9adeadf56f14539723abc90f339958ee3290091a6de8f13001290a0a3688302207d7b67428f3dab09ee8b60f97c11b7942d4ddce4bdf03ad1c0cb3e57ed0d0b79012102bd731a5f2feea20df5fd40691edd153496c2ade341f98f82434d87213ceec8a6ffffffff019a390000000000001976a9142933cb1c7ada8ddd51951e6a102ec755ab1ff7e688ac00000000",
    "txid": "9ac43cb3db1006e302e016f3bfcd3113c7b3a1f859685ef30344280c659d6419",
    "version": 1,
    "locktime": 0,
    "vin": [
        {
            "txid": "62b531da2c952387ebbc833f697135cd51006e247861026043828bafd818fbe7",
            "vout": 1,
            "scriptSig": {
                "asm": "3044022005c9adeadf56f14539723abc90f339958ee3290091a6de8f13001290a0a3688302207d7b67428f3dab09ee8b60f97c11b7942d4ddce4bdf03ad1c0cb3e57ed0d0b7901 02bd731a5f2feea20df5fd40691edd153496c2ade341f98f82434d87213ceec8a6",
                "hex": "473044022005c9adeadf56f14539723abc90f339958ee3290091a6de8f13001290a0a3688302207d7b67428f3dab09ee8b60f97c11b7942d4ddce4bdf03ad1c0cb3e57ed0d0b79012102bd731a5f2feea20df5fd40691edd153496c2ade341f98f82434d87213ceec8a6"
            },
            "sequence": 4294967295
        }
    ],
    "vout": [
        {
            "value": 0.00014746,
            "n": 0,
            "scriptPubKey": {
                "asm": "OP_DUP OP_HASH160 2933cb1c7ada8ddd51951e6a102ec755ab1ff7e6 OP_EQUALVERIFY OP_CHECKSIG",
                "hex": "76a9142933cb1c7ada8ddd51951e6a102ec755ab1ff7e688ac",
                "reqSigs": 1,
                "type": "pubkeyhash",
                "addresses": [
                    "14krkXxhXmiBFnbthrVM2Sy28PVYKtnY9p"
                ]
            }
        }
    ],
    "blockhash": "000000000000000003b2f9538c2d1db86b02380969054a0a1577a48707675f2a",
    "confirmations": 23,
    "time": 1468654874,
    "blocktime": 1468654874
}