{
    "hex": "01000000019fedb7baa2b797f240a771f4472cf80c0771433999bcfcbf2189bbfa442cdceb020000006b4830450221009a1833c90f183ecc4bce24bdcb27203f75796427afc903aa5e7af258bb415bf402203303c11ce74b432d74e78a4d821f8265cf3b44d8e10d3d428e777b9854a77d66012103429636ae01031ac5117414cea2da1b65dc50f7b86ea73c0d7c2b77a4ffacb3ddffffffff020000000000000000536a4c50396c866232a1addaa3691be478afd562f3dd1f4621451b73fc531e02096820f6ff3bbc2f7469536f63283d6017c7358f4ddd6075ec4e8bc251ab64afaf4254ee81d6bc0f1e928c8f9592b88c840f0b2dc3540600000000001976a914b91d42f5ed440bfde8e67e0e009ce303ee24889188ac00000000",
    "txid": "a71d18112f0b0496e0ef274a1454f56b8e62c9307ccd08487ca3e6dc619f2a2b",
    "size": 284,
    "version": 1,
    "locktime": 0,
    "vin": [
        {
            "txid": "ebdc2c44fabb8921bffcbc99394371070cf82c47f471a740f297b7a2bab7ed9f",
            "vout": 2,
            "scriptSig": {
                "asm": "30450221009a1833c90f183ecc4bce24bdcb27203f75796427afc903aa5e7af258bb415bf402203303c11ce74b432d74e78a4d821f8265cf3b44d8e10d3d428e777b9854a77d66[ALL] 03429636ae01031ac5117414cea2da1b65dc50f7b86ea73c0d7c2b77a4ffacb3dd",
                "hex": "4830450221009a1833c90f183ecc4bce24bdcb27203f75796427afc903aa5e7af258bb415bf402203303c11ce74b432d74e78a4d821f8265cf3b44d8e10d3d428e777b9854a77d66012103429636ae01031ac5117414cea2da1b65dc50f7b86ea73c0d7c2b77a4ffacb3dd"
            },
            "sequence": 4294967295
        }
    ],
    "vout": [
        {
            "value": 0,
            "n": 0,
            "scriptPubKey": {
                "asm": "OP_RETURN 396c866232a1addaa3691be478afd562f3dd1f4621451b73fc531e02096820f6ff3bbc2f7469536f63283d6017c7358f4ddd6075ec4e8bc251ab64afaf4254ee81d6bc0f1e928c8f9592b88c840f0b2d",
                "hex": "6a4c50396c866232a1addaa3691be478afd562f3dd1f4621451b73fc531e02096820f6ff3bbc2f7469536f63283d6017c7358f4ddd6075ec4e8bc251ab64afaf4254ee81d6bc0f1e928c8f9592b88c840f0b2d",
                "type": "nulldata"
            }
        },
        {
            "value": 0.00414915,
            "n": 1,
            "scriptPubKey": {
                "asm": "OP_DUP OP_HASH160 b91d42f5ed440bfde8e67e0e009ce303ee248891 OP_EQUALVERIFY OP_CHECKSIG",
                "hex": "76a914b91d42f5ed440bfde8e67e0e009ce303ee24889188ac",
                "reqSigs": 1,
                "type": "pubkeyhash",
                "addresses": [
                    "1Hso4cqKAyx9bsan8b5nbPqMTNNce8ZDto"
                ]
            }
        }
    ],
    "blockhash": "000000000000000003b2022e5a590166015aa6216baecf2c192cc529de7d9c2f",
    "confirmations": 521,
    "time": 1469867925,
    "blocktime": 1469867925
}