{
    "hex" : "010000000160796c4a0a00cde387d6a005e721b3dff72ee81a5273c0ea0f3ba61eda2cf5850000000049483045022100da15d5d6861161720264d51260ed362690614c4e9bfcdd98da8fdb731763080a02207f28c10f782d3c2e4cd4a664f1e989d48e820e425214dd773c757aa8f0a3d1f301ffffffff02b847e40200000000232103bf8c7652b45c92738eb00630625d88181a96aa29372e62be6e4e258ad9351a32ac00000000000000002a6a28534c44583addeb5c375cf8262cecb779b09b9c58247ba2727b7d76e413c4b42cecbce0501327b3b200000000",
    "txid" : "9d041d4d340248ed6bf4ec108bef08924019cd503248c30ba3e12a0b0a0fe13f",
    "version" : 1,
    "locktime" : 0,
    "vin" : [
        {
            "txid" : "85f52cda1ea63b0feac073521ae82ef7dfb321e705a0d687e3cd000a4a6c7960",
            "vout" : 0,
            "scriptSig" : {
                "asm" : "3045022100da15d5d6861161720264d51260ed362690614c4e9bfcdd98da8fdb731763080a02207f28c10f782d3c2e4cd4a664f1e989d48e820e425214dd773c757aa8f0a3d1f301",
                "hex" : "483045022100da15d5d6861161720264d51260ed362690614c4e9bfcdd98da8fdb731763080a02207f28c10f782d3c2e4cd4a664f1e989d48e820e425214dd773c757aa8f0a3d1f301"
            },
            "sequence" : 4294967295
        }
    ],
    "vout" : [
        {
            "value" : 0.48515000,
            "n" : 0,
            "scriptPubKey" : {
                "asm" : "03bf8c7652b45c92738eb00630625d88181a96aa29372e62be6e4e258ad9351a32 OP_CHECKSIG",
                "hex" : "2103bf8c7652b45c92738eb00630625d88181a96aa29372e62be6e4e258ad9351a32ac",
                "reqSigs" : 1,
                "type" : "pubkey",
                "addresses" : [
                    "18TmCT1XirzdR6CFKfHNeHCY5VCySrFHHT"
                ]
            }
        },
        {
            "value" : 0.00000000,
            "n" : 1,
            "scriptPubKey" : {
                "asm" : "OP_RETURN 534c44583addeb5c375cf8262cecb779b09b9c58247ba2727b7d76e413c4b42cecbce0501327b3b2",
                "hex" : "6a28534c44583addeb5c375cf8262cecb779b09b9c58247ba2727b7d76e413c4b42cecbce0501327b3b2",
                "type" : "nulldata"
            }
        }
    ],
    "blockhash" : "0000000000000000018335d12c5d324db535e590aede8d96591d16c2f43f539c",
    "confirmations" : 109,
    "time" : 1454371355,
    "blocktime" : 1454371355
}
