{
    "hex": "0100000003e76ac5b1b59d3ee79a7480839a7ac1a6e0ad40c42f934743b380f1ffc9910ef001000000da00473044022078d3b65a13901e4b0ded0bda296a5e132503156b4b21e8947187909526c19bd9022070e8363cd40f1da80796b682026b39f787c05656aadbcfd9880d319d65d7e794014830450221009003aae3af81932da3d284a0b8094fb043d2020fc680801bef44c25feca051bb0220573e197c96e33357370fcfdd5fb0a620a23870d447ccbabe27040d7bfc5af88001475221023f2739d2e953792450dcb52643cea327cab4e76a21c4dd9e11c91bced0e98a8f21028e4b4e19b9d7a29e4baa3b8c233eb64edda63c7fac701690a0d1d582003e85f052aeffffffffd609d5bf51be7d158ef7d15b52073eb5bc5ed10ddc7741b2fcdd3e266b82908001000000db00483045022100c623a8ca6c0d7553cc24e0201fa3c99c89362ad91b398fca2cf0d405f7d9b326022047b0b2383295b2b810b90970222c6de7f56173281cd9d3eead2bc115116ad72c01483045022100edfcaa17540fab9621e36d2f7663675948cab757da426dcb7d9a881c8801750b022049204facf5b14e404d26b55042cfb7ed4bc40e2a1c8a305f069597223121c2360147522102d1acf96bd422df995c5ccef19e29e56a71af4918bd3ed14825b2af35086824d221028e4b4e19b9d7a29e4baa3b8c233eb64edda63c7fac701690a0d1d582003e85f052aeffffffffd3fb833ee94b0ed2e11182c0894c607b0dd369ad1a407ee0570bc180331a7c1b01000000da00473044022043cbe3c0f3e57b91e57153a6aeb328e85334e9a1dee3b2a90166fe16c3cc2e3a022077f5cd56d603a901b026ae35800c6aee57e94b080fa3aed47f50d7bf59f3de8901483045022100808f0d2c9f0a956a645ea03651e1b47f199e3a4b429a947f3bee9a2325ef6694022014791ea1d19f2f8586b88210e36b6e416ae5427d99fc6f7d9941a797a6f0f8270147522102d846ed6b39f2602fe70abda6455bd633205a80f19fccee1356b0b7d94234689e21028e4b4e19b9d7a29e4baa3b8c233eb64edda63c7fac701690a0d1d582003e85f052aeffffffff02d5a7d901000000001976a9143d55515bc1c1aae0b3c1331e913444d7f3bd83ca88ac5a585e000000000017a91415ff2bde21058e805131e6711d8f62e4c32ac1a58700000000",
    "txid": "63b1c69d93291bbe232dcce7ffdf220386186248ce9493bd942b5dca6dd62856",
    "version": 1,
    "locktime": 0,
    "vin": [
        {
            "txid": "f00e91c9fff180b34347932fc440ade0a6c17a9a8380749ae73e9db5b1c56ae7",
            "vout": 1,
            "scriptSig": {
                "asm": "0 3044022078d3b65a13901e4b0ded0bda296a5e132503156b4b21e8947187909526c19bd9022070e8363cd40f1da80796b682026b39f787c05656aadbcfd9880d319d65d7e79401 30450221009003aae3af81932da3d284a0b8094fb043d2020fc680801bef44c25feca051bb0220573e197c96e33357370fcfdd5fb0a620a23870d447ccbabe27040d7bfc5af88001 5221023f2739d2e953792450dcb52643cea327cab4e76a21c4dd9e11c91bced0e98a8f21028e4b4e19b9d7a29e4baa3b8c233eb64edda63c7fac701690a0d1d582003e85f052ae",
                "hex": "00473044022078d3b65a13901e4b0ded0bda296a5e132503156b4b21e8947187909526c19bd9022070e8363cd40f1da80796b682026b39f787c05656aadbcfd9880d319d65d7e794014830450221009003aae3af81932da3d284a0b8094fb043d2020fc680801bef44c25feca051bb0220573e197c96e33357370fcfdd5fb0a620a23870d447ccbabe27040d7bfc5af88001475221023f2739d2e953792450dcb52643cea327cab4e76a21c4dd9e11c91bced0e98a8f21028e4b4e19b9d7a29e4baa3b8c233eb64edda63c7fac701690a0d1d582003e85f052ae"
            },
            "sequence": 4294967295
        },
        {
            "txid": "8090826b263eddfcb24177dc0dd15ebcb53e07525bd1f78e157dbe51bfd509d6",
            "vout": 1,
            "scriptSig": {
                "asm": "0 3045022100c623a8ca6c0d7553cc24e0201fa3c99c89362ad91b398fca2cf0d405f7d9b326022047b0b2383295b2b810b90970222c6de7f56173281cd9d3eead2bc115116ad72c01 3045022100edfcaa17540fab9621e36d2f7663675948cab757da426dcb7d9a881c8801750b022049204facf5b14e404d26b55042cfb7ed4bc40e2a1c8a305f069597223121c23601 522102d1acf96bd422df995c5ccef19e29e56a71af4918bd3ed14825b2af35086824d221028e4b4e19b9d7a29e4baa3b8c233eb64edda63c7fac701690a0d1d582003e85f052ae",
                "hex": "00483045022100c623a8ca6c0d7553cc24e0201fa3c99c89362ad91b398fca2cf0d405f7d9b326022047b0b2383295b2b810b90970222c6de7f56173281cd9d3eead2bc115116ad72c01483045022100edfcaa17540fab9621e36d2f7663675948cab757da426dcb7d9a881c8801750b022049204facf5b14e404d26b55042cfb7ed4bc40e2a1c8a305f069597223121c2360147522102d1acf96bd422df995c5ccef19e29e56a71af4918bd3ed14825b2af35086824d221028e4b4e19b9d7a29e4baa3b8c233eb64edda63c7fac701690a0d1d582003e85f052ae"
            },
            "sequence": 4294967295
        },
        {
            "txid": "1b7c1a3380c10b57e07e401aad69d30d7b604c89c08211e1d20e4be93e83fbd3",
            "vout": 1,
            "scriptSig": {
                "asm": "0 3044022043cbe3c0f3e57b91e57153a6aeb328e85334e9a1dee3b2a90166fe16c3cc2e3a022077f5cd56d603a901b026ae35800c6aee57e94b080fa3aed47f50d7bf59f3de8901 3045022100808f0d2c9f0a956a645ea03651e1b47f199e3a4b429a947f3bee9a2325ef6694022014791ea1d19f2f8586b88210e36b6e416ae5427d99fc6f7d9941a797a6f0f82701 522102d846ed6b39f2602fe70abda6455bd633205a80f19fccee1356b0b7d94234689e21028e4b4e19b9d7a29e4baa3b8c233eb64edda63c7fac701690a0d1d582003e85f052ae",
                "hex": "00473044022043cbe3c0f3e57b91e57153a6aeb328e85334e9a1dee3b2a90166fe16c3cc2e3a022077f5cd56d603a901b026ae35800c6aee57e94b080fa3aed47f50d7bf59f3de8901483045022100808f0d2c9f0a956a645ea03651e1b47f199e3a4b429a947f3bee9a2325ef6694022014791ea1d19f2f8586b88210e36b6e416ae5427d99fc6f7d9941a797a6f0f8270147522102d846ed6b39f2602fe70abda6455bd633205a80f19fccee1356b0b7d94234689e21028e4b4e19b9d7a29e4baa3b8c233eb64edda63c7fac701690a0d1d582003e85f052ae"
            },
            "sequence": 4294967295
        }
    ],
    "vout": [
        {
            "value": 0.31041493,
            "n": 0,
            "scriptPubKey": {
                "asm": "OP_DUP OP_HASH160 3d55515bc1c1aae0b3c1331e913444d7f3bd83ca OP_EQUALVERIFY OP_CHECKSIG",
                "hex": "76a9143d55515bc1c1aae0b3c1331e913444d7f3bd83ca88ac",
                "reqSigs": 1,
                "type": "pubkeyhash",
                "addresses": [
                    "16bJRgqH9J7XGXW3MiMSFBvV2FdrjcfzpM"
                ]
            }
        },
        {
            "value": 0.06183002,
            "n": 1,
            "scriptPubKey": {
                "asm": "OP_HASH160 15ff2bde21058e805131e6711d8f62e4c32ac1a5 OP_EQUAL",
                "hex": "a91415ff2bde21058e805131e6711d8f62e4c32ac1a587",
                "reqSigs": 1,
                "type": "scripthash",
                "addresses": [
                    "33hKoBuynXDJSY8TXhbH36Mrkvq3KVgNK8"
                ]
            }
        }
    ],
    "blockhash": "0000000000000000003a6444684e503f501ae76b21179c6119d8d22c09a70772",
    "confirmations": 21,
    "time": 1468656166,
    "blocktime": 1468656166
}