{
    "hex" : "010000000160796c4a0a00cde387d6a005e721b3dff72ee81a5273c0ea0f3ba61eda2cf5850000000049483045022100da15d5d6861161720264d51260ed362690614c4e9bfcdd98da8fdb731763080a02207f28c10f782d3c2e4cd4a664f1e989d48e820e425214dd773c757aa8f0a3d1f301ffffffff02b847e40200000000232103bf8c7652b45c92738eb00630625d88181a96aa29372e62be6e4e258ad9351a32ac00000000000000002a6a28534c44583addeb5c375cf8262cecb779b09b9c58247ba2727b7d76e413c4b42cecbce0501327b3b200000000",
    "txid" : "00000000000000000000000000000000000000000000000000000aaaaaaaaaaa",
    "version" : 1,
    "locktime" : 0,
    "vin" : [
        {
            "txid" : "85f52cda1ea63b0feac073521ae82ef7dfb321e705a0d687e3cd000a4a6c7960",
            "vout" : 0,
            "scriptSig" : {
                "asm" : "3045022100da15d5d6861161720264d51260ed362690614c4e9bfcdd98da8fdb731763080a02207f28c10f782d3c2e4cd4a664f1e989d48e820e425214dd773c757aa8f0a3d1f301",
                "hex" : "483045022100da15d5d6861161720264d51260ed362690614c4e9bfcdd98da8fdb731763080a02207f28c10f782d3c2e4cd4a664f1e989d48e820e425214dd773c757aa8f0a3d1f301"
            },
            "addr": "SENDER01",
            "valueSat": 781213,
            "value": 0.00781213,
            "sequence" : 4294967295
        }
    ],
    "vout" : [
        {
            "value" : 0.48515000,
            "n" : 0,
            "scriptPubKey" : {
                "asm" : "OP_HASH160 8ae113bf266f4510fabd8e0c258973e3b9f006f2 OP_EQUAL",
                "hex" : "a9148ae113bf266f4510fabd8e0c258973e3b9f006f287",
                "reqSigs" : 1,
                "type" : "scripthash",
                "addresses" : [
                    "RECIPIENT01"
                ]
            }
        }
    ],
    "blockhash" : "BLOCKHASH02FORKBBB",
    "confirmations" : 109,
    "time" : 1454371355,
    "blocktime" : 1454371355,

    "_skipEnhance": true
}
