{
    "hex": "0100000003c500f19abad9028a1c7437d463706b8f08b5203718be41fffdde46cdbe7ec5b4000000006b483045022100b553fc4ab2a718dd7beb2c3efb73ac983970708c01be1bb7e8fbe2af981979e302203e43021c257b9ae547147f075319b389ff3c3ab278a5baaf0f99c932f2cf5d680121027036050c31244c64f9c6b0739b8fae12958c254c31c95d9e310b50fdf1e20ce5ffffffff7474dca06a582146da50661b520442224604ae8cde58d640a23c7b2be61837cc000000006b483045022100a07156d9eb52d558ccfa402a9acda089d4907b05137548de50d3e8ea656add3902202f30a662b6e27f47a641c75e580cf0656327bafab875a631360fb3d7a1539b720121027036050c31244c64f9c6b0739b8fae12958c254c31c95d9e310b50fdf1e20ce5ffffffff8b07dc032d5569d1268dc35476ec4d1095298f7e8478e0612250612f9d0f0454000000006a47304402205494cf32acd0dcf249ddeaa07c0699311e070df66084baa6af28f25804c665460220352cab260c78f063e2aa2f51e792178bf30f61b42ddcc8d8503db25037f0d9180121027036050c31244c64f9c6b0739b8fae12958c254c31c95d9e310b50fdf1e20ce5ffffffff0336150000000000001976a914060af7644b95a123a5c15957cad1c55f84429f5e88ac00000000000000001e6a1c7519b3c5291b0cb02785c2b8c97151234b2e90a80eab55af15300998ed585a00000000001976a914c56cb39f9b289c0ec4ef6943fa107c904820fe0988ac00000000",
    "txid": "1932c7a9901068da1377fcf8860b2a13eaa086fb008e3d797d43274748787039",
    "version": 1,
    "locktime": 0,
    "vin": [
        {
            "txid": "b4c57ebecd46defdff41be183720b5088f6b7063d437741c8a02d9ba9af100c5",
            "vout": 0,
            "scriptSig": {
                "asm": "3045022100b553fc4ab2a718dd7beb2c3efb73ac983970708c01be1bb7e8fbe2af981979e302203e43021c257b9ae547147f075319b389ff3c3ab278a5baaf0f99c932f2cf5d6801 027036050c31244c64f9c6b0739b8fae12958c254c31c95d9e310b50fdf1e20ce5",
                "hex": "483045022100b553fc4ab2a718dd7beb2c3efb73ac983970708c01be1bb7e8fbe2af981979e302203e43021c257b9ae547147f075319b389ff3c3ab278a5baaf0f99c932f2cf5d680121027036050c31244c64f9c6b0739b8fae12958c254c31c95d9e310b50fdf1e20ce5"
            },
            "sequence": 4294967295
        },
        {
            "txid": "cc3718e62b7b3ca240d658de8cae0446224204521b6650da4621586aa0dc7474",
            "vout": 0,
            "scriptSig": {
                "asm": "3045022100a07156d9eb52d558ccfa402a9acda089d4907b05137548de50d3e8ea656add3902202f30a662b6e27f47a641c75e580cf0656327bafab875a631360fb3d7a1539b7201 027036050c31244c64f9c6b0739b8fae12958c254c31c95d9e310b50fdf1e20ce5",
                "hex": "483045022100a07156d9eb52d558ccfa402a9acda089d4907b05137548de50d3e8ea656add3902202f30a662b6e27f47a641c75e580cf0656327bafab875a631360fb3d7a1539b720121027036050c31244c64f9c6b0739b8fae12958c254c31c95d9e310b50fdf1e20ce5"
            },
            "sequence": 4294967295
        },
        {
            "txid": "54040f9d2f61502261e078847e8f2995104dec7654c38d26d169552d03dc078b",
            "vout": 0,
            "scriptSig": {
                "asm": "304402205494cf32acd0dcf249ddeaa07c0699311e070df66084baa6af28f25804c665460220352cab260c78f063e2aa2f51e792178bf30f61b42ddcc8d8503db25037f0d91801 027036050c31244c64f9c6b0739b8fae12958c254c31c95d9e310b50fdf1e20ce5",
                "hex": "47304402205494cf32acd0dcf249ddeaa07c0699311e070df66084baa6af28f25804c665460220352cab260c78f063e2aa2f51e792178bf30f61b42ddcc8d8503db25037f0d9180121027036050c31244c64f9c6b0739b8fae12958c254c31c95d9e310b50fdf1e20ce5"
            },
            "sequence": 4294967295
        }
    ],
    "vout": [
        {
            "value": 5.43e-5,
            "n": 0,
            "scriptPubKey": {
                "asm": "OP_DUP OP_HASH160 060af7644b95a123a5c15957cad1c55f84429f5e OP_EQUALVERIFY OP_CHECKSIG",
                "hex": "76a914060af7644b95a123a5c15957cad1c55f84429f5e88ac",
                "reqSigs": 1,
                "type": "pubkeyhash",
                "addresses": [
                    "1YxC7GN6NipW12XLPuCFcTFfkMKYAu1Lb"
                ]
            }
        },
        {
            "value": 0,
            "n": 1,
            "scriptPubKey": {
                "asm": "OP_RETURN 7519b3c5291b0cb02785c2b8c97151234b2e90a80eab55af15300998",
                "hex": "6a1c7519b3c5291b0cb02785c2b8c97151234b2e90a80eab55af15300998",
                "type": "nulldata"
            }
        },
        {
            "value": 0.05921005,
            "n": 2,
            "scriptPubKey": {
                "asm": "OP_DUP OP_HASH160 c56cb39f9b289c0ec4ef6943fa107c904820fe09 OP_EQUALVERIFY OP_CHECKSIG",
                "hex": "76a914c56cb39f9b289c0ec4ef6943fa107c904820fe0988ac",
                "reqSigs": 1,
                "type": "pubkeyhash",
                "addresses": [
                    "1JztLWos5K7LsqW5E78EASgiVBaCe6f7cD"
                ]
            }
        }
    ],
    "blockhash": "000000000000000001524dd5f9e9b1838d04ff4b9571e7fbfad10d5b3b144081",
    "confirmations": 6726,
    "time": 1464722750,
    "blocktime": 1464722750
}