{
    "hex": "01000000018b71fdf2d5ce3cd24d0dc06a78e1a184c34256e8f66adcbb8ad826394a106b32020000006a473044022005f37bf9d4c15237bc483aea9912a756dfa9ee60e48a3568f3ab49b606b318a4022014657cb9c388aa9791d354897a94f89ef61dbc1b2ab0da2602fb7043d8108695012103946a770230678535ebb61cf982da87d4f21d2922d316611aaabc99231369481cffffffff035e150000000000001976a914e151bc0fe4f8dbecbf21ca4f43825ab8fb5ed41b88ac00000000000000001e6a1cf66e7d96d7e0e8e28bd55b47d30794565f3074e17ae5f367a442169b18f5b903000000001976a914e3ea6562df21ada5dd2b03f69f7f7ef48d7f59b288ac00000000",
    "txid": "5075c83b50131667c2e51842b3196286194ee475163c2aabbcc7877d1ff9af1d",
    "version": 1,
    "locktime": 0,
    "vin": [
        {
            "txid": "326b104a3926d88abbdc6af6e85642c384a1e1786ac00d4dd23cced5f2fd718b",
            "vout": 2,
            "scriptSig": {
                "asm": "3044022005f37bf9d4c15237bc483aea9912a756dfa9ee60e48a3568f3ab49b606b318a4022014657cb9c388aa9791d354897a94f89ef61dbc1b2ab0da2602fb7043d810869501 03946a770230678535ebb61cf982da87d4f21d2922d316611aaabc99231369481c",
                "hex": "473044022005f37bf9d4c15237bc483aea9912a756dfa9ee60e48a3568f3ab49b606b318a4022014657cb9c388aa9791d354897a94f89ef61dbc1b2ab0da2602fb7043d8108695012103946a770230678535ebb61cf982da87d4f21d2922d316611aaabc99231369481c"
            },
            "sequence": 4294967295
        }
    ],
    "vout": [
        {
            "value": 5.47e-5,
            "n": 0,
            "scriptPubKey": {
                "asm": "OP_DUP OP_HASH160 e151bc0fe4f8dbecbf21ca4f43825ab8fb5ed41b OP_EQUALVERIFY OP_CHECKSIG",
                "hex": "76a914e151bc0fe4f8dbecbf21ca4f43825ab8fb5ed41b88ac",
                "reqSigs": 1,
                "type": "pubkeyhash",
                "addresses": [
                    "1MYNxBbNN44Zo6tfSZFKjeWC462ferRvqa"
                ]
            }
        },
        {
            "value": 0,
            "n": 1,
            "scriptPubKey": {
                "asm": "OP_RETURN f66e7d96d7e0e8e28bd55b47d30794565f3074e17ae5f367a442169b",
                "hex": "6a1cf66e7d96d7e0e8e28bd55b47d30794565f3074e17ae5f367a442169b",
                "type": "nulldata"
            }
        },
        {
            "value": 0.62518552,
            "n": 2,
            "scriptPubKey": {
                "asm": "OP_DUP OP_HASH160 e3ea6562df21ada5dd2b03f69f7f7ef48d7f59b2 OP_EQUALVERIFY OP_CHECKSIG",
                "hex": "76a914e3ea6562df21ada5dd2b03f69f7f7ef48d7f59b288ac",
                "reqSigs": 1,
                "type": "pubkeyhash",
                "addresses": [
                    "1Mn7Bfjj59gB7WrcK6Wt6v3UZ5FLZQmGki"
                ]
            }
        }
    ],
    "blockhash": "00000000000000000379dcda1bf4ebfd9854463d04c15a233a7d55278b6e8dff",
    "confirmations": 87,
    "time": 1468928249,
    "blocktime": 1468928249
}