{
    "hex" : "0100000001efbe0a6912c6b6be34a260377039f5345b52bd673b62659a2fda8aadc35d419401000000fc004730440220756f6bf38abe39aed90fb94cf2168b7d10cd3d3982dc33e949089deef420d0b4022023c40ca0f66a3e9d3280296c983a5cb60b04d26153cae31fa69983c5ed79bdfe014730440220570dbc2dde2678423f6c190be169f4c0b973b7da8e0e0c9b7d2ee304fa30ae4902203e6a1877f7899aae0f0ef932e2ce1bac20c2b7812800bfcea196746e7a388638014c69522103c5c1676c044d8f74e6539e8670c6394435503d29d6c238dc66ec8832bdf43dca2102e655beeec9e051747eaa82a3fbc40fc13b66bbc9aadfb64a76a4c3a0527d9e582102bfe87145a0aa7cc4f9ad79f3e30c1cc72689ce4047a0040a5f0fb19ec07536d753aeffffffff028d507b010000000017a9148ae113bf266f4510fabd8e0c258973e3b9f006f287eb392c000000000017a914706f0d6f929ffc74fc7ae476a9055029cdf8515c8700000000",
    "txid" : "99c93bf83cdd4d60f234bd34ee39acc4c1b5eb66db8c932600de12b05c96d0ef",
    "version" : 1,
    "locktime" : 0,
    "vin" : [
        {
            "txid" : "94415dc3ad8ada2f9a65623b67bd525b34f539703760a234beb6c612690abeef",
            "vout" : 1,
            "scriptSig" : {
                "asm" : "0 30440220756f6bf38abe39aed90fb94cf2168b7d10cd3d3982dc33e949089deef420d0b4022023c40ca0f66a3e9d3280296c983a5cb60b04d26153cae31fa69983c5ed79bdfe01 30440220570dbc2dde2678423f6c190be169f4c0b973b7da8e0e0c9b7d2ee304fa30ae4902203e6a1877f7899aae0f0ef932e2ce1bac20c2b7812800bfcea196746e7a38863801 522103c5c1676c044d8f74e6539e8670c6394435503d29d6c238dc66ec8832bdf43dca2102e655beeec9e051747eaa82a3fbc40fc13b66bbc9aadfb64a76a4c3a0527d9e582102bfe87145a0aa7cc4f9ad79f3e30c1cc72689ce4047a0040a5f0fb19ec07536d753ae",
                "hex" : "004730440220756f6bf38abe39aed90fb94cf2168b7d10cd3d3982dc33e949089deef420d0b4022023c40ca0f66a3e9d3280296c983a5cb60b04d26153cae31fa69983c5ed79bdfe014730440220570dbc2dde2678423f6c190be169f4c0b973b7da8e0e0c9b7d2ee304fa30ae4902203e6a1877f7899aae0f0ef932e2ce1bac20c2b7812800bfcea196746e7a388638014c69522103c5c1676c044d8f74e6539e8670c6394435503d29d6c238dc66ec8832bdf43dca2102e655beeec9e051747eaa82a3fbc40fc13b66bbc9aadfb64a76a4c3a0527d9e582102bfe87145a0aa7cc4f9ad79f3e30c1cc72689ce4047a0040a5f0fb19ec07536d753ae"
            },
            "sequence" : 4294967295
        }
    ],
    "vout" : [
        {
            "value" : 0.24858765,
            "n" : 0,
            "scriptPubKey" : {
                "asm" : "OP_HASH160 8ae113bf266f4510fabd8e0c258973e3b9f006f2 OP_EQUAL",
                "hex" : "a9148ae113bf266f4510fabd8e0c258973e3b9f006f287",
                "reqSigs" : 1,
                "type" : "scripthash",
                "addresses" : [
                    "3EMLoeeUZtKBe6pg7wJZdVdXTJWa9pFNMR"
                ]
            }
        },
        {
            "value" : 0.02898411,
            "n" : 1,
            "scriptPubKey" : {
                "asm" : "OP_HASH160 706f0d6f929ffc74fc7ae476a9055029cdf8515c OP_EQUAL",
                "hex" : "a914706f0d6f929ffc74fc7ae476a9055029cdf8515c87",
                "reqSigs" : 1,
                "type" : "scripthash",
                "addresses" : [
                    "3BwWe6D2znQ7XnMaGaddu1MdyyGWppxRwj"
                ]
            }
        }
    ],
    "blockhash" : "0000000000000000040745c0a096a1d711dcc1462315ae3a076644038bc4a15b",
    "confirmations" : 147,
    "time" : 1451913663,
    "blocktime" : 1451913663
}
