{
    "hex": "0100000001dc87dc53b4c0ad903d8e96a2a334a46f1dc5654c9e12907a35c741af90908b73020000006b483045022050f69110229fa6dada7d373ba06bf20fd0c7fa47075aa161463d9226d46c9ee2022100a79f12da57a38805332f7434bc71a69e3f1ebd537de9f2efff97a0424a3e74ab012103f4d43bb7382edf9c7985024552d69ba3190540fe4ed481b62aec78f657b3c60bffffffff0436150000000000001976a9143d82664b4ea9b1f3fe0298d2b5a4cccfd2f3403b88ac781e000000000000695121024812462901542988cd2abbda4270ecd32943f6f5a944be7a65d8e5ea4220725b2103fb607e55a3ff0339f6670a56656eab5018152f1c2bbd683eaf06f73a7d7beef22103f4d43bb7382edf9c7985024552d69ba3190540fe4ed481b62aec78f657b3c60b53ae781e000000000000695121037912462901542988cd04d5bf2270ecd22ea569a10244be7a65d8e5ea4221722c2103fb607e55a3ff0339ec0f7e221554847f6f6258324dd2045ac66890591212806b2103f4d43bb7382edf9c7985024552d69ba3190540fe4ed481b62aec78f657b3c60b53aebae32500000000001976a914ebc4dc6c23fd56d55ba2b917ddcdf2c94a404b1388ac00000000",
    "txid": "abe9196366e0876570dc9054660f401cfd8ccfb6aa7be1375f30ee0416afc3de",
    "size": 454,
    "version": 1,
    "locktime": 0,
    "vin": [
        {
            "txid": "738b9090af41c7357a90129e4c65c51d6fa434a3a2968e3d90adc0b453dc87dc",
            "vout": 2,
            "scriptSig": {
                "asm": "3045022050f69110229fa6dada7d373ba06bf20fd0c7fa47075aa161463d9226d46c9ee2022100a79f12da57a38805332f7434bc71a69e3f1ebd537de9f2efff97a0424a3e74ab[ALL] 03f4d43bb7382edf9c7985024552d69ba3190540fe4ed481b62aec78f657b3c60b",
                "hex": "483045022050f69110229fa6dada7d373ba06bf20fd0c7fa47075aa161463d9226d46c9ee2022100a79f12da57a38805332f7434bc71a69e3f1ebd537de9f2efff97a0424a3e74ab012103f4d43bb7382edf9c7985024552d69ba3190540fe4ed481b62aec78f657b3c60b"
            },
            "sequence": 4294967295
        }
    ],
    "vout": [
        {
            "value": 5.43e-5,
            "n": 0,
            "scriptPubKey": {
                "asm": "OP_DUP OP_HASH160 3d82664b4ea9b1f3fe0298d2b5a4cccfd2f3403b OP_EQUALVERIFY OP_CHECKSIG",
                "hex": "76a9143d82664b4ea9b1f3fe0298d2b5a4cccfd2f3403b88ac",
                "reqSigs": 1,
                "type": "pubkeyhash",
                "addresses": [
                    "16cES2Nxv9D5vjsMT5A4HEwhbUPDg3Nnpd"
                ]
            }
        },
        {
            "value": 7.8e-5,
            "n": 1,
            "scriptPubKey": {
                "asm": "1 024812462901542988cd2abbda4270ecd32943f6f5a944be7a65d8e5ea4220725b 03fb607e55a3ff0339f6670a56656eab5018152f1c2bbd683eaf06f73a7d7beef2 03f4d43bb7382edf9c7985024552d69ba3190540fe4ed481b62aec78f657b3c60b 3 OP_CHECKMULTISIG",
                "hex": "5121024812462901542988cd2abbda4270ecd32943f6f5a944be7a65d8e5ea4220725b2103fb607e55a3ff0339f6670a56656eab5018152f1c2bbd683eaf06f73a7d7beef22103f4d43bb7382edf9c7985024552d69ba3190540fe4ed481b62aec78f657b3c60b53ae",
                "reqSigs": 1,
                "type": "multisig",
                "addresses": [
                    "1C2Qs48tkMMZnP7AbfsA597iYqLCoYK8vZ",
                    "18YjqJtRUenFdRW4qZXe1Kas4BBgRB6S6s",
                    "1NVddDzRUvn8bHZEG9n5W7gfMTLeBeNAHQ"
                ]
            }
        },
        {
            "value": 7.8e-5,
            "n": 2,
            "scriptPubKey": {
                "asm": "1 037912462901542988cd04d5bf2270ecd22ea569a10244be7a65d8e5ea4221722c 03fb607e55a3ff0339ec0f7e221554847f6f6258324dd2045ac66890591212806b 03f4d43bb7382edf9c7985024552d69ba3190540fe4ed481b62aec78f657b3c60b 3 OP_CHECKMULTISIG",
                "hex": "5121037912462901542988cd04d5bf2270ecd22ea569a10244be7a65d8e5ea4221722c2103fb607e55a3ff0339ec0f7e221554847f6f6258324dd2045ac66890591212806b2103f4d43bb7382edf9c7985024552d69ba3190540fe4ed481b62aec78f657b3c60b53ae",
                "reqSigs": 1,
                "type": "multisig",
                "addresses": [
                    "1Fw7TEJFPykDwJgCT7xA3jCiav4vKFmSka",
                    "1DheYEHwzB73Nod1iGgvXjoqrKUJuwVJRh",
                    "1NVddDzRUvn8bHZEG9n5W7gfMTLeBeNAHQ"
                ]
            }
        },
        {
            "value": 0.0248313,
            "n": 3,
            "scriptPubKey": {
                "asm": "OP_DUP OP_HASH160 ebc4dc6c23fd56d55ba2b917ddcdf2c94a404b13 OP_EQUALVERIFY OP_CHECKSIG",
                "hex": "76a914ebc4dc6c23fd56d55ba2b917ddcdf2c94a404b1388ac",
                "reqSigs": 1,
                "type": "pubkeyhash",
                "addresses": [
                    "1NVddDzRUvn8bHZEG9n5W7gfMTLeBeNAHQ"
                ]
            }
        }
    ],
    "blockhash": "0000000000000000073776af9fe180273a79ff95bdd6aa7e0c8989532295a3fe",
    "confirmations": 93763,
    "time": 1420917955,
    "blocktime": 1420917955
}