{
    "hex": "0100000002890043c03cb2f332598bf5cf4c38e86a610a180859046c3ca34a19d63ae12f7a000000006b483045022100a159251664146674d16f4b81aaa7c6e703bc10c2b7f6058d385539bb2f6df157022074f42a7ffd47087a097a880c96b9696fbb4c694a4463c3bab556c8140d430f220121036353e097c86c70b4294df075722e7c4a87b2d6abdf04142fd8ad01f65653ba5bffffffff919bebdfdfb985dd3088e14ff49a6a748f18fcc46c1af638b1bc89db9cb9f5b8010000006a473044022010779563b1d361425543c1768f705f53d9f9629e2a5867a981b77f96022d992e022050108c699ca9cafe22ca9ec315d2d5ad4727015ea879e036e6c8bf0b538d4f700121036353e097c86c70b4294df075722e7c4a87b2d6abdf04142fd8ad01f65653ba5bffffffff0336150000000000001976a914c56cb39f9b289c0ec4ef6943fa107c904820fe0988ac00000000000000001e6a1c1025a12c987a089434ef723d6b89821dc545cef8ccc346ec7d994fc2f01d0100000000001976a914a1d8e3d719fc3fa870f7c29c9593183d6ef0775788ac00000000",
    "txid": "b4c57ebecd46defdff41be183720b5088f6b7063d437741c8a02d9ba9af100c5",
    "version": 1,
    "locktime": 0,
    "vin": [
        {
            "txid": "7a2fe13ad6194aa33c6c045908180a616ae8384ccff58b5932f3b23cc0430089",
            "vout": 0,
            "scriptSig": {
                "asm": "3045022100a159251664146674d16f4b81aaa7c6e703bc10c2b7f6058d385539bb2f6df157022074f42a7ffd47087a097a880c96b9696fbb4c694a4463c3bab556c8140d430f2201 036353e097c86c70b4294df075722e7c4a87b2d6abdf04142fd8ad01f65653ba5b",
                "hex": "483045022100a159251664146674d16f4b81aaa7c6e703bc10c2b7f6058d385539bb2f6df157022074f42a7ffd47087a097a880c96b9696fbb4c694a4463c3bab556c8140d430f220121036353e097c86c70b4294df075722e7c4a87b2d6abdf04142fd8ad01f65653ba5b"
            },
            "sequence": 4294967295
        },
        {
            "txid": "b8f5b99cdb89bcb138f61a6cc4fc188f746a9af44fe18830dd85b9dfdfeb9b91",
            "vout": 1,
            "scriptSig": {
                "asm": "3044022010779563b1d361425543c1768f705f53d9f9629e2a5867a981b77f96022d992e022050108c699ca9cafe22ca9ec315d2d5ad4727015ea879e036e6c8bf0b538d4f7001 036353e097c86c70b4294df075722e7c4a87b2d6abdf04142fd8ad01f65653ba5b",
                "hex": "473044022010779563b1d361425543c1768f705f53d9f9629e2a5867a981b77f96022d992e022050108c699ca9cafe22ca9ec315d2d5ad4727015ea879e036e6c8bf0b538d4f700121036353e097c86c70b4294df075722e7c4a87b2d6abdf04142fd8ad01f65653ba5b"
            },
            "sequence": 4294967295
        }
    ],
    "vout": [
        {
            "value": 5.43e-5,
            "n": 0,
            "scriptPubKey": {
                "asm": "OP_DUP OP_HASH160 c56cb39f9b289c0ec4ef6943fa107c904820fe09 OP_EQUALVERIFY OP_CHECKSIG",
                "hex": "76a914c56cb39f9b289c0ec4ef6943fa107c904820fe0988ac",
                "reqSigs": 1,
                "type": "pubkeyhash",
                "addresses": [
                    "1JztLWos5K7LsqW5E78EASgiVBaCe6f7cD"
                ]
            }
        },
        {
            "value": 0,
            "n": 1,
            "scriptPubKey": {
                "asm": "OP_RETURN 1025a12c987a089434ef723d6b89821dc545cef8ccc346ec7d994fc2",
                "hex": "6a1c1025a12c987a089434ef723d6b89821dc545cef8ccc346ec7d994fc2",
                "type": "nulldata"
            }
        },
        {
            "value": 0.000732,
            "n": 2,
            "scriptPubKey": {
                "asm": "OP_DUP OP_HASH160 a1d8e3d719fc3fa870f7c29c9593183d6ef07757 OP_EQUALVERIFY OP_CHECKSIG",
                "hex": "76a914a1d8e3d719fc3fa870f7c29c9593183d6ef0775788ac",
                "reqSigs": 1,
                "type": "pubkeyhash",
                "addresses": [
                    "1FkmcfdwbdTNku8NCZb4hzs3tpNJ3uS4pf"
                ]
            }
        }
    ],
    "blockhash": "000000000000000001b5a8ec7aa7db62d3bb292b890ac555d62f0b6183d0cd69",
    "confirmations": 10533,
    "time": 1462498830,
    "blocktime": 1462498830
}