{
    "hex" : "01000000018d2217f903585ec4200408893cd70ae237647946dd7ead0764888641829b66cc020000006b483045022100a37bcfd3087fa4ba9480ce09c7adf02ba3ce2208d6170b42e50b5b2633b91ee6022025d409d3d9dae0a159982c7ab079787948b6b6c5f87fa583d3886ebf1e074c89012102f4aef682535628a7e0492b2b5db1aa312348c3095e0258e26b275b25b10290e6ffffffff02801a0600000000001976a914c56cb39f9b289c0ec4ef6943fa107c904820fe0988acfd820500000000001976a9146ca4b6b20eac497e9ca94489c545a3372bdd2fa788ac00000000",
    "txid" : "cf9d9f4d53d36d9d34f656a6d40bc9dc739178e6ace01bcc42b4b9ea2cbf6741",
    "version" : 1,
    "locktime" : 0,
    "vin" : [
        {
            "txid" : "cc669b824186886407ad7edd46796437e20ad73c89080420c45e5803f917228d",
            "vout" : 2,
            "scriptSig" : {
                "asm" : "3045022100a37bcfd3087fa4ba9480ce09c7adf02ba3ce2208d6170b42e50b5b2633b91ee6022025d409d3d9dae0a159982c7ab079787948b6b6c5f87fa583d3886ebf1e074c8901 02f4aef682535628a7e0492b2b5db1aa312348c3095e0258e26b275b25b10290e6",
                "hex" : "483045022100a37bcfd3087fa4ba9480ce09c7adf02ba3ce2208d6170b42e50b5b2633b91ee6022025d409d3d9dae0a159982c7ab079787948b6b6c5f87fa583d3886ebf1e074c89012102f4aef682535628a7e0492b2b5db1aa312348c3095e0258e26b275b25b10290e6"
            },
            "sequence" : 4294967295
        }
    ],
    "vout" : [
        {
            "value" : 0.00400000,
            "n" : 0,
            "scriptPubKey" : {
                "asm" : "OP_DUP OP_HASH160 c56cb39f9b289c0ec4ef6943fa107c904820fe09 OP_EQUALVERIFY OP_CHECKSIG",
                "hex" : "76a914c56cb39f9b289c0ec4ef6943fa107c904820fe0988ac",
                "reqSigs" : 1,
                "type" : "pubkeyhash",
                "addresses" : [
                    "1JztLWos5K7LsqW5E78EASgiVBaCe6f7cD"
                ]
            }
        },
        {
            "value" : 0.00361213,
            "n" : 1,
            "scriptPubKey" : {
                "asm" : "OP_DUP OP_HASH160 6ca4b6b20eac497e9ca94489c545a3372bdd2fa7 OP_EQUALVERIFY OP_CHECKSIG",
                "hex" : "76a9146ca4b6b20eac497e9ca94489c545a3372bdd2fa788ac",
                "reqSigs" : 1,
                "type" : "pubkeyhash",
                "addresses" : [
                    "1AuTJDwH6xNqxRLEjPB7m86dgmerYVQ5G1"
                ]
            }
        }
    ],
    "blockhash" : "00000000000000003a1e5abc2d7af7f38a614d2fcbafe309b7e8aa147d508a9c",
    "confirmations" : 79292,
    "time" : 1403957896,
    "blocktime" : 1403957896
}
