{
    "hex": "0100000001aefea87c9295a412ba8e2726d7ead8077f92fb0137d07466477f8d4e9f86e680020000006b483045022100edb7b70af65000e2d68d4b57ebea2dd205f613c40220f625f33af5593822f23a022072f079537ad41565dd71bd567c845736986296e07e2dd387a7c10c7d6c207d65012103429636ae01031ac5117414cea2da1b65dc50f7b86ea73c0d7c2b77a4ffacb3ddffffffff0336150000000000001976a9148354bde0294aa8e450f7ef212220d6cdce23c27088ac00000000000000001e6a1c182a0aa72a0c501fa230e0722164cbb60f1adb16071565c66e945101c5920600000000001976a914b91d42f5ed440bfde8e67e0e009ce303ee24889188ac00000000",
    "txid": "ebdc2c44fabb8921bffcbc99394371070cf82c47f471a740f297b7a2bab7ed9f",
    "size": 265,
    "version": 1,
    "locktime": 0,
    "vin": [
        {
            "txid": "80e6869f4e8d7f476674d03701fb927f07d8ead726278eba12a495927ca8feae",
            "vout": 2,
            "scriptSig": {
                "asm": "3045022100edb7b70af65000e2d68d4b57ebea2dd205f613c40220f625f33af5593822f23a022072f079537ad41565dd71bd567c845736986296e07e2dd387a7c10c7d6c207d65[ALL] 03429636ae01031ac5117414cea2da1b65dc50f7b86ea73c0d7c2b77a4ffacb3dd",
                "hex": "483045022100edb7b70af65000e2d68d4b57ebea2dd205f613c40220f625f33af5593822f23a022072f079537ad41565dd71bd567c845736986296e07e2dd387a7c10c7d6c207d65012103429636ae01031ac5117414cea2da1b65dc50f7b86ea73c0d7c2b77a4ffacb3dd"
            },
            "sequence": 4294967295
        }
    ],
    "vout": [
        {
            "value": 5.43e-5,
            "n": 0,
            "scriptPubKey": {
                "asm": "OP_DUP OP_HASH160 8354bde0294aa8e450f7ef212220d6cdce23c270 OP_EQUALVERIFY OP_CHECKSIG",
                "hex": "76a9148354bde0294aa8e450f7ef212220d6cdce23c27088ac",
                "reqSigs": 1,
                "type": "pubkeyhash",
                "addresses": [
                    "1CyR361naf4voYfkb8J3Pv8CbgUFhUHqJW"
                ]
            }
        },
        {
            "value": 0,
            "n": 1,
            "scriptPubKey": {
                "asm": "OP_RETURN 182a0aa72a0c501fa230e0722164cbb60f1adb16071565c66e945101",
                "hex": "6a1c182a0aa72a0c501fa230e0722164cbb60f1adb16071565c66e945101",
                "type": "nulldata"
            }
        },
        {
            "value": 0.00430789,
            "n": 2,
            "scriptPubKey": {
                "asm": "OP_DUP OP_HASH160 b91d42f5ed440bfde8e67e0e009ce303ee248891 OP_EQUALVERIFY OP_CHECKSIG",
                "hex": "76a914b91d42f5ed440bfde8e67e0e009ce303ee24889188ac",
                "reqSigs": 1,
                "type": "pubkeyhash",
                "addresses": [
                    "1Hso4cqKAyx9bsan8b5nbPqMTNNce8ZDto"
                ]
            }
        }
    ],
    "blockhash": "0000000000000000043b55c9c26bd8aa74721927286a63c0b5e490e14653e31d",
    "confirmations": 9965,
    "time": 1469437072,
    "blocktime": 1469437072
}