{
    "hex" : "0100000001d63e8684edd156c6a0f76fbabf0518a0034e9e705a5fc55337b9df1e073612b3060000004847304402203045c5a339a50c3b8755fe2122627fd78cdb501648999815b236fc08bc7f841b022062e825bd2a34152c7f9d2396c2474ea1e38851355f65698a1344fdf0319b7bdd01ffffffff010000000000000000256a23455743dcb2a6e825bf05dca2fa5fcc75e522e74b1629fa89ea9f38106448aa85bd572900000000",
    "txid" : "8dbc65c0ab866a47cbeb7fde98c612082d7b8180f0ebf858f95aa5c7e258ea70",
    "version" : 1,
    "locktime" : 0,
    "vin" : [
        {
            "txid" : "b31236071edfb93753c55f5a709e4e03a01805bfba6ff7a0c656d1ed84863ed6",
            "vout" : 6,
            "scriptSig" : {
                "asm" : "304402203045c5a339a50c3b8755fe2122627fd78cdb501648999815b236fc08bc7f841b022062e825bd2a34152c7f9d2396c2474ea1e38851355f65698a1344fdf0319b7bdd01",
                "hex" : "47304402203045c5a339a50c3b8755fe2122627fd78cdb501648999815b236fc08bc7f841b022062e825bd2a34152c7f9d2396c2474ea1e38851355f65698a1344fdf0319b7bdd01"
            },
            "sequence" : 4294967295
        }
    ],
    "vout" : [
        {
            "value" : 0.00000000,
            "n" : 0,
            "scriptPubKey" : {
                "asm" : "OP_RETURN 455743dcb2a6e825bf05dca2fa5fcc75e522e74b1629fa89ea9f38106448aa85bd5729",
                "hex" : "6a23455743dcb2a6e825bf05dca2fa5fcc75e522e74b1629fa89ea9f38106448aa85bd5729",
                "type" : "nulldata"
            }
        }
    ],
    "blockhash" : "0000000000000000020f8f5fcf97dbfe1baa9fc7117a7568c8cf84b0e2faeac3",
    "confirmations" : 4,
    "time" : 1454501544,
    "blocktime" : 1454501544
}