{
    "hex" : "01000000012617b31d7e922d7875c3fe65b54ff0ab4104af648a508454e4f5128761fccfd3020000006b483045022100d2e5b432140028f944341ec31b8b6050c97f12a73c245bf03c2d7d3389bffd5502202c60367de45daf3d90655c8ada94c7d1cf3c6d2ac7b4f6931a699c476b60e86101210357be593e7d4c09a8e97a8c97cc759ddcec73e0ceb47cf31087a2c2727783d3d3ffffffff03e2040000000000001976a914c56cb39f9b289c0ec4ef6943fa107c904820fe0988ace204000000000000695121038cfb0cc0808f8fdb15e33407c195ca7885e40347486223b16908935dd50517322103f0d0f3d0dd2159d795de1738192dd17bea77f830d3df177c95b5c1562575040b210357be593e7d4c09a8e97a8c97cc759ddcec73e0ceb47cf31087a2c2727783d3d353ae06075300000000001976a9141949131981468beab8c05247b8726b98f0cbfd6188ac00000000",
    "txid" : "89b0faa306c6b214329a13d6067d9b032a26b3990aefb23850d553a8c8216a18",
    "version" : 1,
    "locktime" : 0,
    "vin" : [
        {
            "txid" : "d3cffc618712f5e45484508a64af0441abf04fb565fec375782d927e1db31726",
            "vout" : 2,
            "scriptSig" : {
                "asm" : "3045022100d2e5b432140028f944341ec31b8b6050c97f12a73c245bf03c2d7d3389bffd5502202c60367de45daf3d90655c8ada94c7d1cf3c6d2ac7b4f6931a699c476b60e86101 0357be593e7d4c09a8e97a8c97cc759ddcec73e0ceb47cf31087a2c2727783d3d3",
                "hex" : "483045022100d2e5b432140028f944341ec31b8b6050c97f12a73c245bf03c2d7d3389bffd5502202c60367de45daf3d90655c8ada94c7d1cf3c6d2ac7b4f6931a699c476b60e86101210357be593e7d4c09a8e97a8c97cc759ddcec73e0ceb47cf31087a2c2727783d3d3"
            },
            "sequence" : 4294967295
        }
    ],
    "vout" : [
        {
            "value" : 0.00001250,
            "n" : 0,
            "scriptPubKey" : {
                "asm" : "OP_DUP OP_HASH160 c56cb39f9b289c0ec4ef6943fa107c904820fe09 OP_EQUALVERIFY OP_CHECKSIG",
                "hex" : "76a914c56cb39f9b289c0ec4ef6943fa107c904820fe0988ac",
                "reqSigs" : 1,
                "type" : "pubkeyhash",
                "addresses" : [
                    "1JztLWos5K7LsqW5E78EASgiVBaCe6f7cD"
                ]
            }
        },
        {
            "value" : 0.00001250,
            "n" : 1,
            "scriptPubKey" : {
                "asm" : "1 038cfb0cc0808f8fdb15e33407c195ca7885e40347486223b16908935dd5051732 03f0d0f3d0dd2159d795de1738192dd17bea77f830d3df177c95b5c1562575040b 0357be593e7d4c09a8e97a8c97cc759ddcec73e0ceb47cf31087a2c2727783d3d3 3 OP_CHECKMULTISIG",
                "hex" : "5121038cfb0cc0808f8fdb15e33407c195ca7885e40347486223b16908935dd50517322103f0d0f3d0dd2159d795de1738192dd17bea77f830d3df177c95b5c1562575040b210357be593e7d4c09a8e97a8c97cc759ddcec73e0ceb47cf31087a2c2727783d3d353ae",
                "reqSigs" : 1,
                "type" : "multisig",
                "addresses" : [
                    "1KGDh1ZiYeU2m3dnTuEndU4vrW2emrALyq",
                    "182k1B1WWHP6V7siXBGF3R5TymPspgNBGM",
                    "13JhS7J6asCgw3utkp9Uap2tvttLG1obnB"
                ]
            }
        },
        {
            "value" : 0.05441286,
            "n" : 2,
            "scriptPubKey" : {
                "asm" : "OP_DUP OP_HASH160 1949131981468beab8c05247b8726b98f0cbfd61 OP_EQUALVERIFY OP_CHECKSIG",
                "hex" : "76a9141949131981468beab8c05247b8726b98f0cbfd6188ac",
                "reqSigs" : 1,
                "type" : "pubkeyhash",
                "addresses" : [
                    "13JhS7J6asCgw3utkp9Uap2tvttLG1obnB"
                ]
            }
        }
    ],
    "blockhash" : "000000000000000003f142b57c9d165be0da2439a324e30e2f4628380fb7966e",
    "confirmations" : 49164,
    "time" : 1420932311,
    "blocktime" : 1420932311
}
