{
    "hex" : "0100000001dec3af1604ee305f37e17baab6cf8cfd1c400f665490dc706587e0666319e9ab030000006b483045022100c85fe2c886495ff33461929342fd05898f2a3b54f698c2bb2e9012fd9d62925d022075c33088a8cf5b61fb62b3787a6b5bc2a1da6399aa17762884373e6fb59fab5e012103f4d43bb7382edf9c7985024552d69ba3190540fe4ed481b62aec78f657b3c60bffffffff0336150000000000001976a9143d82664b4ea9b1f3fe0298d2b5a4cccfd2f3403b88ac781e0000000000006951210376b9c7de1106e3e254fe510c125503ae52cb6ef48fd559dfd052c59e7dfcf49d2103eae108e3bb3c9d03ce008c6e59eb7d6b18e64175d94a80ffe16d7abae99df85d2103f4d43bb7382edf9c7985024552d69ba3190540fe4ed481b62aec78f657b3c60b53aefc882500000000001976a914ebc4dc6c23fd56d55ba2b917ddcdf2c94a404b1388ac00000000",
    "txid" : "c48c9a0367c84bc2ee900c793922945947b18189873ff50fb6db003c72ca4f10",
    "version" : 1,
    "locktime" : 0,
    "vin" : [
        {
            "txid" : "abe9196366e0876570dc9054660f401cfd8ccfb6aa7be1375f30ee0416afc3de",
            "vout" : 3,
            "scriptSig" : {
                "asm" : "3045022100c85fe2c886495ff33461929342fd05898f2a3b54f698c2bb2e9012fd9d62925d022075c33088a8cf5b61fb62b3787a6b5bc2a1da6399aa17762884373e6fb59fab5e01 03f4d43bb7382edf9c7985024552d69ba3190540fe4ed481b62aec78f657b3c60b",
                "hex" : "483045022100c85fe2c886495ff33461929342fd05898f2a3b54f698c2bb2e9012fd9d62925d022075c33088a8cf5b61fb62b3787a6b5bc2a1da6399aa17762884373e6fb59fab5e012103f4d43bb7382edf9c7985024552d69ba3190540fe4ed481b62aec78f657b3c60b"
            },
            "sequence" : 4294967295
        }
    ],
    "vout" : [
        {
            "value" : 0.00005430,
            "n" : 0,
            "scriptPubKey" : {
                "asm" : "OP_DUP OP_HASH160 3d82664b4ea9b1f3fe0298d2b5a4cccfd2f3403b OP_EQUALVERIFY OP_CHECKSIG",
                "hex" : "76a9143d82664b4ea9b1f3fe0298d2b5a4cccfd2f3403b88ac",
                "reqSigs" : 1,
                "type" : "pubkeyhash",
                "addresses" : [
                    "16cES2Nxv9D5vjsMT5A4HEwhbUPDg3Nnpd"
                ]
            }
        },
        {
            "value" : 0.00007800,
            "n" : 1,
            "scriptPubKey" : {
                "asm" : "1 0376b9c7de1106e3e254fe510c125503ae52cb6ef48fd559dfd052c59e7dfcf49d 03eae108e3bb3c9d03ce008c6e59eb7d6b18e64175d94a80ffe16d7abae99df85d 03f4d43bb7382edf9c7985024552d69ba3190540fe4ed481b62aec78f657b3c60b 3 OP_CHECKMULTISIG",
                "hex" : "51210376b9c7de1106e3e254fe510c125503ae52cb6ef48fd559dfd052c59e7dfcf49d2103eae108e3bb3c9d03ce008c6e59eb7d6b18e64175d94a80ffe16d7abae99df85d2103f4d43bb7382edf9c7985024552d69ba3190540fe4ed481b62aec78f657b3c60b53ae",
                "reqSigs" : 1,
                "type" : "multisig",
                "addresses" : [
                    "1GqjWoQm7u5AStmk9mmXkLGHeddcXagzm7",
                    "1Kc3ZJy7AatAGmxgxazgSbFj3GSVTJzUyu",
                    "1NVddDzRUvn8bHZEG9n5W7gfMTLeBeNAHQ"
                ]
            }
        },
        {
            "value" : 0.02459900,
            "n" : 2,
            "scriptPubKey" : {
                "asm" : "OP_DUP OP_HASH160 ebc4dc6c23fd56d55ba2b917ddcdf2c94a404b13 OP_EQUALVERIFY OP_CHECKSIG",
                "hex" : "76a914ebc4dc6c23fd56d55ba2b917ddcdf2c94a404b1388ac",
                "reqSigs" : 1,
                "type" : "pubkeyhash",
                "addresses" : [
                    "1NVddDzRUvn8bHZEG9n5W7gfMTLeBeNAHQ"
                ]
            }
        }
    ],
    "blockhash" : "0000000000000000073776af9fe180273a79ff95bdd6aa7e0c8989532295a3fe",
    "confirmations" : 49186,
    "time" : 1420917955,
    "blocktime" : 1420917955
}
