{
    "hex": "01000000049b225fef5a581c0500ce6c8991cbaa48dbbb221ffdf28eed6b93c6ae9d33aa8e000000006a47304402203edac229061e85bbaab721765217a97652c193d64465e5ab1462d6e025c2c3e8022015e9a7129dc4bb1aa919a69af619a493015041d08f0ce1e586a55895d05e24b10121023bf68b191bf9398151a2dc9e9a789301077740fafaaaff64f88348cc90e0f650feffffffa01288ec402702a8e38a2683fb73b8e9d89d7b5d4a1af3efd18ec588bf5e1ba5000000006a47304402205fb606275e3c387b1d40c6e45c7ad6221dc1c888beac726db3e417b42fba2358022060ee4f7f4714e9d33b7b365adb86777160e1e8ddfbb502b52039506f8054122901210260ec9adc4c6a018ee6d3e74fb22a2e3f12b2c7fb630414d9e21926fca46134c5feffffffeca077ea8eb88dd18651f8bf57b8982c89edf6d3abba7661e117e76b468de3d4040000006a47304402206982b57acfac980e149d1e372ebbba0270eab3ad2916f13f393343d56220e4810220382efad7632849c7c430070684c2997c946f556922249c8d29a7cbbe62f9dbba01210304cacfacfcefbab0dec2d2a0014de1f20df3e32732d5be76153362030468b937feffffffbe9e53df984bce61bcaf99d4da488c9176cde4f1881f2f6e44aa38d2f0aa7cd0010000006b483045022100cedf3453eea887bad0deee2a749daf36d049bd7901959b0ed96fb07e3aaa8a5102202e3f456f9152b6f638fa0f64df2a1dea2289a6c6f140f092a6a99d45cb29360e0121024630d6806c7652b04af2921652502e4426dd162cf03a16b2a91a047bbf063ff2feffffff0b55520000000000001976a91468b46368aeb513a13bcd8f1059a1e046fa6cc17e88aca0860100000000001976a914f511909c2641d9d3df92219143a0ec53798f1d4288aca8610000000000001976a914981324179d1d942f1e1e215023098b8d31cff1d188ac204e00000000000017a914818c81702a3a420097bd312d6adf865fd6ed35c08708520000000000001976a91417fc6547382c7e6917bd7f36ed46f8cb3fdbfec088ac204e0000000000001976a914dbe4bd4fd7592877190a2f8ead673cdcccc17bd288ac8c5a0000000000001976a9149fafc437e54f6264a9f54076c4491e8f8515b13288ac61520400000000001976a9143f9e8614adfdd61db237e456724b6d63c6a9aba288ac574e0000000000001976a9140893db437496f980b8f93fa41b5d58e545438a8188ac35630f00000000001976a914eaaafecd6b1e7b9184a0b02e820709c080601c0e88ac204e0000000000001976a9143a48bb8db8d3db7bb5d2bd6e6e5b08b0ddc518a988ac4c6c0600",
    "txid": "2f060a0c4a8bd280e420be1ebc2272320afaa095d85e041fa5319f6c7b26df79",
    "version": 1,
    "locktime": 420940,
    "vin": [
        {
            "txid": "8eaa339daec6936bed8ef2fd1f22bbdb48aacb91896cce00051c585aef5f229b",
            "vout": 0,
            "scriptSig": {
                "asm": "304402203edac229061e85bbaab721765217a97652c193d64465e5ab1462d6e025c2c3e8022015e9a7129dc4bb1aa919a69af619a493015041d08f0ce1e586a55895d05e24b101 023bf68b191bf9398151a2dc9e9a789301077740fafaaaff64f88348cc90e0f650",
                "hex": "47304402203edac229061e85bbaab721765217a97652c193d64465e5ab1462d6e025c2c3e8022015e9a7129dc4bb1aa919a69af619a493015041d08f0ce1e586a55895d05e24b10121023bf68b191bf9398151a2dc9e9a789301077740fafaaaff64f88348cc90e0f650"
            },
            "sequence": 4294967294
        },
        {
            "txid": "a51b5ebf88c58ed1eff31a4a5d7b9dd8e9b873fb83268ae3a8022740ec8812a0",
            "vout": 0,
            "scriptSig": {
                "asm": "304402205fb606275e3c387b1d40c6e45c7ad6221dc1c888beac726db3e417b42fba2358022060ee4f7f4714e9d33b7b365adb86777160e1e8ddfbb502b52039506f8054122901 0260ec9adc4c6a018ee6d3e74fb22a2e3f12b2c7fb630414d9e21926fca46134c5",
                "hex": "47304402205fb606275e3c387b1d40c6e45c7ad6221dc1c888beac726db3e417b42fba2358022060ee4f7f4714e9d33b7b365adb86777160e1e8ddfbb502b52039506f8054122901210260ec9adc4c6a018ee6d3e74fb22a2e3f12b2c7fb630414d9e21926fca46134c5"
            },
            "sequence": 4294967294
        },
        {
            "txid": "d4e38d466be717e16176baabd3f6ed892c98b857bff85186d18db88eea77a0ec",
            "vout": 4,
            "scriptSig": {
                "asm": "304402206982b57acfac980e149d1e372ebbba0270eab3ad2916f13f393343d56220e4810220382efad7632849c7c430070684c2997c946f556922249c8d29a7cbbe62f9dbba01 0304cacfacfcefbab0dec2d2a0014de1f20df3e32732d5be76153362030468b937",
                "hex": "47304402206982b57acfac980e149d1e372ebbba0270eab3ad2916f13f393343d56220e4810220382efad7632849c7c430070684c2997c946f556922249c8d29a7cbbe62f9dbba01210304cacfacfcefbab0dec2d2a0014de1f20df3e32732d5be76153362030468b937"
            },
            "sequence": 4294967294
        },
        {
            "txid": "d07caaf0d238aa446e2f1f88f1e4cd76918c48dad499afbc61ce4b98df539ebe",
            "vout": 1,
            "scriptSig": {
                "asm": "3045022100cedf3453eea887bad0deee2a749daf36d049bd7901959b0ed96fb07e3aaa8a5102202e3f456f9152b6f638fa0f64df2a1dea2289a6c6f140f092a6a99d45cb29360e01 024630d6806c7652b04af2921652502e4426dd162cf03a16b2a91a047bbf063ff2",
                "hex": "483045022100cedf3453eea887bad0deee2a749daf36d049bd7901959b0ed96fb07e3aaa8a5102202e3f456f9152b6f638fa0f64df2a1dea2289a6c6f140f092a6a99d45cb29360e0121024630d6806c7652b04af2921652502e4426dd162cf03a16b2a91a047bbf063ff2"
            },
            "sequence": 4294967294
        }
    ],
    "vout": [
        {
            "value": 0.00021077,
            "n": 0,
            "scriptPubKey": {
                "asm": "OP_DUP OP_HASH160 68b46368aeb513a13bcd8f1059a1e046fa6cc17e OP_EQUALVERIFY OP_CHECKSIG",
                "hex": "76a91468b46368aeb513a13bcd8f1059a1e046fa6cc17e88ac",
                "reqSigs": 1,
                "type": "pubkeyhash",
                "addresses": [
                    "1AYdNYvBrqe5Dh5fo7kqebwjNBXDNSePxA"
                ]
            }
        },
        {
            "value": 0.001,
            "n": 1,
            "scriptPubKey": {
                "asm": "OP_DUP OP_HASH160 f511909c2641d9d3df92219143a0ec53798f1d42 OP_EQUALVERIFY OP_CHECKSIG",
                "hex": "76a914f511909c2641d9d3df92219143a0ec53798f1d4288ac",
                "reqSigs": 1,
                "type": "pubkeyhash",
                "addresses": [
                    "1PLobRpST1JzNgTt5PYUTETL2TmSrBCTxz"
                ]
            }
        },
        {
            "value": 0.00025,
            "n": 2,
            "scriptPubKey": {
                "asm": "OP_DUP OP_HASH160 981324179d1d942f1e1e215023098b8d31cff1d1 OP_EQUALVERIFY OP_CHECKSIG",
                "hex": "76a914981324179d1d942f1e1e215023098b8d31cff1d188ac",
                "reqSigs": 1,
                "type": "pubkeyhash",
                "addresses": [
                    "1Es6e6dyh8xAZdwGca2ydSbUUc6EkFJKBa"
                ]
            }
        },
        {
            "value": 0.0002,
            "n": 3,
            "scriptPubKey": {
                "asm": "OP_HASH160 818c81702a3a420097bd312d6adf865fd6ed35c0 OP_EQUAL",
                "hex": "a914818c81702a3a420097bd312d6adf865fd6ed35c087",
                "reqSigs": 1,
                "type": "scripthash",
                "addresses": [
                    "3DW1QnrM3NiTQiqNdNrpy1JpvnyRRCtmmw"
                ]
            }
        },
        {
            "value": 0.00021,
            "n": 4,
            "scriptPubKey": {
                "asm": "OP_DUP OP_HASH160 17fc6547382c7e6917bd7f36ed46f8cb3fdbfec0 OP_EQUALVERIFY OP_CHECKSIG",
                "hex": "76a91417fc6547382c7e6917bd7f36ed46f8cb3fdbfec088ac",
                "reqSigs": 1,
                "type": "pubkeyhash",
                "addresses": [
                    "13BpuAh3bco5uPVKEvHJMAtcTvZ3cXJADV"
                ]
            }
        },
        {
            "value": 0.0002,
            "n": 5,
            "scriptPubKey": {
                "asm": "OP_DUP OP_HASH160 dbe4bd4fd7592877190a2f8ead673cdcccc17bd2 OP_EQUALVERIFY OP_CHECKSIG",
                "hex": "76a914dbe4bd4fd7592877190a2f8ead673cdcccc17bd288ac",
                "reqSigs": 1,
                "type": "pubkeyhash",
                "addresses": [
                    "1M3h17NkYGidLAMFr55qVAwR8cz2dd98NM"
                ]
            }
        },
        {
            "value": 0.0002318,
            "n": 6,
            "scriptPubKey": {
                "asm": "OP_DUP OP_HASH160 9fafc437e54f6264a9f54076c4491e8f8515b132 OP_EQUALVERIFY OP_CHECKSIG",
                "hex": "76a9149fafc437e54f6264a9f54076c4491e8f8515b13288ac",
                "reqSigs": 1,
                "type": "pubkeyhash",
                "addresses": [
                    "1FZLzyG9bWkppYMkyqgyTBx5J4KBVqMuiB"
                ]
            }
        },
        {
            "value": 0.00283233,
            "n": 7,
            "scriptPubKey": {
                "asm": "OP_DUP OP_HASH160 3f9e8614adfdd61db237e456724b6d63c6a9aba2 OP_EQUALVERIFY OP_CHECKSIG",
                "hex": "76a9143f9e8614adfdd61db237e456724b6d63c6a9aba288ac",
                "reqSigs": 1,
                "type": "pubkeyhash",
                "addresses": [
                    "16oPUWWWu3UmgB2vTZDLc33WRVErK4TJZK"
                ]
            }
        },
        {
            "value": 0.00020055,
            "n": 8,
            "scriptPubKey": {
                "asm": "OP_DUP OP_HASH160 0893db437496f980b8f93fa41b5d58e545438a81 OP_EQUALVERIFY OP_CHECKSIG",
                "hex": "76a9140893db437496f980b8f93fa41b5d58e545438a8188ac",
                "reqSigs": 1,
                "type": "pubkeyhash",
                "addresses": [
                    "1nMXnV9XjjrQETtR9SZfAKqJomM3ArNun"
                ]
            }
        },
        {
            "value": 0.01008437,
            "n": 9,
            "scriptPubKey": {
                "asm": "OP_DUP OP_HASH160 eaaafecd6b1e7b9184a0b02e820709c080601c0e OP_EQUALVERIFY OP_CHECKSIG",
                "hex": "76a914eaaafecd6b1e7b9184a0b02e820709c080601c0e88ac",
                "reqSigs": 1,
                "type": "pubkeyhash",
                "addresses": [
                    "1NPoxrPhEWP8bnojc693ShNLnEZqAY6NWj"
                ]
            }
        },
        {
            "value": 0.0002,
            "n": 10,
            "scriptPubKey": {
                "asm": "OP_DUP OP_HASH160 3a48bb8db8d3db7bb5d2bd6e6e5b08b0ddc518a9 OP_EQUALVERIFY OP_CHECKSIG",
                "hex": "76a9143a48bb8db8d3db7bb5d2bd6e6e5b08b0ddc518a988ac",
                "reqSigs": 1,
                "type": "pubkeyhash",
                "addresses": [
                    "16KBKgKinMJioGByupPRerJEg3CvBHD7H2"
                ]
            }
        }
    ],
    "blockhash": "000000000000000003b2f9538c2d1db86b02380969054a0a1577a48707675f2a",
    "confirmations": 23,
    "time": 1468654874,
    "blocktime": 1468654874
}