{
    "hex": "01000000012cc3a562c3e109d5745ae970b46eb81a12f5b969c230c23f7858cb641c360f03030000006b48304502206862da436b2984da4de89eec2fc326426604b9a510a65b83bfb2bb1e3eb32bfa022100ad33b23f6e9a2c4aa67d24eea0e36682d5e8b477efb688ff555f7e2b96a1fcbd012102f4aef682535628a7e0492b2b5db1aa312348c3095e0258e26b275b25b10290e6ffffffff036c2a0000000000001976a914054de2026ffd559cdd60b70fbb0c71f7a2108f0688ac6c2a00000000000047512102f4aef682535628a7e0492b2b5db1aa312348c3095e0258e26b275b25b10290e6211c434e545250525459000000000000131412fde0ef000000000000019a0000000052ae9deb0b00000000001976a9146ca4b6b20eac497e9ca94489c545a3372bdd2fa788ac00000000",
    "txid": "cc669b824186886407ad7edd46796437e20ad73c89080420c45e5803f917228d",
    "size": 306,
    "version": 1,
    "locktime": 0,
    "vin": [
        {
            "txid": "030f361c64cb58783fc230c269b9f5121ab86eb470e95a74d509e1c362a5c32c",
            "vout": 3,
            "scriptSig": {
                "asm": "304502206862da436b2984da4de89eec2fc326426604b9a510a65b83bfb2bb1e3eb32bfa022100ad33b23f6e9a2c4aa67d24eea0e36682d5e8b477efb688ff555f7e2b96a1fcbd[ALL] 02f4aef682535628a7e0492b2b5db1aa312348c3095e0258e26b275b25b10290e6",
                "hex": "48304502206862da436b2984da4de89eec2fc326426604b9a510a65b83bfb2bb1e3eb32bfa022100ad33b23f6e9a2c4aa67d24eea0e36682d5e8b477efb688ff555f7e2b96a1fcbd012102f4aef682535628a7e0492b2b5db1aa312348c3095e0258e26b275b25b10290e6"
            },
            "sequence": 4294967295
        }
    ],
    "vout": [
        {
            "value": 0.0001086,
            "n": 0,
            "scriptPubKey": {
                "asm": "OP_DUP OP_HASH160 054de2026ffd559cdd60b70fbb0c71f7a2108f06 OP_EQUALVERIFY OP_CHECKSIG",
                "hex": "76a914054de2026ffd559cdd60b70fbb0c71f7a2108f0688ac",
                "reqSigs": 1,
                "type": "pubkeyhash",
                "addresses": [
                    "1V3gMZFzAxmVj6g3Y1685jaGUH3cXUuM4"
                ]
            }
        },
        {
            "value": 0.0001086,
            "n": 1,
            "scriptPubKey": {
                "asm": "1 02f4aef682535628a7e0492b2b5db1aa312348c3095e0258e26b275b25b10290e6 1c434e545250525459000000000000131412fde0ef000000000000019a00000000 2 OP_CHECKMULTISIG",
                "hex": "512102f4aef682535628a7e0492b2b5db1aa312348c3095e0258e26b275b25b10290e6211c434e545250525459000000000000131412fde0ef000000000000019a0000000052ae",
                "reqSigs": 1,
                "type": "multisig",
                "addresses": [
                    "1AuTJDwH6xNqxRLEjPB7m86dgmerYVQ5G1"
                ]
            }
        },
        {
            "value": 0.00781213,
            "n": 2,
            "scriptPubKey": {
                "asm": "OP_DUP OP_HASH160 6ca4b6b20eac497e9ca94489c545a3372bdd2fa7 OP_EQUALVERIFY OP_CHECKSIG",
                "hex": "76a9146ca4b6b20eac497e9ca94489c545a3372bdd2fa788ac",
                "reqSigs": 1,
                "type": "pubkeyhash",
                "addresses": [
                    "1AuTJDwH6xNqxRLEjPB7m86dgmerYVQ5G1"
                ]
            }
        }
    ],
    "blockhash": "00000000000000002e88d00ceb4af89927fd4f286e6875aa3cf2039ac5714cac",
    "confirmations": 126869,
    "time": 1402503609,
    "blocktime": 1402503609
}