{
    "hex": "010000000220529b98157d6ac4890d59221388d2e6d64dd26f3cfcb2c04e35c2ea727956f2010000006a473044022019dd902186c200a1bdf9cca36a579621b0e520b63b1afea306da0a90549fd9e802205505cc31525822909cf58e6d03756735f168e010e054a83a8101b07c643369b101210295349598839ca868d0905767f0dc9fb44b2bd365d12327574d2bbc7ea8db9c77feffffff2c808897aa9156c56a8080fdff1ab9cf58637a93f8e28ece16eecea123fe181b000000006b483045022100a798891029a9eb9632e19f0bd2723d0be583639ed594c7730d1486a95f4d274302201fb5e289386f299b89b8fbf1be6ed540c0f39207fa2c4fb8f84dce8d77963648012102d646ccae23edb7291f486800a649c0112f40741be91c9f659642438da4074449feffffff0b56430f00000000001976a91486a6409b35a21cf8e3f04f4b8d76e1d28e51541688ac004a1100000000001976a91449929028861fef36fcf6d3f785e0d076c3d60dc588aca0860100000000001976a914f19fec5bc23976389a0621c9cbd387bdd60468c188ac974d0300000000001976a914d2a1f8e72e96f7a85beab32cab82cd4ed225e8ed88ac237e0000000000001976a914aa3990ea8434f838ceb7751c4a6ffb43ebc3cc7288ac700b02000000000017a91479581c9cc31bf8061832cd5c49ac18c67c4c4c84876d2c0400000000001976a9144ee887a64746fedf9e2ebd4c4b21e27cae30dcfa88accc5b00000000000017a9143d5e770ffc32ad5bf4d03a64dfc44c8cade4162f8756ad0000000000001976a9142f7bda4b7a658c3a3ca6ba4cf2581e27f961125388ac042900000000000017a9144f30d660215e11f3d13ad1e85b159bfea24a231d87dbf00c000000000017a914895e6773c358ac381f152f9076c33b8b237c35a6874c6c0600",
    "txid": "73baa79b36f04958a06e0555ce214bcd317aa85f471a9719793e7e9d2b281ab1",
    "version": 1,
    "locktime": 420940,
    "vin": [
        {
            "txid": "f2567972eac2354ec0b2fc3c6fd24dd6e6d2881322590d89c46a7d15989b5220",
            "vout": 1,
            "scriptSig": {
                "asm": "3044022019dd902186c200a1bdf9cca36a579621b0e520b63b1afea306da0a90549fd9e802205505cc31525822909cf58e6d03756735f168e010e054a83a8101b07c643369b101 0295349598839ca868d0905767f0dc9fb44b2bd365d12327574d2bbc7ea8db9c77",
                "hex": "473044022019dd902186c200a1bdf9cca36a579621b0e520b63b1afea306da0a90549fd9e802205505cc31525822909cf58e6d03756735f168e010e054a83a8101b07c643369b101210295349598839ca868d0905767f0dc9fb44b2bd365d12327574d2bbc7ea8db9c77"
            },
            "sequence": 4294967294
        },
        {
            "txid": "1b18fe23a1ceee16ce8ee2f8937a6358cfb91afffd80806ac55691aa9788802c",
            "vout": 0,
            "scriptSig": {
                "asm": "3045022100a798891029a9eb9632e19f0bd2723d0be583639ed594c7730d1486a95f4d274302201fb5e289386f299b89b8fbf1be6ed540c0f39207fa2c4fb8f84dce8d7796364801 02d646ccae23edb7291f486800a649c0112f40741be91c9f659642438da4074449",
                "hex": "483045022100a798891029a9eb9632e19f0bd2723d0be583639ed594c7730d1486a95f4d274302201fb5e289386f299b89b8fbf1be6ed540c0f39207fa2c4fb8f84dce8d77963648012102d646ccae23edb7291f486800a649c0112f40741be91c9f659642438da4074449"
            },
            "sequence": 4294967294
        }
    ],
    "vout": [
        {
            "value": 0.01000278,
            "n": 0,
            "scriptPubKey": {
                "asm": "OP_DUP OP_HASH160 86a6409b35a21cf8e3f04f4b8d76e1d28e515416 OP_EQUALVERIFY OP_CHECKSIG",
                "hex": "76a91486a6409b35a21cf8e3f04f4b8d76e1d28e51541688ac",
                "reqSigs": 1,
                "type": "pubkeyhash",
                "addresses": [
                    "1DGxi86YH9xj26NLntbAdqUVnPQ6asNgTb"
                ]
            }
        },
        {
            "value": 0.01133056,
            "n": 1,
            "scriptPubKey": {
                "asm": "OP_DUP OP_HASH160 49929028861fef36fcf6d3f785e0d076c3d60dc5 OP_EQUALVERIFY OP_CHECKSIG",
                "hex": "76a91449929028861fef36fcf6d3f785e0d076c3d60dc588ac",
                "reqSigs": 1,
                "type": "pubkeyhash",
                "addresses": [
                    "17i1uPUvNLavMyUDhp2dfEVA6aYXsz7sXd"
                ]
            }
        },
        {
            "value": 0.001,
            "n": 2,
            "scriptPubKey": {
                "asm": "OP_DUP OP_HASH160 f19fec5bc23976389a0621c9cbd387bdd60468c1 OP_EQUALVERIFY OP_CHECKSIG",
                "hex": "76a914f19fec5bc23976389a0621c9cbd387bdd60468c188ac",
                "reqSigs": 1,
                "type": "pubkeyhash",
                "addresses": [
                    "1P2bRtv5JqBU8ovCLRzrUvASfPgrd8mmCv"
                ]
            }
        },
        {
            "value": 0.00216471,
            "n": 3,
            "scriptPubKey": {
                "asm": "OP_DUP OP_HASH160 d2a1f8e72e96f7a85beab32cab82cd4ed225e8ed OP_EQUALVERIFY OP_CHECKSIG",
                "hex": "76a914d2a1f8e72e96f7a85beab32cab82cd4ed225e8ed88ac",
                "reqSigs": 1,
                "type": "pubkeyhash",
                "addresses": [
                    "1LCiwKJSY9eTsKUwRSsaPoVMsGnogFT26B"
                ]
            }
        },
        {
            "value": 0.00032291,
            "n": 4,
            "scriptPubKey": {
                "asm": "OP_DUP OP_HASH160 aa3990ea8434f838ceb7751c4a6ffb43ebc3cc72 OP_EQUALVERIFY OP_CHECKSIG",
                "hex": "76a914aa3990ea8434f838ceb7751c4a6ffb43ebc3cc7288ac",
                "reqSigs": 1,
                "type": "pubkeyhash",
                "addresses": [
                    "1GX4qNbpw8BSkhXb46z4FjQ1gsAqi72rJs"
                ]
            }
        },
        {
            "value": 0.00134,
            "n": 5,
            "scriptPubKey": {
                "asm": "OP_HASH160 79581c9cc31bf8061832cd5c49ac18c67c4c4c84 OP_EQUAL",
                "hex": "a91479581c9cc31bf8061832cd5c49ac18c67c4c4c8487",
                "reqSigs": 1,
                "type": "scripthash",
                "addresses": [
                    "3CkdEsJewqiETMw5saWNT61c8jXqPgwr3r"
                ]
            }
        },
        {
            "value": 0.00273517,
            "n": 6,
            "scriptPubKey": {
                "asm": "OP_DUP OP_HASH160 4ee887a64746fedf9e2ebd4c4b21e27cae30dcfa OP_EQUALVERIFY OP_CHECKSIG",
                "hex": "76a9144ee887a64746fedf9e2ebd4c4b21e27cae30dcfa88ac",
                "reqSigs": 1,
                "type": "pubkeyhash",
                "addresses": [
                    "18CEGRV6FFrNwtmkdQAbNNBAyykqbb75nR"
                ]
            }
        },
        {
            "value": 0.000235,
            "n": 7,
            "scriptPubKey": {
                "asm": "OP_HASH160 3d5e770ffc32ad5bf4d03a64dfc44c8cade4162f OP_EQUAL",
                "hex": "a9143d5e770ffc32ad5bf4d03a64dfc44c8cade4162f87",
                "reqSigs": 1,
                "type": "scripthash",
                "addresses": [
                    "37HWJo3rFFxbCMVHtdT6CFPq1yDAViHik3"
                ]
            }
        },
        {
            "value": 0.00044374,
            "n": 8,
            "scriptPubKey": {
                "asm": "OP_DUP OP_HASH160 2f7bda4b7a658c3a3ca6ba4cf2581e27f9611253 OP_EQUALVERIFY OP_CHECKSIG",
                "hex": "76a9142f7bda4b7a658c3a3ca6ba4cf2581e27f961125388ac",
                "reqSigs": 1,
                "type": "pubkeyhash",
                "addresses": [
                    "15L58TJVdb7h2mmK1MzBWgqNNaLwK5chtG"
                ]
            }
        },
        {
            "value": 0.000105,
            "n": 9,
            "scriptPubKey": {
                "asm": "OP_HASH160 4f30d660215e11f3d13ad1e85b159bfea24a231d OP_EQUAL",
                "hex": "a9144f30d660215e11f3d13ad1e85b159bfea24a231d87",
                "reqSigs": 1,
                "type": "scripthash",
                "addresses": [
                    "38ujoyqKee72XoXvkVufTQm6KaMWz9rD4S"
                ]
            }
        },
        {
            "value": 0.00848091,
            "n": 10,
            "scriptPubKey": {
                "asm": "OP_HASH160 895e6773c358ac381f152f9076c33b8b237c35a6 OP_EQUAL",
                "hex": "a914895e6773c358ac381f152f9076c33b8b237c35a687",
                "reqSigs": 1,
                "type": "scripthash",
                "addresses": [
                    "3EDMb8uR2uLsmjZ7dH2u3oQgXMw7JKeoyu"
                ]
            }
        }
    ],
    "blockhash": "000000000000000003b2f9538c2d1db86b02380969054a0a1577a48707675f2a",
    "confirmations": 23,
    "time": 1468654874,
    "blocktime": 1468654874
}