{
    "hex": "0100000001e00c549249b9a622210a475ab92a6dafa4aee053c6238e69880a7240a6c0324d000000006b483045022100f2de01ef784810ea2021344f1d62e904101de9668054378cf7649e81f351d4a002200a5f762a5986bd9e8633f2911f2822741dc94cb96752f74c542a95d81133301c01210289a214ab89331fce20385922cdb61b67d771fe0702f135070ea779a2fd6c1e26feffffff07204e0000000000001976a91429669de880dc2476ad16d976199841b0f7efb6e788aca0860100000000001976a914f511909c2641d9d3df92219143a0ec53798f1d4288ac204e0000000000001976a914c9a865f7e048c640eda3cc726513b3036057b3dc88ac204e0000000000001976a914bd3fa11ccd80f8f30b5df10be310f134de26b6b988ac8a4e0000000000001976a91492a062070f918e53a126300d5a2319e2f1edb09888acf0441a00000000001976a914e87949db24c3a03e340dd8a9b146b3bd2a37b6e688ac204e0000000000001976a914cf40536f6bcb5e8d5c27402170aeef50dc26198288ac4c6c0600",
    "txid": "1cdd3459685583debe849a0e3a7dfe59b5a196fe021a2c7e6e1e9b4070ee0490",
    "version": 1,
    "locktime": 420940,
    "vin": [
        {
            "txid": "4d32c0a640720a88698e23c653e0aea4af6d2ab95a470a2122a6b94992540ce0",
            "vout": 0,
            "scriptSig": {
                "asm": "3045022100f2de01ef784810ea2021344f1d62e904101de9668054378cf7649e81f351d4a002200a5f762a5986bd9e8633f2911f2822741dc94cb96752f74c542a95d81133301c01 0289a214ab89331fce20385922cdb61b67d771fe0702f135070ea779a2fd6c1e26",
                "hex": "483045022100f2de01ef784810ea2021344f1d62e904101de9668054378cf7649e81f351d4a002200a5f762a5986bd9e8633f2911f2822741dc94cb96752f74c542a95d81133301c01210289a214ab89331fce20385922cdb61b67d771fe0702f135070ea779a2fd6c1e26"
            },
            "sequence": 4294967294
        }
    ],
    "vout": [
        {
            "value": 0.0002,
            "n": 0,
            "scriptPubKey": {
                "asm": "OP_DUP OP_HASH160 29669de880dc2476ad16d976199841b0f7efb6e7 OP_EQUALVERIFY OP_CHECKSIG",
                "hex": "76a91429669de880dc2476ad16d976199841b0f7efb6e788ac",
                "reqSigs": 1,
                "type": "pubkeyhash",
                "addresses": [
                    "14mudoppt1J1dVyNxioU3oqxwMppGU1eZG"
                ]
            }
        },
        {
            "value": 0.001,
            "n": 1,
            "scriptPubKey": {
                "asm": "OP_DUP OP_HASH160 f511909c2641d9d3df92219143a0ec53798f1d42 OP_EQUALVERIFY OP_CHECKSIG",
                "hex": "76a914f511909c2641d9d3df92219143a0ec53798f1d4288ac",
                "reqSigs": 1,
                "type": "pubkeyhash",
                "addresses": [
                    "1PLobRpST1JzNgTt5PYUTETL2TmSrBCTxz"
                ]
            }
        },
        {
            "value": 0.0002,
            "n": 2,
            "scriptPubKey": {
                "asm": "OP_DUP OP_HASH160 c9a865f7e048c640eda3cc726513b3036057b3dc OP_EQUALVERIFY OP_CHECKSIG",
                "hex": "76a914c9a865f7e048c640eda3cc726513b3036057b3dc88ac",
                "reqSigs": 1,
                "type": "pubkeyhash",
                "addresses": [
                    "1KPGZ5Wvzm6KJ3aDccUhVKKTqo5KD2ZDTP"
                ]
            }
        },
        {
            "value": 0.0002,
            "n": 3,
            "scriptPubKey": {
                "asm": "OP_DUP OP_HASH160 bd3fa11ccd80f8f30b5df10be310f134de26b6b9 OP_EQUALVERIFY OP_CHECKSIG",
                "hex": "76a914bd3fa11ccd80f8f30b5df10be310f134de26b6b988ac",
                "reqSigs": 1,
                "type": "pubkeyhash",
                "addresses": [
                    "1JFewJRYDSWuQGber4fZyDKcxbKBec8VM6"
                ]
            }
        },
        {
            "value": 0.00020106,
            "n": 4,
            "scriptPubKey": {
                "asm": "OP_DUP OP_HASH160 92a062070f918e53a126300d5a2319e2f1edb098 OP_EQUALVERIFY OP_CHECKSIG",
                "hex": "76a91492a062070f918e53a126300d5a2319e2f1edb09888ac",
                "reqSigs": 1,
                "type": "pubkeyhash",
                "addresses": [
                    "1ENHncFyaLdakcwrifMmBfnMNorzRwXoKc"
                ]
            }
        },
        {
            "value": 0.01721584,
            "n": 5,
            "scriptPubKey": {
                "asm": "OP_DUP OP_HASH160 e87949db24c3a03e340dd8a9b146b3bd2a37b6e6 OP_EQUALVERIFY OP_CHECKSIG",
                "hex": "76a914e87949db24c3a03e340dd8a9b146b3bd2a37b6e688ac",
                "reqSigs": 1,
                "type": "pubkeyhash",
                "addresses": [
                    "1NCD4n68ED1mVJFFQacsnGL4DRCLEfZcF7"
                ]
            }
        },
        {
            "value": 0.0002,
            "n": 6,
            "scriptPubKey": {
                "asm": "OP_DUP OP_HASH160 cf40536f6bcb5e8d5c27402170aeef50dc261982 OP_EQUALVERIFY OP_CHECKSIG",
                "hex": "76a914cf40536f6bcb5e8d5c27402170aeef50dc26198288ac",
                "reqSigs": 1,
                "type": "pubkeyhash",
                "addresses": [
                    "1Ktqw9petWTxcG5murZycgGxMM869eGWG8"
                ]
            }
        }
    ],
    "blockhash": "000000000000000003b2f9538c2d1db86b02380969054a0a1577a48707675f2a",
    "confirmations": 23,
    "time": 1468654874,
    "blocktime": 1468654874
}