{
    "blockhash": "000000000000000000862af07dfed8c50a0492424dc4824296d04fcc0ea2dd84",
    "blocktime": 1508265525,
    "confirmations": 2,
    "hash": "a13efa00507c51d52a4e7638a2e65674d9f271de1533a0eba4845876b90b41bf",
    "hex": "0100000001a4ce45af1dbf2f2762b4182d119029bdb235f18ba9e5f8ac4318adcecb29d1c2020000006b483045022100b7d7800a40e6b0cfae0ebd30bbcac608ff49c83d6fea59fb46bddb085c2cdd140220761a3ad2b4d9a4ce5fe0d8f5838040c988caa9bbe1ff2e67451b67a2fa417278012103920354646bdc4763305fc841034d2d31f68c6bbb244e3ecb1dbe55f74841c278ffffffff020000000000000000306a2eced9973cc976675112cfa8cb5472ab9da3fc00e06e7b793c7ad6782a2ef0641e4e893473dc0c3c659ff0e59b4791c5d21300000000001976a9144158821d0e886daeb5f69508bf0e0b8d8fb41bc888ac00000000",
    "locktime": 0,
    "size": 249,
    "time": 1508265525,
    "txid": "a13efa00507c51d52a4e7638a2e65674d9f271de1533a0eba4845876b90b41bf",
    "version": 1,
    "vin": [
        {
            "scriptSig": {
                "asm": "3045022100b7d7800a40e6b0cfae0ebd30bbcac608ff49c83d6fea59fb46bddb085c2cdd140220761a3ad2b4d9a4ce5fe0d8f5838040c988caa9bbe1ff2e67451b67a2fa417278[ALL] 03920354646bdc4763305fc841034d2d31f68c6bbb244e3ecb1dbe55f74841c278",
                "hex": "483045022100b7d7800a40e6b0cfae0ebd30bbcac608ff49c83d6fea59fb46bddb085c2cdd140220761a3ad2b4d9a4ce5fe0d8f5838040c988caa9bbe1ff2e67451b67a2fa417278012103920354646bdc4763305fc841034d2d31f68c6bbb244e3ecb1dbe55f74841c278"
            },
            "sequence": 4294967295,
            "txid": "c2d129cbcead1843acf8e5a98bf135b2bd2990112d18b462272fbf1daf45cea4",
            "vout": 2
        }
    ],
    "vout": [
        {
            "n": 0,
            "scriptPubKey": {
                "asm": "OP_RETURN ced9973cc976675112cfa8cb5472ab9da3fc00e06e7b793c7ad6782a2ef0641e4e893473dc0c3c659ff0e59b4791",
                "hex": "6a2eced9973cc976675112cfa8cb5472ab9da3fc00e06e7b793c7ad6782a2ef0641e4e893473dc0c3c659ff0e59b4791",
                "type": "nulldata"
            },
            "value": 0
        },
        {
            "n": 1,
            "scriptPubKey": {
                "addresses": [
                    "16xWx8Zgn52aMdNyk8TXqjq3gwqXZcSCxj"
                ],
                "asm": "OP_DUP OP_HASH160 4158821d0e886daeb5f69508bf0e0b8d8fb41bc8 OP_EQUALVERIFY OP_CHECKSIG",
                "hex": "76a9144158821d0e886daeb5f69508bf0e0b8d8fb41bc888ac",
                "reqSigs": 1,
                "type": "pubkeyhash"
            },
            "value": 0.01299141
        }
    ],
    "vsize": 249
}