{
    "hex": "0100000002fb0d9308803f33f95c0cbab7aaacebb43e300968815c24df3f08656b5856f63313000000fdfd00004830450221008feabe15d6bb3bf298bba94a6bd4f4482c5b417394d1ac3dd3d300a739da7b7b02207f916831febae0d989439a72ac875b1a7241c09eb5374252560cc001d47b36530147304402202e8daee73943e96761ab763f54f82563e7a56c578360d60ed585efc080b772ac022020477dee2bec304a79e36fd285eb508a79354bd2d361509f60974e4d609a4b06014c6952210211bf1148cfb9c1f3a6c87f187802115eb4adac3ab903a14bca1b38b090de32572102b19a5aa0473cb351aa22c34de5c68c6adc620439f0c991ddfcd2d58fdd8e5e702102128d4d87018532743e1ec26d8b775aec171968466ae566eb69b1c394789fb62053aeffffffff8931d2d853306d69d0c2134ce5df617860f5a3021ebaadc8f840cda4d77371f609000000fc0047304402205ac47b7ea6b06b7c33d7b290e44bcacc0e32e11b2ae948573d1038ad5917d66002200de0491adc827438db453fe3ab4287a3ac3cd3acf8044b9037ecf83f7f8d5b160147304402200c3b8e8b563c6698ac77f780dcf61827e4711c071893e9729627a238dbe24db302205d44856e51eaae90658f060750b6354c66c66eb6a2780f467c1a640572c8d292014c6952210331296d4c5730101d064b394537ba0760254b8edbb77169e89bffe43a4fcd2e8e2103c5f277d9ec7dff7900bba69c80c2e1cdbeb2ddd4aba29c65f6cceea7158f300021034c4d64578bd16d013324e57a6feb812173c2811558c9523726edc2115cf12d3253aeffffffff051aae0f00000000001976a914b42588a822f4217ae2f1cd47e5c7bb5b9a5abc1688accf1500000000000017a914947b02a4a03bf2ec37f8cf406dd5e35a43c7e1bb87fe150000000000001976a91430324e3e3a7d9c84bee80dc25ce8711b8820885788ace73a22000000000017a91410354fc33f9a8e15a7b577edf80a7e249a704354877c150000000000001976a914b8b90ea831ff9fb6bcdc4c343154859c37b3c42a88ac00000000",
    "txid": "4a8748c1fde029ab843e67e168455f65a528a6c113ddc94eb85b4d4c0ed0022e",
    "version": 1,
    "locktime": 0,
    "vin": [
        {
            "txid": "33f656586b65083fdf245c816809303eb4ebacaab7ba0c5cf9333f8008930dfb",
            "vout": 19,
            "scriptSig": {
                "asm": "0 30450221008feabe15d6bb3bf298bba94a6bd4f4482c5b417394d1ac3dd3d300a739da7b7b02207f916831febae0d989439a72ac875b1a7241c09eb5374252560cc001d47b365301 304402202e8daee73943e96761ab763f54f82563e7a56c578360d60ed585efc080b772ac022020477dee2bec304a79e36fd285eb508a79354bd2d361509f60974e4d609a4b0601 52210211bf1148cfb9c1f3a6c87f187802115eb4adac3ab903a14bca1b38b090de32572102b19a5aa0473cb351aa22c34de5c68c6adc620439f0c991ddfcd2d58fdd8e5e702102128d4d87018532743e1ec26d8b775aec171968466ae566eb69b1c394789fb62053ae",
                "hex": "004830450221008feabe15d6bb3bf298bba94a6bd4f4482c5b417394d1ac3dd3d300a739da7b7b02207f916831febae0d989439a72ac875b1a7241c09eb5374252560cc001d47b36530147304402202e8daee73943e96761ab763f54f82563e7a56c578360d60ed585efc080b772ac022020477dee2bec304a79e36fd285eb508a79354bd2d361509f60974e4d609a4b06014c6952210211bf1148cfb9c1f3a6c87f187802115eb4adac3ab903a14bca1b38b090de32572102b19a5aa0473cb351aa22c34de5c68c6adc620439f0c991ddfcd2d58fdd8e5e702102128d4d87018532743e1ec26d8b775aec171968466ae566eb69b1c394789fb62053ae"
            },
            "sequence": 4294967295
        },
        {
            "txid": "f67173d7a4cd40f8c8adba1e02a3f5607861dfe54c13c2d0696d3053d8d23189",
            "vout": 9,
            "scriptSig": {
                "asm": "0 304402205ac47b7ea6b06b7c33d7b290e44bcacc0e32e11b2ae948573d1038ad5917d66002200de0491adc827438db453fe3ab4287a3ac3cd3acf8044b9037ecf83f7f8d5b1601 304402200c3b8e8b563c6698ac77f780dcf61827e4711c071893e9729627a238dbe24db302205d44856e51eaae90658f060750b6354c66c66eb6a2780f467c1a640572c8d29201 52210331296d4c5730101d064b394537ba0760254b8edbb77169e89bffe43a4fcd2e8e2103c5f277d9ec7dff7900bba69c80c2e1cdbeb2ddd4aba29c65f6cceea7158f300021034c4d64578bd16d013324e57a6feb812173c2811558c9523726edc2115cf12d3253ae",
                "hex": "0047304402205ac47b7ea6b06b7c33d7b290e44bcacc0e32e11b2ae948573d1038ad5917d66002200de0491adc827438db453fe3ab4287a3ac3cd3acf8044b9037ecf83f7f8d5b160147304402200c3b8e8b563c6698ac77f780dcf61827e4711c071893e9729627a238dbe24db302205d44856e51eaae90658f060750b6354c66c66eb6a2780f467c1a640572c8d292014c6952210331296d4c5730101d064b394537ba0760254b8edbb77169e89bffe43a4fcd2e8e2103c5f277d9ec7dff7900bba69c80c2e1cdbeb2ddd4aba29c65f6cceea7158f300021034c4d64578bd16d013324e57a6feb812173c2811558c9523726edc2115cf12d3253ae"
            },
            "sequence": 4294967295
        }
    ],
    "vout": [
        {
            "value": 0.0102761,
            "n": 0,
            "scriptPubKey": {
                "asm": "OP_DUP OP_HASH160 b42588a822f4217ae2f1cd47e5c7bb5b9a5abc16 OP_EQUALVERIFY OP_CHECKSIG",
                "hex": "76a914b42588a822f4217ae2f1cd47e5c7bb5b9a5abc1688ac",
                "reqSigs": 1,
                "type": "pubkeyhash",
                "addresses": [
                    "1HRXbRdh69rFttwomscBhRiFU4N8FrfMdt"
                ]
            }
        },
        {
            "value": 5.583e-5,
            "n": 1,
            "scriptPubKey": {
                "asm": "OP_HASH160 947b02a4a03bf2ec37f8cf406dd5e35a43c7e1bb OP_EQUAL",
                "hex": "a914947b02a4a03bf2ec37f8cf406dd5e35a43c7e1bb87",
                "reqSigs": 1,
                "type": "scripthash",
                "addresses": [
                    "3FE7HqnCYVKEDYoFrBBHQLA7iV9Uap8d1C"
                ]
            }
        },
        {
            "value": 5.63e-5,
            "n": 2,
            "scriptPubKey": {
                "asm": "OP_DUP OP_HASH160 30324e3e3a7d9c84bee80dc25ce8711b88208857 OP_EQUALVERIFY OP_CHECKSIG",
                "hex": "76a91430324e3e3a7d9c84bee80dc25ce8711b8820885788ac",
                "reqSigs": 1,
                "type": "pubkeyhash",
                "addresses": [
                    "15PqhWH96f1RVimwWT6XkVQhZVcmveb49k"
                ]
            }
        },
        {
            "value": 0.02243303,
            "n": 3,
            "scriptPubKey": {
                "asm": "OP_HASH160 10354fc33f9a8e15a7b577edf80a7e249a704354 OP_EQUAL",
                "hex": "a91410354fc33f9a8e15a7b577edf80a7e249a70435487",
                "reqSigs": 1,
                "type": "scripthash",
                "addresses": [
                    "33AibmPKKKDRfSZsqgugzGY5MQnrVYpfQr"
                ]
            }
        },
        {
            "value": 5.5e-5,
            "n": 4,
            "scriptPubKey": {
                "asm": "OP_DUP OP_HASH160 b8b90ea831ff9fb6bcdc4c343154859c37b3c42a OP_EQUALVERIFY OP_CHECKSIG",
                "hex": "76a914b8b90ea831ff9fb6bcdc4c343154859c37b3c42a88ac",
                "reqSigs": 1,
                "type": "pubkeyhash",
                "addresses": [
                    "1Hqj2JQw9ZA9bGBcJdsBd12n9HCDjS3Edw"
                ]
            }
        }
    ],
    "blockhash": "0000000000000000003a6444684e503f501ae76b21179c6119d8d22c09a70772",
    "confirmations": 21,
    "time": 1468656166,
    "blocktime": 1468656166
}