{
    "hex": "010000000184b91f7a6d168bd0b69520f8c9fc5b918b85648e9f3bf4af67784f8e6113bff3020000006a47304402205fe4c0e875974b3e0858d925fc01cf5fdb393f4fa0609d6ab0ecb6c5451202a702203783487036b1ca29d8ea685f7bc9190ffb2e432d4a7202afa267ea420920580e0121020ba30b3409037b6653fdcc916775fe7f2a2dbca9b934cd51e5d207f56a8178e7ffffffff03e2040000000000001976a914ebb0013404622f5fecfcb386bae0a784bd68bfae88ace20400000000000069512102a2abf740ada3facd1fe13e6500e2a66f13a53974119f12b4494b8cb0372684ab2102536d869a05a1eb1be1079a91049b70d9d376a5405efc96174b07e70621d5f43021020ba30b3409037b6653fdcc916775fe7f2a2dbca9b934cd51e5d207f56a8178e753ae169f5900000000001976a91476d12dfbe58981a0008ab832f6f02ebfd2f7866188ac00000000",
    "txid": "b61bff55d9c5b14f32515b2b00eaf72d3f1c1b951f0747b3199ade27544efd74",
    "size": 339,
    "version": 1,
    "locktime": 0,
    "vin": [
        {
            "txid": "f3bf13618e4f7867aff43b9f8e64858b915bfcc9f82095b6d08b166d7a1fb984",
            "vout": 2,
            "scriptSig": {
                "asm": "304402205fe4c0e875974b3e0858d925fc01cf5fdb393f4fa0609d6ab0ecb6c5451202a702203783487036b1ca29d8ea685f7bc9190ffb2e432d4a7202afa267ea420920580e[ALL] 020ba30b3409037b6653fdcc916775fe7f2a2dbca9b934cd51e5d207f56a8178e7",
                "hex": "47304402205fe4c0e875974b3e0858d925fc01cf5fdb393f4fa0609d6ab0ecb6c5451202a702203783487036b1ca29d8ea685f7bc9190ffb2e432d4a7202afa267ea420920580e0121020ba30b3409037b6653fdcc916775fe7f2a2dbca9b934cd51e5d207f56a8178e7"
            },
            "sequence": 4294967295
        }
    ],
    "vout": [
        {
            "value": 1.25e-5,
            "n": 0,
            "scriptPubKey": {
                "asm": "OP_DUP OP_HASH160 ebb0013404622f5fecfcb386bae0a784bd68bfae OP_EQUALVERIFY OP_CHECKSIG",
                "hex": "76a914ebb0013404622f5fecfcb386bae0a784bd68bfae88ac",
                "reqSigs": 1,
                "type": "pubkeyhash",
                "addresses": [
                    "1NVCe6s5B8jPziVeiNi6LFPbzEmzqNc4cD"
                ]
            }
        },
        {
            "value": 1.25e-5,
            "n": 1,
            "scriptPubKey": {
                "asm": "1 02a2abf740ada3facd1fe13e6500e2a66f13a53974119f12b4494b8cb0372684ab 02536d869a05a1eb1be1079a91049b70d9d376a5405efc96174b07e70621d5f430 020ba30b3409037b6653fdcc916775fe7f2a2dbca9b934cd51e5d207f56a8178e7 3 OP_CHECKMULTISIG",
                "hex": "512102a2abf740ada3facd1fe13e6500e2a66f13a53974119f12b4494b8cb0372684ab2102536d869a05a1eb1be1079a91049b70d9d376a5405efc96174b07e70621d5f43021020ba30b3409037b6653fdcc916775fe7f2a2dbca9b934cd51e5d207f56a8178e753ae",
                "reqSigs": 1,
                "type": "multisig",
                "addresses": [
                    "1919EB2bsh9dRHcRQm9VMtogNeojWX3iXL",
                    "17FTkg3x3qxNwEadG7ZC1YqqTjC3bWFE1f",
                    "1BqFKh5wwQpT3bor1kvTi6qFiBBdjDyVok"
                ]
            }
        },
        {
            "value": 0.0587343,
            "n": 2,
            "scriptPubKey": {
                "asm": "OP_DUP OP_HASH160 76d12dfbe58981a0008ab832f6f02ebfd2f78661 OP_EQUALVERIFY OP_CHECKSIG",
                "hex": "76a91476d12dfbe58981a0008ab832f6f02ebfd2f7866188ac",
                "reqSigs": 1,
                "type": "pubkeyhash",
                "addresses": [
                    "1BqFKh5wwQpT3bor1kvTi6qFiBBdjDyVok"
                ]
            }
        }
    ],
    "blockhash": "00000000000000000d45b7b575aada5c6e7f45d33455683d9e37292fa916b27c",
    "confirmations": 84552,
    "time": 1426358977,
    "blocktime": 1426358977
}