{
    "hex": "0100000001e36111037fc3cb510a0398af438f3b8c219827d73c549861c390be8c6a97e287010000006b483045022100e45d09ddcb7893c9d6137c495ddd9af45d5e1682c4861f8ea25c4e4aba7f70cb02205cf84f2efb30664e8dd74366f60281c938bf0ffbba1e8efc0e0d0d008f272c7c0121022694a4f48a3d185b59f04cda1a89a928a3cf40d506c515418d1a85c73acd93d0ffffffff020000000000000000516a4c4eac1fec4a8c9c1265041600ebea390832891f2ed8667eee9942d6f5f0062ae6917dfbc30042ab57fb60403e53256a6c3f6b08092bb2e50bd09cd1ac46965dd5c45948d20614ea78b7d7dcdc61aeb3e4d99700000000001976a914cd5dd87902ec05191400f7ce4de7b19ac49b86b688ac00000000",
    "txid": "19ad5baa46b1a39a8391447f22724e8ab1486e201ef8e7eb3363f1e5ec6c8e41",
    "version": 1,
    "locktime": 0,
    "vin": [
        {
            "txid": "87e2976a8cbe90c36198543cd72798218c3b8f43af98030a51cbc37f031161e3",
            "vout": 1,
            "scriptSig": {
                "asm": "3045022100e45d09ddcb7893c9d6137c495ddd9af45d5e1682c4861f8ea25c4e4aba7f70cb02205cf84f2efb30664e8dd74366f60281c938bf0ffbba1e8efc0e0d0d008f272c7c01 022694a4f48a3d185b59f04cda1a89a928a3cf40d506c515418d1a85c73acd93d0",
                "hex": "483045022100e45d09ddcb7893c9d6137c495ddd9af45d5e1682c4861f8ea25c4e4aba7f70cb02205cf84f2efb30664e8dd74366f60281c938bf0ffbba1e8efc0e0d0d008f272c7c0121022694a4f48a3d185b59f04cda1a89a928a3cf40d506c515418d1a85c73acd93d0"
            },
            "sequence": 4294967295
        }
    ],
    "vout": [
        {
            "value": 0,
            "n": 0,
            "scriptPubKey": {
                "asm": "OP_RETURN ac1fec4a8c9c1265041600ebea390832891f2ed8667eee9942d6f5f0062ae6917dfbc30042ab57fb60403e53256a6c3f6b08092bb2e50bd09cd1ac46965dd5c45948d20614ea78b7d7dcdc61aeb3",
                "hex": "6a4c4eac1fec4a8c9c1265041600ebea390832891f2ed8667eee9942d6f5f0062ae6917dfbc30042ab57fb60403e53256a6c3f6b08092bb2e50bd09cd1ac46965dd5c45948d20614ea78b7d7dcdc61aeb3",
                "type": "nulldata"
            }
        },
        {
            "value": 0.09951716,
            "n": 1,
            "scriptPubKey": {
                "asm": "OP_DUP OP_HASH160 cd5dd87902ec05191400f7ce4de7b19ac49b86b6 OP_EQUALVERIFY OP_CHECKSIG",
                "hex": "76a914cd5dd87902ec05191400f7ce4de7b19ac49b86b688ac",
                "reqSigs": 1,
                "type": "pubkeyhash",
                "addresses": [
                    "1KiswqEUc9PjyGxgu7d7ypqgikNErkzfkb"
                ]
            }
        }
    ],
    "blockhash": "00000000000000000443b6c11980754b035869fc6953ee5a9dff51e5d3203ddb",
    "confirmations": 46,
    "time": 1468646911,
    "blocktime": 1468646911
}