{
    "hex" : "010000000124e8f871a3af980c19d75217fdb558e1521fb00b3621b41d24b06e87391d07e600000000fc00473044022013bdc1b841dc6de7cf81eb6b892e8954b8c252fd3626f51ec30eabac58bba6fa022037e07db62d80491572db4b11e41f9675f5309257914e1a0c52cb5f4ca88f75fc01473044022039109277d5f99475442ccc036b2978e5cbe993209d80d130d3fc1a4ad2bffc6302206401b81451175f8cac79eebb9c54b147025a5acb6e8b03ede1e277ae748a49ca014c6952210357605c1972a30f8593e5f459925a32b753e6d5735dc208ae1f3c3808ce87339321038319a9d2d7e62dc12ed1143cd4ab562505540604b8d960ff6d67f20059a90b972103d472c8b14e0a08ce28fbf5486a6f4908decb6fa86993c40e535e8f0af30c6c7d53aeffffffff025ab7f0050000000017a9143f1418c46865caa5299c1d619122b2f130a198de87a0a0a7010000000017a914398c88f25303858c4e3acac6528839fb398c6cf98700000000",
    "txid" : "94415dc3ad8ada2f9a65623b67bd525b34f539703760a234beb6c612690abeef",
    "version" : 1,
    "locktime" : 0,
    "vin" : [
        {
            "txid" : "e6071d39876eb0241db421360bb01f52e158b5fd1752d7190c98afa371f8e824",
            "vout" : 0,
            "scriptSig" : {
                "asm" : "0 3044022013bdc1b841dc6de7cf81eb6b892e8954b8c252fd3626f51ec30eabac58bba6fa022037e07db62d80491572db4b11e41f9675f5309257914e1a0c52cb5f4ca88f75fc01 3044022039109277d5f99475442ccc036b2978e5cbe993209d80d130d3fc1a4ad2bffc6302206401b81451175f8cac79eebb9c54b147025a5acb6e8b03ede1e277ae748a49ca01 52210357605c1972a30f8593e5f459925a32b753e6d5735dc208ae1f3c3808ce87339321038319a9d2d7e62dc12ed1143cd4ab562505540604b8d960ff6d67f20059a90b972103d472c8b14e0a08ce28fbf5486a6f4908decb6fa86993c40e535e8f0af30c6c7d53ae",
                "hex" : "00473044022013bdc1b841dc6de7cf81eb6b892e8954b8c252fd3626f51ec30eabac58bba6fa022037e07db62d80491572db4b11e41f9675f5309257914e1a0c52cb5f4ca88f75fc01473044022039109277d5f99475442ccc036b2978e5cbe993209d80d130d3fc1a4ad2bffc6302206401b81451175f8cac79eebb9c54b147025a5acb6e8b03ede1e277ae748a49ca014c6952210357605c1972a30f8593e5f459925a32b753e6d5735dc208ae1f3c3808ce87339321038319a9d2d7e62dc12ed1143cd4ab562505540604b8d960ff6d67f20059a90b972103d472c8b14e0a08ce28fbf5486a6f4908decb6fa86993c40e535e8f0af30c6c7d53ae"
            },
            "sequence" : 4294967295
        }
    ],
    "vout" : [
        {
            "value" : 0.99661658,
            "n" : 0,
            "scriptPubKey" : {
                "asm" : "OP_HASH160 3f1418c46865caa5299c1d619122b2f130a198de OP_EQUAL",
                "hex" : "a9143f1418c46865caa5299c1d619122b2f130a198de87",
                "reqSigs" : 1,
                "type" : "scripthash",
                "addresses" : [
                    "37SYZyXvoGgPuZ5YTur9v6gtuYBj3Bh2XK"
                ]
            }
        },
        {
            "value" : 0.27762848,
            "n" : 1,
            "scriptPubKey" : {
                "asm" : "OP_HASH160 398c88f25303858c4e3acac6528839fb398c6cf9 OP_EQUAL",
                "hex" : "a914398c88f25303858c4e3acac6528839fb398c6cf987",
                "reqSigs" : 1,
                "type" : "scripthash",
                "addresses" : [
                    "36wJo1xtHZ2NGcCovy6vHgWvyF7ryMTjHF"
                ]
            }
        }
    ],
    "blockhash" : "0000000000000000050b5bb68b8f163b5f74eced5c409b14245e6fc1d74f83f5",
    "confirmations" : 152,
    "time" : 1451912683,
    "blocktime" : 1451912683
}
