{
    "hex": "01000000019f52f80ee90a2e5ac1b473697b08a42f959e7ebb15666edca14984aa5d8b8a5b010000006b483045022100ecf5a0fd674c989a7819e7cf7eee1ccb24bb2dba43cecb5c305d429fdef5f8a102201b70583871b3a82f9442a049d8a40d368caf7f8086bc2cf1098e4e3c61514f7f0121022694a4f48a3d185b59f04cda1a89a928a3cf40d506c515418d1a85c73acd93d0ffffffff0200000000000000004d6a4ba83895c1dc2db0e718687fea1abb0411abaa5b0ebb800e22d44e9083cbebfb9d3a21685cb8b881e70cb2cd9a452c1217c3def2edd150c1f0b90c3f1b791aeb7fc03be47dff2383a73cf6f89afa9700000000001976a914cd5dd87902ec05191400f7ce4de7b19ac49b86b688ac00000000",
    "txid": "87e2976a8cbe90c36198543cd72798218c3b8f43af98030a51cbc37f031161e3",
    "version": 1,
    "locktime": 0,
    "vin": [
        {
            "txid": "5b8a8b5daa8449a1dc6e6615bb7e9e952fa4087b6973b4c15a2e0ae90ef8529f",
            "vout": 1,
            "scriptSig": {
                "asm": "3045022100ecf5a0fd674c989a7819e7cf7eee1ccb24bb2dba43cecb5c305d429fdef5f8a102201b70583871b3a82f9442a049d8a40d368caf7f8086bc2cf1098e4e3c61514f7f01 022694a4f48a3d185b59f04cda1a89a928a3cf40d506c515418d1a85c73acd93d0",
                "hex": "483045022100ecf5a0fd674c989a7819e7cf7eee1ccb24bb2dba43cecb5c305d429fdef5f8a102201b70583871b3a82f9442a049d8a40d368caf7f8086bc2cf1098e4e3c61514f7f0121022694a4f48a3d185b59f04cda1a89a928a3cf40d506c515418d1a85c73acd93d0"
            },
            "sequence": 4294967295
        }
    ],
    "vout": [
        {
            "value": 0,
            "n": 0,
            "scriptPubKey": {
                "asm": "OP_RETURN a83895c1dc2db0e718687fea1abb0411abaa5b0ebb800e22d44e9083cbebfb9d3a21685cb8b881e70cb2cd9a452c1217c3def2edd150c1f0b90c3f1b791aeb7fc03be47dff2383a73cf6f8",
                "hex": "6a4ba83895c1dc2db0e718687fea1abb0411abaa5b0ebb800e22d44e9083cbebfb9d3a21685cb8b881e70cb2cd9a452c1217c3def2edd150c1f0b90c3f1b791aeb7fc03be47dff2383a73cf6f8",
                "type": "nulldata"
            }
        },
        {
            "value": 0.0996009,
            "n": 1,
            "scriptPubKey": {
                "asm": "OP_DUP OP_HASH160 cd5dd87902ec05191400f7ce4de7b19ac49b86b6 OP_EQUALVERIFY OP_CHECKSIG",
                "hex": "76a914cd5dd87902ec05191400f7ce4de7b19ac49b86b688ac",
                "reqSigs": 1,
                "type": "pubkeyhash",
                "addresses": [
                    "1KiswqEUc9PjyGxgu7d7ypqgikNErkzfkb"
                ]
            }
        }
    ],
    "blockhash": "00000000000000000058d133b4a072fff76229bb346947c6c57f9f899c52411e",
    "confirmations": 50,
    "time": 1468643544,
    "blocktime": 1468643544
}