[
    {
        "txid" : "dbfdc2a0d22a8282c4e7be0452d595695f3a39173bed4f48e590877382b112fc",
        "version" : 1,
        "locktime" : 0,
        "vin" : [
            {
                "txid" : "ebe8d47bb26d2c343e16c1a1628c22ed3c204dfec75d445718391f3f9d1d90b7",
                "vout" : 1,
                "scriptSig" : {
                    "asm" : "304502210088deb99e3394737d56bdb1a412ee2660deb24112baa26ec638891ade82ccf042022003355e056ce88f66ffb159184a932227a3176413c75286ff1d01e2e6be86197901 034fa90bcdf199a2879b2f0cc82c097c1553d30f0c24c97cdc79a17d649270c0dd",
                    "hex" : "48304502210088deb99e3394737d56bdb1a412ee2660deb24112baa26ec638891ade82ccf042022003355e056ce88f66ffb159184a932227a3176413c75286ff1d01e2e6be8619790121034fa90bcdf199a2879b2f0cc82c097c1553d30f0c24c97cdc79a17d649270c0dd"
                },
                "sequence" : 4294967295
            }
        ],
        "vout" : [
            {
                "value" : 0.234,
                "n" : 0,
                "scriptPubKey" : {
                    "asm" : "OP_DUP OP_HASH160 e50575162795cd77366fb80d728e3216bd52deac OP_EQUALVERIFY OP_CHECKSIG",
                    "hex" : "76a914e50575162795cd77366fb80d728e3216bd52deac88ac",
                    "reqSigs" : 1,
                    "type" : "pubkeyhash",
                    "addresses" : [
                        "1JztLWos5K7LsqW5E78EASgiVBaCe6f7cD"
                    ]
                }
            }
        ],
        "blockhash" : "00000000000000000802ad4c4667a0b7a128851e8e357047aea4d742ac911304",
        "confirmations" : 13291,
        "time" : 1439005781,
        "blocktime" : 1439005781,
        "hex" : "0100000001b7901d9d3f1f391857445dc7fe4d203ced228c62a1c1163e342c6db27bd4e8eb010000006b48304502210088deb99e3394737d56bdb1a412ee2660deb24112baa26ec638891ade82ccf042022003355e056ce88f66ffb159184a932227a3176413c75286ff1d01e2e6be8619790121034fa90bcdf199a2879b2f0cc82c097c1553d30f0c24c97cdc79a17d649270c0ddffffffff02a0860100000000001976a914906002db4dd7dd6f1a2a182c0037159348760fa388ac10825301000000001976a914e0dc82068424252082dd7e4efda737a334ce85a288ac00000000"
    },
    {
        "txid" : "e2b82af55d64f12fd0dd075d0922ee7d6a300f58fe60a23cbb5831b31d1d58b4",
        "version" : 1,
        "locktime" : 0,
        "vin" : [
            {
                "txid" : "ebe8d47bb26d2c343e16c1a1628c22ed3c204dfec75d445718391f3f9d1d90b7",
                "vout" : 1,
                "scriptSig" : {
                    "asm" : "304502210088deb99e3394737d56bdb1a412ee2660deb24112baa26ec638891ade82ccf042022003355e056ce88f66ffb159184a932227a3176413c75286ff1d01e2e6be86197901 034fa90bcdf199a2879b2f0cc82c097c1553d30f0c24c97cdc79a17d649270c0dd",
                    "hex" : "48304502210088deb99e3394737d56bdb1a412ee2660deb24112baa26ec638891ade82ccf042022003355e056ce88f66ffb159184a932227a3176413c75286ff1d01e2e6be8619790121034fa90bcdf199a2879b2f0cc82c097c1553d30f0c24c97cdc79a17d649270c0dd"
                },
                "sequence" : 4294967295
            }
        ],
        "vout" : [
            {
                "value" : 0.001,
                "n" : 0,
                "scriptPubKey" : {
                    "asm" : "OP_DUP OP_HASH160 e50575162795cd77366fb80d728e3216bd52deac OP_EQUALVERIFY OP_CHECKSIG",
                    "hex" : "76a914e50575162795cd77366fb80d728e3216bd52deac88ac",
                    "reqSigs" : 1,
                    "type" : "pubkeyhash",
                    "addresses" : [
                        "1JztLWos5K7LsqW5E78EASgiVBaCe6f7cD"
                    ]
                }
            }
        ],
        "blockhash" : "00000000000000000802ad4c4667a0b7a128851e8e357047aea4d742ac911304",
        "confirmations" : 13291,
        "time" : 1439005781,
        "blocktime" : 1439005781,
        "hex" : "0100000001b7901d9d3f1f391857445dc7fe4d203ced228c62a1c1163e342c6db27bd4e8eb010000006b48304502210088deb99e3394737d56bdb1a412ee2660deb24112baa26ec638891ade82ccf042022003355e056ce88f66ffb159184a932227a3176413c75286ff1d01e2e6be8619790121034fa90bcdf199a2879b2f0cc82c097c1553d30f0c24c97cdc79a17d649270c0ddffffffff02a0860100000000001976a914906002db4dd7dd6f1a2a182c0037159348760fa388ac10825301000000001976a914e0dc82068424252082dd7e4efda737a334ce85a288ac00000000"
    }
]