{
    "txid": "d9f3f3e592e1427a25cfe18c1e15d4fd5dc8db494e855b7f5cb650c638f74319",
    "network": "counterparty",
    "timestamp": 1467747898,
    "counterPartyTxType": "issuance",
    "sources": [],
    "destinations": [
        "1AAAA1111xxxxxxxxxxxxxxxxxxy43CZ9j"
    ],
    "values": {
        "1AAAA1111xxxxxxxxxxxxxxxxxxy43CZ9j": 1409527.13
    },
    "asset": "LTBCOIN",
    "bitcoinTx": {
        "hex": "0100000001404746d7a3ca588e685c9c7837264a59f414193799fff758072765aea15be02b020000006b483045022100bdcc1274f03b7c11c1e36fde682cd2c43cf6677971fca5d6d8496a12ca68f65e0220230a184b058397d26685deb0603c710ee0dc70c47777b8440908685e22a97194012103429636ae01031ac5117414cea2da1b65dc50f7b86ea73c0d7c2b77a4ffacb3ddffffffff020000000000000000536a4c502d4df4adc288c989ed3c7063940ba4259cb15a558340cf2fed9be05a4899c8ec997b6d1d1377f4ee937fc3e458275dfae9bbe4ef50367a0a04b9b991d4ffc02213357e97a67c9b61b13d08223d08e3e29cfa0900000000001976a914b91d42f5ed440bfde8e67e0e009ce303ee24889188ac00000000",
        "txid": "d9f3f3e592e1427a25cfe18c1e15d4fd5dc8db494e855b7f5cb650c638f74319",
        "version": 1,
        "locktime": 0,
        "vin": [
            {
                "txid": "2be05ba1ae65270758f7ff99371914f4594a2637789c5c688e58caa3d7464740",
                "vout": 2,
                "scriptSig": {
                    "asm": "3045022100bdcc1274f03b7c11c1e36fde682cd2c43cf6677971fca5d6d8496a12ca68f65e0220230a184b058397d26685deb0603c710ee0dc70c47777b8440908685e22a9719401 03429636ae01031ac5117414cea2da1b65dc50f7b86ea73c0d7c2b77a4ffacb3dd",
                    "hex": "483045022100bdcc1274f03b7c11c1e36fde682cd2c43cf6677971fca5d6d8496a12ca68f65e0220230a184b058397d26685deb0603c710ee0dc70c47777b8440908685e22a97194012103429636ae01031ac5117414cea2da1b65dc50f7b86ea73c0d7c2b77a4ffacb3dd"
                },
                "sequence": 4294967295,
                "n": 0,
                "addr": "1AAAA1111xxxxxxxxxxxxxxxxxxy43CZ9j",
                "value": 0.0066398,
                "valueSat": 663980
            }
        ],
        "vout": [
            {
                "value": 0,
                "n": 0,
                "scriptPubKey": {
                    "asm": "OP_RETURN 2d4df4adc288c989ed3c7063940ba4259cb15a558340cf2fed9be05a4899c8ec997b6d1d1377f4ee937fc3e458275dfae9bbe4ef50367a0a04b9b991d4ffc02213357e97a67c9b61b13d08223d08e3e2",
                    "hex": "6a4c502d4df4adc288c989ed3c7063940ba4259cb15a558340cf2fed9be05a4899c8ec997b6d1d1377f4ee937fc3e458275dfae9bbe4ef50367a0a04b9b991d4ffc02213357e97a67c9b61b13d08223d08e3e2",
                    "type": "nulldata"
                }
            },
            {
                "value": 0.0065398,
                "n": 1,
                "scriptPubKey": {
                    "asm": "OP_DUP OP_HASH160 b91d42f5ed440bfde8e67e0e009ce303ee248891 OP_EQUALVERIFY OP_CHECKSIG",
                    "hex": "76a914b91d42f5ed440bfde8e67e0e009ce303ee24889188ac",
                    "reqSigs": 1,
                    "type": "pubkeyhash",
                    "addresses": [
                        "1AAAA1111xxxxxxxxxxxxxxxxxxy43CZ9j"
                    ]
                }
            }
        ],
        "blockhash": "0000000000000000053ad78773db9405f92c0c979c90c65076fc7824b6c9426d",
        "confirmations": 377,
        "time": 1467521389,
        "blocktime": 1467521389,
        "valueIn": 0.0066398,
        "valueInSat": 663980,
        "valueOut": 0.0065398,
        "valueOutSat": 653980,
        "fees": 0.0001,
        "feesSat": 10000,
        "blockheight": null
    },
    "counterpartyTx": {
        "type": "issuance",
        "sources": [],
        "destinations": [
            "1AAAA1111xxxxxxxxxxxxxxxxxxy43CZ9j"
        ],
        "quantity": 1409527.13,
        "asset": "LTBCOIN",
        "divisible": true,
        "callable": false,
        "call_date": 0,
        "call_price": 0,
        "description": "Crypto-Rewards Program http://ltbcoin.com",
        "quantitySat": 140952713000000,
        "dustSize": 0,
        "dustSizeSat": 0
    },
    "transactionFingerprint": "4e4d035e57671085315704571b725a829059966f2307658a3474a91fb5c9263d"
}